{"abi":[{"type":"constructor","inputs":[{"name":"token","type":"address","internalType":"contract IERC20"}],"stateMutability":"nonpayable"},{"type":"function","name":"bad2","inputs":[{"name":"from","type":"address","internalType":"address"},{"name":"to","type":"address","internalType":"address"},{"name":"amount","type":"uint256","internalType":"uint256"}],"outputs":[],"stateMutability":"nonpayable"},{"type":"function","name":"bad3","inputs":[{"name":"from","type":"address","internalType":"address"},{"name":"to","type":"address","internalType":"address"},{"name":"amount","type":"uint256","internalType":"uint256"}],"outputs":[],"stateMutability":"nonpayable"},{"type":"function","name":"good1","inputs":[{"name":"to","type":"address","internalType":"address"},{"name":"am","type":"uint256","internalType":"uint256"}],"outputs":[],"stateMutability":"nonpayable"},{"type":"function","name":"good2","inputs":[{"name":"to","type":"address","internalType":"address"},{"name":"amount","type":"uint256","internalType":"uint256"}],"outputs":[],"stateMutability":"nonpayable"},{"type":"function","name":"good3","inputs":[{"name":"to","type":"address","internalType":"address"},{"name":"amount","type":"uint256","internalType":"uint256"}],"outputs":[],"stateMutability":"nonpayable"},{"type":"function","name":"good4","inputs":[{"name":"to","type":"address","internalType":"address"},{"name":"amount","type":"uint256","internalType":"uint256"}],"outputs":[],"stateMutability":"nonpayable"},{"type":"function","name":"good5","inputs":[{"name":"from","type":"address","internalType":"address"},{"name":"to","type":"address","internalType":"address"},{"name":"amount","type":"uint256","internalType":"uint256"}],"outputs":[],"stateMutability":"nonpayable"},{"type":"function","name":"good6","inputs":[{"name":"to","type":"address","internalType":"address"},{"name":"amount","type":"uint256","internalType":"uint256"}],"outputs":[],"stateMutability":"nonpayable"}],"bytecode":{"object":"0x608060405234801561001057600080fd5b506040516106d73803806106d783398101604081905261002f91610054565b600080546001600160a01b0319166001600160a01b0392909216919091179055610084565b60006020828403121561006657600080fd5b81516001600160a01b038116811461007d57600080fd5b9392505050565b610644806100936000396000f3fe608060405234801561001057600080fd5b50600436106100885760003560e01c806382225f511161005b57806382225f51146100b557806384346c3c146100c85780639dfd53b6146100db578063ccd8365d146100ee57600080fd5b8063273e64b21461008d57806342083ffe1461008d5780634b118522146100a257806369dd5472146100a2575b600080fd5b6100a061009b366004610535565b610101565b005b6100a06100b036600461055f565b61011d565b6100a06100c336600461055f565b61013a565b6100a06100d6366004610535565b610152565b6100a06100e9366004610535565b6101cf565b6100a06100fc366004610535565b6101e7565b600054610119906001600160a01b031633848461026c565b5050565b600054610135906001600160a01b031684848461026c565b505050565b600054610135906001600160a01b031630848461026c565b6000546040516323b872dd60e01b81523360048201526001600160a01b03848116602483015260448201849052909116906323b872dd906064016020604051808303816000875af11580156101ab573d6000803e3d6000fd5b505050506040513d601f19601f82011682018060405250810190610135919061059b565b600054610119906001600160a01b031630848461026c565b6000546040516323b872dd60e01b815233600482018190526001600160a01b03858116602484015260448301859052909216906323b872dd906064016020604051808303816000875af1158015610242573d6000803e3d6000fd5b505050506040513d601f19601f82011682018060405250810190610266919061059b565b50505050565b604080516001600160a01b038581166024830152848116604483015260648083018590528351808403909101815260849092018352602080830180516001600160e01b03166323b872dd60e01b17905283518085019094528084527f5361666545524332303a206c6f772d6c6576656c2063616c6c206661696c65649084015261026692879291600091610304918516908490610389565b9050805160001480610325575080806020019051810190610325919061059b565b6101355760405162461bcd60e51b815260206004820152602a60248201527f5361666545524332303a204552433230206f7065726174696f6e20646964206e6044820152691bdd081cdd58d8d9595960b21b60648201526084015b60405180910390fd5b606061039884846000856103a0565b949350505050565b6060824710156104015760405162461bcd60e51b815260206004820152602660248201527f416464726573733a20696e73756666696369656e742062616c616e636520666f6044820152651c8818d85b1b60d21b6064820152608401610380565b600080866001600160a01b0316858760405161041d91906105e8565b60006040518083038185875af1925050503d806000811461045a576040519150601f19603f3d011682016040523d82523d6000602084013e61045f565b606091505b50915091506104708783838761047b565b979650505050505050565b606083156104ea5782516000036104e3576001600160a01b0385163b6104e35760405162461bcd60e51b815260206004820152601d60248201527f416464726573733a2063616c6c20746f206e6f6e2d636f6e74726163740000006044820152606401610380565b5081610398565b61039883838151156104ff5781518083602001fd5b8060405162461bcd60e51b81526004016103809190610604565b80356001600160a01b038116811461053057600080fd5b919050565b6000806040838503121561054857600080fd5b61055183610519565b946020939093013593505050565b60008060006060848603121561057457600080fd5b61057d84610519565b925061058b60208501610519565b9150604084013590509250925092565b6000602082840312156105ad57600080fd5b815180151581146105bd57600080fd5b9392505050565b60005b838110156105df5781810151838201526020016105c7565b50506000910152565b600082516105fa8184602087016105c4565b9190910192915050565b60208152600082518060208401526106238160408501602087016105c4565b601f01601f1916919091016040019291505056fea164736f6c6343000813000a","linkReferences":{}},"methodIdentifiers":{"bad2(address,address,uint256)":"4b118522","bad3(address,address,uint256)":"69dd5472","good1(address,uint256)":"ccd8365d","good2(address,uint256)":"42083ffe","good3(address,uint256)":"273e64b2","good4(address,uint256)":"9dfd53b6","good5(address,address,uint256)":"82225f51","good6(address,uint256)":"84346c3c"},"id":7}