{
  "_format": "hh-sol-artifact-1",
  "contractName": "ExtendedInheritance",
  "sourceName": "contracts/ExtendedInheritance.sol",
  "abi": [
    {
      "anonymous": false,
      "inputs": [
        {
          "indexed": false,
          "internalType": "uint256",
          "name": "something",
          "type": "uint256"
        }
      ],
      "name": "Do",
      "type": "event"
    },
    {
      "anonymous": false,
      "inputs": [
        {
          "indexed": false,
          "internalType": "uint256",
          "name": "somethingElse",
          "type": "uint256"
        }
      ],
      "name": "DoSomethingElse",
      "type": "event"
    },
    {
      "anonymous": false,
      "inputs": [
        {
          "indexed": true,
          "internalType": "uint256",
          "name": "somethingElse",
          "type": "uint256"
        }
      ],
      "name": "DoSomethingElseWithIndex",
      "type": "event"
    },
    {
      "inputs": [
        {
          "internalType": "uint256",
          "name": "somethingElse",
          "type": "uint256"
        }
      ],
      "name": "doSomething",
      "outputs": [],
      "stateMutability": "nonpayable",
      "type": "function"
    },
    {
      "inputs": [
        {
          "internalType": "address",
          "name": "target",
          "type": "address"
        }
      ],
      "name": "doSomethingElse",
      "outputs": [],
      "stateMutability": "nonpayable",
      "type": "function"
    },
    {
      "inputs": [
        {
          "internalType": "uint8",
          "name": "v",
          "type": "uint8"
        },
        {
          "internalType": "bytes32",
          "name": "r",
          "type": "bytes32"
        },
        {
          "internalType": "bytes32",
          "name": "s",
          "type": "bytes32"
        },
        {
          "internalType": "bytes32",
          "name": "theHash",
          "type": "bytes32"
        }
      ],
      "name": "recoverThatThang",
      "outputs": [
        {
          "internalType": "address",
          "name": "",
          "type": "address"
        }
      ],
      "stateMutability": "pure",
      "type": "function"
    }
  ],
  "bytecode": "0x608060405234801561001057600080fd5b50610610806100206000396000f3fe608060405234801561001057600080fd5b50600436106100415760003560e01c80637277d9d214610046578063a5666fa214610062578063a6b206bf14610092575b600080fd5b610060600480360381019061005b91906102be565b6100ae565b005b61007c6004803603810190610077919061035a565b6101c6565b60405161008991906103d0565b60405180910390f35b6100ac60048036038101906100a79190610421565b610221565b005b60005b60038110156101c2578173ffffffffffffffffffffffffffffffffffffffff16816040516024016100e2919061045d565b6040516020818303038152906040527fa6b206bf000000000000000000000000000000000000000000000000000000007bffffffffffffffffffffffffffffffffffffffffffffffffffffffff19166020820180517bffffffffffffffffffffffffffffffffffffffffffffffffffffffff838183161783525050505060405161016c91906104e9565b600060405180830381855af49150503d80600081146101a7576040519150601f19603f3d011682016040523d82523d6000602084013e6101ac565b606091505b50505080806101ba9061052f565b9150506100b1565b5050565b6000600182868686604051600081526020016040526040516101eb9493929190610595565b6020604051602081039080840390855afa15801561020d573d6000803e3d6000fd5b505050602060405103519050949350505050565b7f33782d62d9804c35aa012275d93a348a1ce28d2558032fbf95b540356f7c900a81604051610250919061045d565b60405180910390a150565b600080fd5b600073ffffffffffffffffffffffffffffffffffffffff82169050919050565b600061028b82610260565b9050919050565b61029b81610280565b81146102a657600080fd5b50565b6000813590506102b881610292565b92915050565b6000602082840312156102d4576102d361025b565b5b60006102e2848285016102a9565b91505092915050565b600060ff82169050919050565b610301816102eb565b811461030c57600080fd5b50565b60008135905061031e816102f8565b92915050565b6000819050919050565b61033781610324565b811461034257600080fd5b50565b6000813590506103548161032e565b92915050565b600080600080608085870312156103745761037361025b565b5b60006103828782880161030f565b945050602061039387828801610345565b93505060406103a487828801610345565b92505060606103b587828801610345565b91505092959194509250565b6103ca81610280565b82525050565b60006020820190506103e560008301846103c1565b92915050565b6000819050919050565b6103fe816103eb565b811461040957600080fd5b50565b60008135905061041b816103f5565b92915050565b6000602082840312156104375761043661025b565b5b60006104458482850161040c565b91505092915050565b610457816103eb565b82525050565b6000602082019050610472600083018461044e565b92915050565b600081519050919050565b600081905092915050565b60005b838110156104ac578082015181840152602081019050610491565b60008484015250505050565b60006104c382610478565b6104cd8185610483565b93506104dd81856020860161048e565b80840191505092915050565b60006104f582846104b8565b915081905092915050565b7f4e487b7100000000000000000000000000000000000000000000000000000000600052601160045260246000fd5b600061053a826103eb565b91507fffffffffffffffffffffffffffffffffffffffffffffffffffffffffffffffff820361056c5761056b610500565b5b600182019050919050565b61058081610324565b82525050565b61058f816102eb565b82525050565b60006080820190506105aa6000830187610577565b6105b76020830186610586565b6105c46040830185610577565b6105d16060830184610577565b9594505050505056fea26469706673582212203fc91ff64ea071db5e7af5e9c193fde5f32a8464f9d926e3198d362290e18a9c64736f6c63430008140033",
  "linkReferences": {},
  "deployedLinkReferences": {}
}