{"abi":[{"type":"function","name":"bytes1Value","inputs":[],"outputs":[{"name":"","type":"bytes1","internalType":"bytes1"}],"stateMutability":"view"},{"type":"function","name":"int8Value","inputs":[],"outputs":[{"name":"","type":"int8","internalType":"int8"}],"stateMutability":"view"},{"type":"function","name":"safeCastingExamples","inputs":[],"outputs":[{"name":"b","type":"uint128","internalType":"uint128"},{"name":"d","type":"int128","internalType":"int128"},{"name":"x","type":"uint128","internalType":"uint128"},{"name":"y","type":"int128","internalType":"int128"}],"stateMutability":"pure"},{"type":"function","name":"uint8Value","inputs":[],"outputs":[{"name":"","type":"uint8","internalType":"uint8"}],"stateMutability":"view"},{"type":"function","name":"unsafeBytes32Casting","inputs":[],"outputs":[],"stateMutability":"nonpayable"},{"type":"function","name":"unsafeIntCasting","inputs":[],"outputs":[],"stateMutability":"nonpayable"},{"type":"function","name":"unsafeUintCasting","inputs":[],"outputs":[],"stateMutability":"nonpayable"}],"bytecode":{"object":"0x60806040526000805462ffffff19166212ee1217905534801561002157600080fd5b5061025c806100316000396000f3fe608060405234801561001057600080fd5b506004361061007d5760003560e01c8063b80595321161005b578063b8059532146100df578063cc84c0d5146100f0578063ecb2df4d146100ff578063fd23b3fe1461013c57600080fd5b8063454ef1461461008257806364a7d683146100ad578063aaef20ea146100c0575b600080fd5b6000805461009591610100909104900b81565b60405160009190910b81526020015b60405180910390f35b6000805462ff0000191662120000179055005b6000546100cd9060ff1681565b60405160ff90911681526020016100a4565b6000805461ff001916611100179055005b6000805460ff191660ef179055005b610107610168565b604080516001600160801b039586168152600f94850b60208201529490921691840191909152900b60608201526080016100a4565b60005461014f9062010000900460f81b81565b6040516001600160f81b031990911681526020016100a4565b6000808080671234567890abcdef610184565b60405180910390fd5b935083671234567890abcdee1980945061019d826101b2565b93506101a8816101df565b9250505090919293565b60006001600160801b038211156101db5760405162461bcd60e51b815260040161017b90610208565b5090565b80600f81900b81146102035760405162461bcd60e51b815260040161017b90610208565b919050565b60208082526027908201527f53616665436173743a2076616c756520646f65736e27742066697420696e20316040820152663238206269747360c81b60608201526080019056fea164736f6c6343000813000a","linkReferences":{}},"methodIdentifiers":{"bytes1Value()":"fd23b3fe","int8Value()":"454ef146","safeCastingExamples()":"ecb2df4d","uint8Value()":"aaef20ea","unsafeBytes32Casting()":"64a7d683","unsafeIntCasting()":"b8059532","unsafeUintCasting()":"cc84c0d5"},"id":16}