{
  "abi": [
    {
      "inputs": [
        {
          "internalType": "uint256",
          "name": "same",
          "type": "uint256"
        },
        {
          "internalType": "uint256",
          "name": "different",
          "type": "uint256"
        }
      ],
      "stateMutability": "nonpayable",
      "type": "constructor"
    },
    {
      "anonymous": false,
      "inputs": [],
      "name": "Different",
      "type": "event"
    },
    {
      "anonymous": false,
      "inputs": [],
      "name": "Same",
      "type": "event"
    },
    {
      "inputs": [
        {
          "internalType": "uint256",
          "name": "number",
          "type": "uint256"
        }
      ],
      "name": "differentOne",
      "outputs": [],
      "stateMutability": "nonpayable",
      "type": "function"
    },
    {
      "inputs": [
        {
          "internalType": "uint256",
          "name": "number",
          "type": "uint256"
        }
      ],
      "name": "differentThree",
      "outputs": [],
      "stateMutability": "nonpayable",
      "type": "function"
    },
    {
      "inputs": [
        {
          "internalType": "uint256",
          "name": "number",
          "type": "uint256"
        }
      ],
      "name": "differentTwo",
      "outputs": [],
      "stateMutability": "nonpayable",
      "type": "function"
    },
    {
      "inputs": [
        {
          "internalType": "uint256",
          "name": "number",
          "type": "uint256"
        }
      ],
      "name": "sameButReversedOne",
      "outputs": [],
      "stateMutability": "nonpayable",
      "type": "function"
    },
    {
      "inputs": [
        {
          "internalType": "uint256",
          "name": "number",
          "type": "uint256"
        }
      ],
      "name": "sameButReversedThree",
      "outputs": [],
      "stateMutability": "nonpayable",
      "type": "function"
    },
    {
      "inputs": [
        {
          "internalType": "uint256",
          "name": "number",
          "type": "uint256"
        }
      ],
      "name": "sameButReversedTwo",
      "outputs": [],
      "stateMutability": "nonpayable",
      "type": "function"
    },
    {
      "inputs": [
        {
          "internalType": "uint256",
          "name": "number",
          "type": "uint256"
        }
      ],
      "name": "sameOne",
      "outputs": [],
      "stateMutability": "nonpayable",
      "type": "function"
    },
    {
      "inputs": [
        {
          "internalType": "uint256",
          "name": "number",
          "type": "uint256"
        }
      ],
      "name": "sameThree",
      "outputs": [],
      "stateMutability": "nonpayable",
      "type": "function"
    },
    {
      "inputs": [
        {
          "internalType": "uint256",
          "name": "number",
          "type": "uint256"
        }
      ],
      "name": "sameTwo",
      "outputs": [],
      "stateMutability": "nonpayable",
      "type": "function"
    }
  ],
  "bytecode": {
    "object": "0x608060405234801561001057600080fd5b5060405161041738038061041783398101604081905261002f9161003d565b600091909155600155610061565b6000806040838503121561005057600080fd5b505080516020909101519092909150565b6103a7806100706000396000f3fe608060405234801561001057600080fd5b50600436106100935760003560e01c8063a4e9458611610066578063a4e94586146100e6578063a958d5d9146100f9578063dc11f8861461010c578063e0005bbf1461011f578063e20843811461013257600080fd5b80636a9a2fd61461009857806374409092146100ad5780637492afc8146100c05780637edfa2f8146100d3575b600080fd5b6100ab6100a636600461030d565b610145565b005b6100ab6100bb36600461030d565b61018d565b6100ab6100ce36600461030d565b6101c2565b6100ab6100e136600461030d565b6101fd565b6100ab6100f436600461030d565b610221565b6100ab61010736600461030d565b610245565b6100ab61011a36600461030d565b61027b565b6100ab61012d36600461030d565b6102c8565b6100ab61014036600461030d565b6102ec565b6000548110156101695760405160008051602061035283398151915290600090a150565b60405162461bcd60e51b815260040161018190610326565b60405180910390fd5b50565b600154811161018a576040517f66bfaa70206cc6739553241a928cf008db472cff6ffab1493bb5b8e93c19e31690600090a150565b80600054116101e35760405162461bcd60e51b815260040161018190610326565b60405160008051602061035283398151915290600090a150565b8060005411156101695760405160008051602061035283398151915290600090a150565b80600054111561018a5760405160008051602061035283398151915290600090a150565b600154811115610169576040517f66bfaa70206cc6739553241a928cf008db472cff6ffab1493bb5b8e93c19e31690600090a150565b600154811061029c5760405162461bcd60e51b815260040161018190610326565b6040517f66bfaa70206cc6739553241a928cf008db472cff6ffab1493bb5b8e93c19e31690600090a150565b60005481101561018a5760405160008051602061035283398151915290600090a150565b60005481106101e35760405162461bcd60e51b815260040161018190610326565b60006020828403121561031f57600080fd5b5035919050565b60208082526011908201527026bab9ba103132903632b9b9903a3430b760791b60408201526060019056fe6fbdfc61aa4e3a1edac7545bfa9e7b115bfa662b261d59065a61fce0d3674f78a2646970667358221220cd2f9a93a93c19df501a9eb517d16b52dc71a9c2b12bee34cbbb2ae11e2881cd64736f6c63430008140033",
    "linkReferences": {}
  },
  "methodIdentifiers": {
    "differentOne(uint256)": "dc11f886",
    "differentThree(uint256)": "a958d5d9",
    "differentTwo(uint256)": "74409092",
    "sameButReversedOne(uint256)": "7492afc8",
    "sameButReversedThree(uint256)": "7edfa2f8",
    "sameButReversedTwo(uint256)": "a4e94586",
    "sameOne(uint256)": "e2084381",
    "sameThree(uint256)": "6a9a2fd6",
    "sameTwo(uint256)": "e0005bbf"
  },
  "id": 0
}