{"abi":[{"type":"constructor","inputs":[{"name":"_startDate","type":"uint256","internalType":"uint256"},{"name":"_owner","type":"address","internalType":"address"}],"stateMutability":"nonpayable"},{"type":"function","name":"changeOwner","inputs":[{"name":"_newOwner","type":"address","internalType":"address"}],"outputs":[],"stateMutability":"nonpayable"},{"type":"function","name":"owner","inputs":[],"outputs":[{"name":"","type":"address","internalType":"address"}],"stateMutability":"view"},{"type":"function","name":"startDate","inputs":[],"outputs":[{"name":"","type":"uint256","internalType":"uint256"}],"stateMutability":"view"},{"type":"function","name":"updateStartDate","inputs":[{"name":"_startDate","type":"uint256","internalType":"uint256"}],"outputs":[],"stateMutability":"nonpayable"},{"type":"event","name":"OwnerUpdated","inputs":[{"name":"previousOwner","type":"address","indexed":true,"internalType":"address"},{"name":"newOwner","type":"address","indexed":true,"internalType":"address"}],"anonymous":false},{"type":"event","name":"StartDateUpdated","inputs":[{"name":"oldDate","type":"uint256","indexed":true,"internalType":"uint256"},{"name":"newDate","type":"uint256","indexed":true,"internalType":"uint256"}],"anonymous":false}],"bytecode":{"object":"0x608060405234801561001057600080fd5b5060405161020f38038061020f83398101604081905261002f91610059565b600091909155600180546001600160a01b0319166001600160a01b03909216919091179055610096565b6000806040838503121561006c57600080fd5b825160208401519092506001600160a01b038116811461008b57600080fd5b809150509250929050565b61016a806100a56000396000f3fe608060405234801561001057600080fd5b506004361061004c5760003560e01c80630b97bc861461005157806318d947931461006d5780638da5cb5b14610082578063a6f9dae1146100ad575b600080fd5b61005a60005481565b6040519081526020015b60405180910390f35b61008061007b366004610114565b6100dd565b005b600154610095906001600160a01b031681565b6040516001600160a01b039091168152602001610064565b6100806100bb36600461012d565b600180546001600160a01b0319166001600160a01b0392909216919091179055565b600080548282556040519091839183917fb412a2d7de723b82b0a3cae8b10ae2d255e645dd0231a1a4c83cb8e3ebc05bd891a35050565b60006020828403121561012657600080fd5b5035919050565b60006020828403121561013f57600080fd5b81356001600160a01b038116811461015657600080fd5b939250505056fea164736f6c6343000814000a","linkReferences":{}},"methodIdentifiers":{"changeOwner(address)":"a6f9dae1","owner()":"8da5cb5b","startDate()":"0b97bc86","updateStartDate(uint256)":"18d94793"},"id":28}