{"abi":[{"type":"function","name":"badSwaps","inputs":[{"name":"tokenIn","type":"address","internalType":"address"},{"name":"tokenOut","type":"address","internalType":"address"},{"name":"fee","type":"uint24","internalType":"uint24"},{"name":"recipient","type":"address","internalType":"address"},{"name":"amountIn","type":"uint256","internalType":"uint256"},{"name":"amountOutMinimum","type":"uint256","internalType":"uint256"},{"name":"sqrtPriceLimitX96","type":"uint160","internalType":"uint160"}],"outputs":[],"stateMutability":"view"},{"type":"function","name":"goodSwaps","inputs":[{"name":"tokenIn","type":"address","internalType":"address"},{"name":"tokenOut","type":"address","internalType":"address"},{"name":"fee","type":"uint24","internalType":"uint24"},{"name":"recipient","type":"address","internalType":"address"},{"name":"amountIn","type":"uint256","internalType":"uint256"},{"name":"amountOutMinimum","type":"uint256","internalType":"uint256"},{"name":"sqrtPriceLimitX96","type":"uint160","internalType":"uint160"},{"name":"deadline","type":"uint256","internalType":"uint256"}],"outputs":[],"stateMutability":"pure"}],"bytecode":{"object":"0x608060405234801561001057600080fd5b506107c0806100206000396000f3fe608060405234801561001057600080fd5b50600436106100365760003560e01c80639ce6e80d1461003b578063b9dab04a14610050575b600080fd5b61004e61004936600461067e565b610063565b005b61004e61005e366004610700565b610358565b6000604051806101000160405280896001600160a01b03168152602001886001600160a01b031681526020018762ffffff168152602001866001600160a01b03168152602001428152602001858152602001848152602001836001600160a01b03168152509050604051806101000160405280896001600160a01b03168152602001886001600160a01b031681526020018762ffffff168152602001866001600160a01b03168152602001428152602001858152602001848152602001836001600160a01b0316815250905060006040518060a001604052808a8a60405160200161014f92919061078c565b6040516020818303038152906040528152602001876001600160a01b031681526020014281526020018681526020018581525090506040518060a001604052808a8a6040516020016101a292919061078c565b6040516020818303038152906040528152602001876001600160a01b0316815260200142815260200186815260200185815250905060006040518061010001604052808b6001600160a01b031681526020018a6001600160a01b031681526020018962ffffff168152602001886001600160a01b03168152602001428152602001868152602001878152602001856001600160a01b031681525090506040518061010001604052808b6001600160a01b031681526020018a6001600160a01b031681526020018962ffffff168152602001886001600160a01b03168152602001428152602001868152602001878152602001856001600160a01b0316815250905060006040518060a001604052808c8c6040516020016102c392919061078c565b6040516020818303038152906040528152602001896001600160a01b031681526020014281526020018781526020018881525090506040518060a001604052808c8c60405160200161031692919061078c565b6040516020818303038152906040528152602001896001600160a01b031681526020014281526020018781526020018881525090505050505050505050505050565b60006040518061010001604052808a6001600160a01b03168152602001896001600160a01b031681526020018862ffffff168152602001876001600160a01b03168152602001838152602001868152602001858152602001846001600160a01b031681525090506040518061010001604052808a6001600160a01b03168152602001896001600160a01b031681526020018862ffffff168152602001876001600160a01b03168152602001838152602001868152602001858152602001846001600160a01b0316815250905060006040518060a001604052808b8b60405160200161044492919061078c565b6040516020818303038152906040528152602001886001600160a01b031681526020018481526020018781526020018681525090506040518060a001604052808b8b60405160200161049792919061078c565b6040516020818303038152906040528152602001886001600160a01b0316815260200184815260200187815260200186815250905060006040518061010001604052808c6001600160a01b031681526020018b6001600160a01b031681526020018a62ffffff168152602001896001600160a01b03168152602001858152602001878152602001888152602001866001600160a01b031681525090506040518061010001604052808c6001600160a01b031681526020018b6001600160a01b031681526020018a62ffffff168152602001896001600160a01b03168152602001858152602001878152602001888152602001866001600160a01b0316815250905060006040518060a001604052808d8d6040516020016105b892919061078c565b60405160208183030381529060405281526020018a6001600160a01b031681526020018681526020018881526020018981525090506040518060a001604052808d8d60405160200161060b92919061078c565b60405160208183030381529060405281526020018a6001600160a01b03168152602001868152602001888152602001898152509050505050505050505050505050565b6001600160a01b038116811461066357600080fd5b50565b803562ffffff8116811461067957600080fd5b919050565b600080600080600080600060e0888a03121561069957600080fd5b87356106a48161064e565b965060208801356106b48161064e565b95506106c260408901610666565b945060608801356106d28161064e565b93506080880135925060a0880135915060c08801356106f08161064e565b8091505092959891949750929550565b600080600080600080600080610100898b03121561071d57600080fd5b88356107288161064e565b975060208901356107388161064e565b965061074660408a01610666565b955060608901356107568161064e565b94506080890135935060a0890135925060c08901356107748161064e565b8092505060e089013590509295985092959890939650565b6bffffffffffffffffffffffff19606093841b811682529190921b1660148201526028019056fea164736f6c6343000814000a","linkReferences":{}},"methodIdentifiers":{"badSwaps(address,address,uint24,address,uint256,uint256,uint160)":"9ce6e80d","goodSwaps(address,address,uint24,address,uint256,uint256,uint160,uint256)":"b9dab04a"},"id":43}