{
  "abi": [
    {
      "anonymous": false,
      "inputs": [
        {
          "indexed": false,
          "internalType": "uint256",
          "name": "something",
          "type": "uint256"
        }
      ],
      "name": "Do",
      "type": "event"
    },
    {
      "anonymous": false,
      "inputs": [
        {
          "indexed": false,
          "internalType": "uint256",
          "name": "somethingElse",
          "type": "uint256"
        }
      ],
      "name": "DoSomethingElse",
      "type": "event"
    },
    {
      "inputs": [
        {
          "internalType": "uint256",
          "name": "somethingElse",
          "type": "uint256"
        }
      ],
      "name": "doSomething",
      "outputs": [],
      "stateMutability": "nonpayable",
      "type": "function"
    },
    {
      "inputs": [
        {
          "internalType": "address",
          "name": "target",
          "type": "address"
        }
      ],
      "name": "doSomethingElse",
      "outputs": [],
      "stateMutability": "nonpayable",
      "type": "function"
    }
  ],
  "bytecode": {
    "object": "0x608060405234801561001057600080fd5b50610226806100206000396000f3fe608060405234801561001057600080fd5b50600436106100365760003560e01c80637277d9d21461003b578063a6b206bf14610050575b600080fd5b61004e610049366004610151565b610063565b005b61004e61005e366004610181565b61011b565b60005b600381101561011757816001600160a01b03168160405160240161008c91815260200190565b60408051601f198184030181529181526020820180516001600160e01b031663a6b206bf60e01b179052516100c1919061019a565b600060405180830381855af49150503d80600081146100fc576040519150601f19603f3d011682016040523d82523d6000602084013e610101565b606091505b505050808061010f906101c9565b915050610066565b5050565b6040518181527f33782d62d9804c35aa012275d93a348a1ce28d2558032fbf95b540356f7c900a9060200160405180910390a150565b60006020828403121561016357600080fd5b81356001600160a01b038116811461017a57600080fd5b9392505050565b60006020828403121561019357600080fd5b5035919050565b6000825160005b818110156101bb57602081860181015185830152016101a1565b506000920191825250919050565b6000600182016101e957634e487b7160e01b600052601160045260246000fd5b506001019056fea2646970667358221220dd49bb82c173e22e78fbe56af5d81b5027d1075216bca5cfef3739b6fc98103964736f6c63430008140033",
    "linkReferences": {}
  },
  "methodIdentifiers": {
    "doSomething(uint256)": "a6b206bf",
    "doSomethingElse(address)": "7277d9d2"
  },
  "id": 26
}