{
  "abi": [
    {
      "anonymous": false,
      "inputs": [
        {
          "indexed": false,
          "internalType": "uint256",
          "name": "something",
          "type": "uint256"
        }
      ],
      "name": "Do",
      "type": "event"
    },
    {
      "anonymous": false,
      "inputs": [
        {
          "indexed": false,
          "internalType": "uint256",
          "name": "somethingElse",
          "type": "uint256"
        }
      ],
      "name": "DoSomethingElse",
      "type": "event"
    },
    {
      "inputs": [
        {
          "internalType": "uint256",
          "name": "somethingElse",
          "type": "uint256"
        }
      ],
      "name": "doSomething",
      "outputs": [],
      "stateMutability": "nonpayable",
      "type": "function"
    },
    {
      "inputs": [
        {
          "internalType": "address",
          "name": "target",
          "type": "address"
        }
      ],
      "name": "doSomethingElse",
      "outputs": [],
      "stateMutability": "nonpayable",
      "type": "function"
    },
    {
      "inputs": [
        {
          "internalType": "uint8",
          "name": "v",
          "type": "uint8"
        },
        {
          "internalType": "bytes32",
          "name": "r",
          "type": "bytes32"
        },
        {
          "internalType": "bytes32",
          "name": "s",
          "type": "bytes32"
        },
        {
          "internalType": "bytes32",
          "name": "theHash",
          "type": "bytes32"
        }
      ],
      "name": "recoverThatThang",
      "outputs": [
        {
          "internalType": "address",
          "name": "",
          "type": "address"
        }
      ],
      "stateMutability": "pure",
      "type": "function"
    }
  ],
  "bytecode": {
    "object": "0x608060405234801561001057600080fd5b50610309806100206000396000f3fe608060405234801561001057600080fd5b50600436106100415760003560e01c80637277d9d214610046578063a5666fa21461005b578063a6b206bf1461008a575b600080fd5b6100596100543660046101f3565b61009d565b005b61006e610069366004610223565b610155565b6040516001600160a01b03909116815260200160405180910390f35b610059610098366004610264565b6101bd565b60005b600381101561015157816001600160a01b0316816040516024016100c691815260200190565b60408051601f198184030181529181526020820180516001600160e01b031663a6b206bf60e01b179052516100fb919061027d565b600060405180830381855af49150503d8060008114610136576040519150601f19603f3d011682016040523d82523d6000602084013e61013b565b606091505b5050508080610149906102ac565b9150506100a0565b5050565b6040805160008082526020820180845284905260ff871692820192909252606081018590526080810184905260019060a0016020604051602081039080840390855afa1580156101a9573d6000803e3d6000fd5b5050604051601f1901519695505050505050565b6040518181527f33782d62d9804c35aa012275d93a348a1ce28d2558032fbf95b540356f7c900a9060200160405180910390a150565b60006020828403121561020557600080fd5b81356001600160a01b038116811461021c57600080fd5b9392505050565b6000806000806080858703121561023957600080fd5b843560ff8116811461024a57600080fd5b966020860135965060408601359560600135945092505050565b60006020828403121561027657600080fd5b5035919050565b6000825160005b8181101561029e5760208186018101518583015201610284565b506000920191825250919050565b6000600182016102cc57634e487b7160e01b600052601160045260246000fd5b506001019056fea26469706673582212200106b6cec37a34803d000d77389022b06538cd1c7cc400418f6ee994d83c4d6a64736f6c63430008140033",
    "linkReferences": {}
  },
  "methodIdentifiers": {
    "doSomething(uint256)": "a6b206bf",
    "doSomethingElse(address)": "7277d9d2",
    "recoverThatThang(uint8,bytes32,bytes32,bytes32)": "a5666fa2"
  },
  "id": 0
}