{"abi":[{"type":"function","name":"CONSTANT","inputs":[],"outputs":[{"name":"","type":"uint256","internalType":"uint256"}],"stateMutability":"view"},{"type":"function","name":"bad","inputs":[],"outputs":[],"stateMutability":"nonpayable"},{"type":"function","name":"good","inputs":[],"outputs":[],"stateMutability":"nonpayable"}],"bytecode":{"object":"0x6080604052348015600f57600080fd5b50606a8061001e6000396000f3fe6080604052348015600f57600080fd5b5060043610603c5760003560e01c806334ca75ef1460415780639c3674fc14605b578063aa8fb40b14605b575b600080fd5b604961015981565b60405190815260200160405180910390f35b00fea164736f6c6343000813000a","linkReferences":{}},"methodIdentifiers":{"CONSTANT()":"34ca75ef","bad()":"9c3674fc","good()":"aa8fb40b"},"id":0}