{"abi":[{"type":"function","name":"CONSTANT_ADDRESS","inputs":[],"outputs":[{"name":"","type":"address","internalType":"address"}],"stateMutability":"view"},{"type":"function","name":"CONSTANT_BYTES32","inputs":[],"outputs":[{"name":"","type":"bytes32","internalType":"bytes32"}],"stateMutability":"view"},{"type":"function","name":"CONSTANT_UINT","inputs":[],"outputs":[{"name":"","type":"uint256","internalType":"uint256"}],"stateMutability":"view"},{"type":"function","name":"bad","inputs":[],"outputs":[],"stateMutability":"nonpayable"},{"type":"function","name":"good","inputs":[],"outputs":[],"stateMutability":"nonpayable"}],"bytecode":{"object":"0x608060405234801561001057600080fd5b5060d68061001f6000396000f3fe6080604052348015600f57600080fd5b506004361060505760003560e01c80632834d4b21460555780633dc8acd914608e578063858e04031460965780639c3674fc1460c7578063aa8fb40b1460c7575b600080fd5b607b7fafec9bac414fae1094e2941fdd9b8915d38d708cb68c4d092468e10ac3de28f281565b6040519081526020015b60405180910390f35b607b61015981565b60b0735b38da6a701c568545dcfcb03fcb875f56beddc481565b6040516001600160a01b0390911681526020016085565b00fea164736f6c6343000813000a","linkReferences":{}},"methodIdentifiers":{"CONSTANT_ADDRESS()":"858e0403","CONSTANT_BYTES32()":"2834d4b2","CONSTANT_UINT()":"3dc8acd9","bad()":"9c3674fc","good()":"aa8fb40b"},"id":8}