{"abi":[{"type":"function","name":"encodeCall","inputs":[{"name":"to","type":"address","internalType":"address"},{"name":"amount","type":"uint256","internalType":"uint256"}],"outputs":[{"name":"","type":"bytes","internalType":"bytes"}],"stateMutability":"pure"},{"type":"function","name":"encodeWithSelector","inputs":[{"name":"to","type":"address","internalType":"address"},{"name":"amount","type":"uint256","internalType":"uint256"}],"outputs":[{"name":"","type":"bytes","internalType":"bytes"}],"stateMutability":"pure"},{"type":"function","name":"encodeWithSignature","inputs":[{"name":"to","type":"address","internalType":"address"},{"name":"amount","type":"uint256","internalType":"uint256"}],"outputs":[{"name":"","type":"bytes","internalType":"bytes"}],"stateMutability":"pure"},{"type":"function","name":"test","inputs":[{"name":"_contract","type":"address","internalType":"address"},{"name":"data","type":"bytes","internalType":"bytes"}],"outputs":[],"stateMutability":"nonpayable"}],"bytecode":{"object":"0x608060405234801561001057600080fd5b50610312806100206000396000f3fe608060405234801561001057600080fd5b506004361061004c5760003560e01c806325adff1c146100515780635fc6ac0e146100c65780637e3b06fb1461005157806393e0141814610121575b600080fd5b6100b061005f3660046101f9565b6040516001600160a01b03831660248201526044810182905260609060640160408051601f198184030181529190526020810180516001600160e01b031663a9059cbb60e01b179052905092915050565b6040516100bd9190610223565b60405180910390f35b6100b06100d43660046101f9565b604080516001600160a01b039390931660248401526044808401929092528051808403909201825260649092019091526020810180516001600160e01b031663a9059cbb60e01b17905290565b61013461012f366004610272565b610136565b005b6000836001600160a01b031683836040516101529291906102f5565b6000604051808303816000865af19150503d806000811461018f576040519150601f19603f3d011682016040523d82523d6000602084013e610194565b606091505b50509050806101d75760405162461bcd60e51b815260206004820152600b60248201526a18d85b1b0819985a5b195960aa1b604482015260640160405180910390fd5b50505050565b80356001600160a01b03811681146101f457600080fd5b919050565b6000806040838503121561020c57600080fd5b610215836101dd565b946020939093013593505050565b60006020808352835180602085015260005b8181101561025157858101830151858201604001528201610235565b506000604082860101526040601f19601f8301168501019250505092915050565b60008060006040848603121561028757600080fd5b610290846101dd565b9250602084013567ffffffffffffffff808211156102ad57600080fd5b818601915086601f8301126102c157600080fd5b8135818111156102d057600080fd5b8760208285010111156102e257600080fd5b6020830194508093505050509250925092565b818382376000910190815291905056fea164736f6c6343000818000a","linkReferences":{}},"methodIdentifiers":{"encodeCall(address,uint256)":"25adff1c","encodeWithSelector(address,uint256)":"5fc6ac0e","encodeWithSignature(address,uint256)":"7e3b06fb","test(address,bytes)":"93e01418"},"id":20}