{"abi":[{"type":"function","name":"readNumberOfHorses","inputs":[],"outputs":[{"name":"","type":"uint256","internalType":"uint256"}],"stateMutability":"view"},{"type":"function","name":"updateHorseNumber","inputs":[{"name":"newNumberOfHorses","type":"uint256","internalType":"uint256"}],"outputs":[],"stateMutability":"nonpayable"}],"bytecode":{"object":"0x6080604052348015600f57600080fd5b5060ac8061001e6000396000f3fe6080604052348015600f57600080fd5b506004361060325760003560e01c8063cdfead2e146037578063e026c017146049575b600080fd5b60476042366004605e565b600055565b005b60005460405190815260200160405180910390f35b600060208284031215606f57600080fd5b503591905056fea26469706673582212208c1b167409be52e7038822fd551b8319b9aa047401b990fe071779d3a033ca5764736f6c63430008140033","linkReferences":{}},"methodIdentifiers":{"readNumberOfHorses()":"e026c017","updateHorseNumber(uint256)":"cdfead2e"},"id":34}