{"abi":[{"type":"function","name":"numberOfHorses","inputs":[],"outputs":[{"name":"","type":"uint256","internalType":"uint256"}],"stateMutability":"view"},{"type":"function","name":"updateHorseNumber","inputs":[{"name":"newNumberOfHorses","type":"uint256","internalType":"uint256"}],"outputs":[],"stateMutability":"nonpayable"}],"bytecode":{"object":"0x608060405234801561001057600080fd5b5060888061001f6000396000f3fe6080604052348015600f57600080fd5b506004361060325760003560e01c8063cdfead2e146037578063f63130b8146049575b600080fd5b604760423660046063565b600055565b005b605160005481565b60405190815260200160405180910390f35b600060208284031215607457600080fd5b503591905056fea164736f6c6343000814000a","linkReferences":{}},"methodIdentifiers":{"numberOfHorses()":"f63130b8","updateHorseNumber(uint256)":"cdfead2e"},"id":36}