{
  "abi": [
    {
      "inputs": [
        {
          "internalType": "bytes",
          "name": "a",
          "type": "bytes"
        },
        {
          "internalType": "bytes",
          "name": "b",
          "type": "bytes"
        }
      ],
      "name": "failure0",
      "outputs": [
        {
          "internalType": "bytes32",
          "name": "",
          "type": "bytes32"
        }
      ],
      "stateMutability": "pure",
      "type": "function"
    },
    {
      "inputs": [
        {
          "internalType": "string",
          "name": "a",
          "type": "string"
        },
        {
          "internalType": "string",
          "name": "b",
          "type": "string"
        }
      ],
      "name": "failure1",
      "outputs": [
        {
          "internalType": "bytes32",
          "name": "",
          "type": "bytes32"
        }
      ],
      "stateMutability": "pure",
      "type": "function"
    },
    {
      "inputs": [
        {
          "internalType": "uint256[]",
          "name": "a",
          "type": "uint256[]"
        },
        {
          "internalType": "uint256[]",
          "name": "b",
          "type": "uint256[]"
        }
      ],
      "name": "failure2",
      "outputs": [
        {
          "internalType": "bytes32",
          "name": "",
          "type": "bytes32"
        }
      ],
      "stateMutability": "pure",
      "type": "function"
    },
    {
      "inputs": [
        {
          "internalType": "bytes",
          "name": "input",
          "type": "bytes"
        }
      ],
      "name": "success0",
      "outputs": [
        {
          "internalType": "bytes32",
          "name": "",
          "type": "bytes32"
        }
      ],
      "stateMutability": "pure",
      "type": "function"
    },
    {
      "inputs": [
        {
          "internalType": "string",
          "name": "a",
          "type": "string"
        }
      ],
      "name": "success1",
      "outputs": [
        {
          "internalType": "bytes32",
          "name": "",
          "type": "bytes32"
        }
      ],
      "stateMutability": "pure",
      "type": "function"
    },
    {
      "inputs": [
        {
          "internalType": "uint256[]",
          "name": "a",
          "type": "uint256[]"
        }
      ],
      "name": "success2",
      "outputs": [
        {
          "internalType": "bytes32",
          "name": "",
          "type": "bytes32"
        }
      ],
      "stateMutability": "pure",
      "type": "function"
    }
  ],
  "bytecode": {
    "object": "0x608060405234801561001057600080fd5b506104b7806100206000396000f3fe608060405234801561001057600080fd5b50600436106100625760003560e01c806335cedf4f14610067578063444ef6521461008c578063554fe13a1461009f57806367a07b7a1461009f5780638d18790b146100b2578063d7234d3d146100b2575b600080fd5b61007a610075366004610217565b6100c5565b60405190815260200160405180910390f35b61007a61009a366004610254565b6100f5565b61007a6100ad366004610328565b610128565b61007a6100c036600461035d565b61013b565b6000816040516020016100d891906103ea565b604051602081830303815290604052805190602001209050919050565b6000828260405160200161010a9291906103fd565b60405160208183030381529060405280519060200120905092915050565b6000816040516020016100d89190610436565b6000828260405160200161010a929190610452565b634e487b7160e01b600052604160045260246000fd5b604051601f8201601f1916810167ffffffffffffffff8111828210171561018f5761018f610150565b604052919050565b600082601f8301126101a857600080fd5b8135602067ffffffffffffffff8211156101c4576101c4610150565b8160051b6101d3828201610166565b92835284810182019282810190878511156101ed57600080fd5b83870192505b8483101561020c578235825291830191908301906101f3565b979650505050505050565b60006020828403121561022957600080fd5b813567ffffffffffffffff81111561024057600080fd5b61024c84828501610197565b949350505050565b6000806040838503121561026757600080fd5b823567ffffffffffffffff8082111561027f57600080fd5b61028b86838701610197565b935060208501359150808211156102a157600080fd5b506102ae85828601610197565b9150509250929050565b600082601f8301126102c957600080fd5b813567ffffffffffffffff8111156102e3576102e3610150565b6102f6601f8201601f1916602001610166565b81815284602083860101111561030b57600080fd5b816020850160208301376000918101602001919091529392505050565b60006020828403121561033a57600080fd5b813567ffffffffffffffff81111561035157600080fd5b61024c848285016102b8565b6000806040838503121561037057600080fd5b823567ffffffffffffffff8082111561038857600080fd5b610394868387016102b8565b935060208501359150808211156103aa57600080fd5b506102ae858286016102b8565b60008151602080840160005b838110156103df578151875295820195908201906001016103c3565b509495945050505050565b60006103f682846103b7565b9392505050565b600061024c61040c83866103b7565b846103b7565b60005b8381101561042d578181015183820152602001610415565b50506000910152565b60008251610448818460208701610412565b9190910192915050565b60008351610464818460208801610412565b835190830190610478818360208801610412565b0194935050505056fea2646970667358221220faf0d5ad4122e12817b287cacb0fce2051667f9458cdc478eec4f64568d7759164736f6c63430008140033",
    "linkReferences": {}
  },
  "methodIdentifiers": {
    "failure0(bytes,bytes)": "8d18790b",
    "failure1(string,string)": "d7234d3d",
    "failure2(uint256[],uint256[])": "444ef652",
    "success0(bytes)": "554fe13a",
    "success1(string)": "67a07b7a",
    "success2(uint256[])": "35cedf4f"
  },
  "id": 0
}