{
  "abi": [
    {
      "anonymous": false,
      "inputs": [
        {
          "indexed": false,
          "internalType": "uint256",
          "name": "something",
          "type": "uint256"
        }
      ],
      "name": "Do",
      "type": "event"
    },
    {
      "inputs": [
        {
          "internalType": "uint256",
          "name": "something",
          "type": "uint256"
        }
      ],
      "name": "doSomething",
      "outputs": [],
      "stateMutability": "nonpayable",
      "type": "function"
    }
  ],
  "bytecode": {
    "object": "0x608060405234801561001057600080fd5b5060c28061001f6000396000f3fe6080604052348015600f57600080fd5b506004361060285760003560e01c8063a6b206bf14602d575b600080fd5b603c60383660046074565b603e565b005b6040518181527f2ad1127294a42a5200f9832aacf01f051e55151abd09c0d2a055e56b214ebd4c9060200160405180910390a150565b600060208284031215608557600080fd5b503591905056fea2646970667358221220b9db15b4ae884ccdb1bd8b95b74f7f1293304686fc644bb22d8e056c3efd150b64736f6c63430008140033",
    "linkReferences": {}
  },
  "methodIdentifiers": {
    "doSomething(uint256)": "a6b206bf"
  },
  "id": 26
}