{"abi":[{"type":"function","name":"addr","inputs":[],"outputs":[{"name":"","type":"address","internalType":"address"}],"stateMutability":"view"},{"type":"function","name":"bad1","inputs":[{"name":"newAddr","type":"address","internalType":"address"}],"outputs":[],"stateMutability":"nonpayable"},{"type":"function","name":"bad2","inputs":[{"name":"newToken","type":"address","internalType":"contract IERC20"}],"outputs":[],"stateMutability":"nonpayable"},{"type":"function","name":"bad3","inputs":[{"name":"newAddr","type":"address","internalType":"address"}],"outputs":[],"stateMutability":"nonpayable"},{"type":"function","name":"goodAddress1","inputs":[{"name":"newAddr","type":"address","internalType":"address"}],"outputs":[],"stateMutability":"nonpayable"},{"type":"function","name":"goodAddress2","inputs":[{"name":"newAddr","type":"address","internalType":"address"}],"outputs":[],"stateMutability":"nonpayable"},{"type":"function","name":"goodToken1","inputs":[{"name":"newAddr","type":"address","internalType":"address"}],"outputs":[],"stateMutability":"nonpayable"},{"type":"function","name":"goodToken2","inputs":[{"name":"newAddr","type":"address","internalType":"address"}],"outputs":[],"stateMutability":"nonpayable"},{"type":"function","name":"goodToken3","inputs":[{"name":"newToken","type":"address","internalType":"contract IERC20"}],"outputs":[],"stateMutability":"nonpayable"},{"type":"function","name":"goodToken4","inputs":[{"name":"newToken","type":"address","internalType":"contract IERC20"}],"outputs":[],"stateMutability":"nonpayable"},{"type":"function","name":"token","inputs":[],"outputs":[{"name":"","type":"address","internalType":"contract IERC20"}],"stateMutability":"view"}],"bytecode":{"object":"0x608060405234801561001057600080fd5b506102ba806100206000396000f3fe608060405234801561001057600080fd5b50600436106100a95760003560e01c8063767800de11610071578063767800de146100fc5780637c48f91b146100d6578063c26d6b631461012b578063d8f6d6141461013e578063eda643a9146100e9578063fc0c546a1461015157600080fd5b806317cc4dca146100ae5780633c7a1285146100c3578063483174ba146100d65780635554a671146100ae578063695e8308146100e9575b600080fd5b6100c16100bc366004610289565b610164565b005b6100c16100d1366004610289565b610199565b6100c16100e4366004610289565b61020f565b6100c16100f7366004610289565b610177565b60005461010f906001600160a01b031681565b6040516001600160a01b03909116815260200160405180910390f35b6100c1610139366004610289565b61025e565b6100c161014c366004610289565b6101ed565b60015461010f906001600160a01b031681565b6001600160a01b03811661017757600080fd5b600180546001600160a01b0319166001600160a01b0392909216919091179055565b6001600160a01b0381166101ed5760405162461bcd60e51b8152602060048201526016602482015275416464726573732063616e6e6f74206265207a65726f60501b60448201526064015b60405180910390fd5b600080546001600160a01b0319166001600160a01b0392909216919091179055565b6001600160a01b0381166101775760405162461bcd60e51b8152602060048201526016602482015275416464726573732063616e6e6f74206265207a65726f60501b60448201526064016101e4565b6001600160a01b0381166101ed57600080fd5b6001600160a01b038116811461028657600080fd5b50565b60006020828403121561029b57600080fd5b81356102a681610271565b939250505056fea164736f6c6343000813000a","linkReferences":{}},"methodIdentifiers":{"addr()":"767800de","bad1(address)":"d8f6d614","bad2(address)":"eda643a9","bad3(address)":"695e8308","goodAddress1(address)":"c26d6b63","goodAddress2(address)":"3c7a1285","goodToken1(address)":"17cc4dca","goodToken2(address)":"7c48f91b","goodToken3(address)":"483174ba","goodToken4(address)":"5554a671","token()":"fc0c546a"},"id":15}