{
  "abi": [
    {
      "inputs": [
        {
          "internalType": "bool",
          "name": "success",
          "type": "bool"
        },
        {
          "internalType": "bytes",
          "name": "returndata",
          "type": "bytes"
        },
        {
          "internalType": "string",
          "name": "errorMessage",
          "type": "string"
        }
      ],
      "name": "verifyCallResult",
      "outputs": [
        {
          "internalType": "bytes",
          "name": "",
          "type": "bytes"
        }
      ],
      "stateMutability": "pure",
      "type": "function"
    }
  ],
  "bytecode": {
    "object": "0x608060405234801561001057600080fd5b50610278806100206000396000f3fe608060405234801561001057600080fd5b506004361061002b5760003560e01c8063946b579314610030575b600080fd5b61004361003e366004610143565b610059565b604051610050919061022f565b60405180910390f35b6060610066848484610070565b90505b9392505050565b6060831561007f575081610069565b61006983838151156100945781518083602001fd5b8060405162461bcd60e51b81526004016100ae919061022f565b60405180910390fd5b634e487b7160e01b600052604160045260246000fd5b600067ffffffffffffffff808411156100e8576100e86100b7565b604051601f8501601f19908116603f01168101908282118183101715610110576101106100b7565b8160405280935085815286868601111561012957600080fd5b858560208301376000602087830101525050509392505050565b60008060006060848603121561015857600080fd5b8335801515811461016857600080fd5b9250602084013567ffffffffffffffff8082111561018557600080fd5b818601915086601f83011261019957600080fd5b6101a8878335602085016100cd565b935060408601359150808211156101be57600080fd5b508401601f810186136101d057600080fd5b6101df868235602084016100cd565b9150509250925092565b6000815180845260005b8181101561020f576020818501810151868301820152016101f3565b506000602082860101526020601f19601f83011685010191505092915050565b60208152600061006960208301846101e956fea26469706673582212201a641b5fd25679480fc2031befd4d777979f48a0ced4b05d0df6565c810f789964736f6c63430008150033",
    "linkReferences": {}
  },
  "methodIdentifiers": {
    "verifyCallResult(bool,bytes,string)": "946b5793"
  },
  "id": 0
}