{"abi":[{"type":"function","name":"f","inputs":[{"name":"x","type":"uint256","internalType":"uint256"}],"outputs":[{"name":"r","type":"uint256","internalType":"uint256"}],"stateMutability":"view"}],"bytecode":{"object":"0x6080604052348015600f57600080fd5b5060768061001e6000396000f3fe6080604052348015600f57600080fd5b506004361060285760003560e01c8063b3de648b14602d575b600080fd5b603f60383660046051565b6000540290565b60405190815260200160405180910390f35b600060208284031215606257600080fd5b503591905056fea164736f6c6343000813000a","linkReferences":{}},"methodIdentifiers":{"f(uint256)":"b3de648b"},"id":15}