{
    "abi": [
        {
            "type": "constructor",
            "inputs": [
                {
                    "name": "_updated",
                    "type": "uint256",
                    "internalType": "uint256"
                }
            ],
            "stateMutability": "nonpayable"
        },
        {
            "type": "function",
            "name": "notUpdated",
            "inputs": [],
            "outputs": [
                {
                    "name": "",
                    "type": "uint256",
                    "internalType": "uint256"
                }
            ],
            "stateMutability": "view"
        },
        {
            "type": "function",
            "name": "notUpdatedButImmutable",
            "inputs": [],
            "outputs": [
                {
                    "name": "",
                    "type": "uint256",
                    "internalType": "uint256"
                }
            ],
            "stateMutability": "view"
        },
        {
            "type": "function",
            "name": "updated",
            "inputs": [],
            "outputs": [
                {
                    "name": "",
                    "type": "uint256",
                    "internalType": "uint256"
                }
            ],
            "stateMutability": "view"
        }
    ],
    "bytecode": {
        "object": "0x60a0604052600a60805234801561001557600080fd5b506040516101033803806101038339810160408190526100349161003c565b600155610055565b60006020828403121561004e57600080fd5b5051919050565b608051609661006d6000396000605f015260966000f3fe6080604052348015600f57600080fd5b5060043610603c5760003560e01c80637b2aab03146041578063d625c60914605b578063e1c6c44c146081575b600080fd5b604960015481565b60405190815260200160405180910390f35b60497f000000000000000000000000000000000000000000000000000000000000000081565b60496000548156fea164736f6c6343000814000a",
        "linkReferences": {}
    },
    "methodIdentifiers": {
        "notUpdated()": "e1c6c44c",
        "notUpdatedButImmutable()": "d625c609",
        "updated()": "7b2aab03"
    },
    "id": 0
}