{"abi":[{"type":"function","name":"setOwner","inputs":[{"name":"_owner","type":"address","internalType":"address"}],"outputs":[],"stateMutability":"nonpayable"},{"type":"function","name":"someOtherImportantThing","inputs":[],"outputs":[],"stateMutability":"nonpayable"}],"bytecode":{"object":"0x6080604052348015600f57600080fd5b5060ab8061001e6000396000f3fe6080604052348015600f57600080fd5b506004361060325760003560e01c806313af40351460375780632253cc49146045575b600080fd5b604560423660046047565b50565b005b600060208284031215605857600080fd5b81356001600160a01b0381168114606e57600080fd5b939250505056fea2646970667358221220f3b02ee42a6ed65c03d80760ba21fca557aae8fcb4b3b3cb85e6bbc60af8e73364736f6c63430008140033","linkReferences":{}},"methodIdentifiers":{"setOwner(address)":"13af4035","someOtherImportantThing()":"2253cc49"},"id":3}