{"abi":[{"type":"constructor","inputs":[],"stateMutability":"nonpayable"},{"type":"function","name":"increment","inputs":[],"outputs":[],"stateMutability":"nonpayable"},{"type":"function","name":"number","inputs":[],"outputs":[{"name":"","type":"uint256","internalType":"uint256"}],"stateMutability":"view"},{"type":"function","name":"owner","inputs":[],"outputs":[{"name":"","type":"address","internalType":"address"}],"stateMutability":"view"},{"type":"function","name":"renounceOwnership","inputs":[],"outputs":[],"stateMutability":"nonpayable"},{"type":"function","name":"setNumber","inputs":[{"name":"newNumber","type":"uint256","internalType":"uint256"}],"outputs":[],"stateMutability":"nonpayable"},{"type":"function","name":"setOwner","inputs":[{"name":"_owner","type":"address","internalType":"address"}],"outputs":[],"stateMutability":"nonpayable"},{"type":"function","name":"someOtherImportantThing","inputs":[],"outputs":[],"stateMutability":"nonpayable"},{"type":"function","name":"transferOwnership","inputs":[{"name":"newOwner","type":"address","internalType":"address"}],"outputs":[],"stateMutability":"nonpayable"},{"type":"event","name":"OwnershipTransferred","inputs":[{"name":"previousOwner","type":"address","indexed":true,"internalType":"address"},{"name":"newOwner","type":"address","indexed":true,"internalType":"address"}],"anonymous":false}],"bytecode":{"object":"0x6080604052600060025534801561001557600080fd5b5061001f33610028565b60018055610078565b600080546001600160a01b038381166001600160a01b0319831681178455604051919092169283917f8be0079c531659141344cd1fd0a4f28419497f9722a3daafe3b4186f6b6457e09190a35050565b6103a4806100876000396000f3fe608060405234801561001057600080fd5b50600436106100885760003560e01c80638381f58a1161005b5780638381f58a146100c55780638da5cb5b146100e1578063d09de08a146100fc578063f2fde38b1461010457600080fd5b806313af40351461008d5780632253cc49146100a25780633fb5c1cb146100aa578063715018a6146100bd575b600080fd5b6100a061009b3660046102fe565b610117565b005b6100a061013c565b6100a06100b836600461032e565b600255565b6100a0610157565b6100ce60025481565b6040519081526020015b60405180910390f35b6000546040516001600160a01b0390911681526020016100d8565b6100a0610169565b6100a06101123660046102fe565b610180565b61011f6101fb565b610127610255565b610130816102ae565b61013960018055565b50565b610144610255565b61014c6101fb565b61015560018055565b565b61015f6101fb565b61015560006102ae565b6002805490600061017983610347565b9190505550565b6101886101fb565b6001600160a01b0381166101f25760405162461bcd60e51b815260206004820152602660248201527f4f776e61626c653a206e6577206f776e657220697320746865207a65726f206160448201526564647265737360d01b60648201526084015b60405180910390fd5b610139816102ae565b6000546001600160a01b031633146101555760405162461bcd60e51b815260206004820181905260248201527f4f776e61626c653a2063616c6c6572206973206e6f7420746865206f776e657260448201526064016101e9565b6002600154036102a75760405162461bcd60e51b815260206004820152601f60248201527f5265656e7472616e637947756172643a207265656e7472616e742063616c6c0060448201526064016101e9565b6002600155565b600080546001600160a01b038381166001600160a01b0319831681178455604051919092169283917f8be0079c531659141344cd1fd0a4f28419497f9722a3daafe3b4186f6b6457e09190a35050565b60006020828403121561031057600080fd5b81356001600160a01b038116811461032757600080fd5b9392505050565b60006020828403121561034057600080fd5b5035919050565b60006001820161036757634e487b7160e01b600052601160045260246000fd5b506001019056fea26469706673582212207deb26c8cabaca3dbb43ae1b058092d7d3751feebbf85c6f0452b478e9626ef564736f6c63430008140033","linkReferences":{}},"methodIdentifiers":{"increment()":"d09de08a","number()":"8381f58a","owner()":"8da5cb5b","renounceOwnership()":"715018a6","setNumber(uint256)":"3fb5c1cb","setOwner(address)":"13af4035","someOtherImportantThing()":"2253cc49","transferOwnership(address)":"f2fde38b"},"id":3}