{"abi":[{"type":"constructor","inputs":[],"stateMutability":"nonpayable"},{"type":"function","name":"increment","inputs":[{"name":"newNumber","type":"uint256","internalType":"uint256"},{"name":"anotherNumber","type":"uint256","internalType":"uint256"}],"outputs":[],"stateMutability":"nonpayable"},{"type":"function","name":"number","inputs":[],"outputs":[{"name":"","type":"uint256","internalType":"uint256"}],"stateMutability":"view"},{"type":"function","name":"owner","inputs":[],"outputs":[{"name":"","type":"address","internalType":"address"}],"stateMutability":"view"},{"type":"function","name":"renounceOwnership","inputs":[],"outputs":[],"stateMutability":"nonpayable"},{"type":"function","name":"setNumber","inputs":[{"name":"newNumber","type":"uint256","internalType":"uint256"}],"outputs":[],"stateMutability":"nonpayable"},{"type":"function","name":"setOwner","inputs":[{"name":"_owner","type":"address","internalType":"address"}],"outputs":[],"stateMutability":"nonpayable"},{"type":"function","name":"someOtherImportantThing","inputs":[],"outputs":[],"stateMutability":"nonpayable"},{"type":"function","name":"transferOwnership","inputs":[{"name":"newOwner","type":"address","internalType":"address"}],"outputs":[],"stateMutability":"nonpayable"},{"type":"event","name":"OwnershipTransferred","inputs":[{"name":"previousOwner","type":"address","indexed":true,"internalType":"address"},{"name":"newOwner","type":"address","indexed":true,"internalType":"address"}],"anonymous":false}],"bytecode":{"object":"0x6080604052600060025534801561001557600080fd5b5061001f33610028565b60018055610078565b600080546001600160a01b038381166001600160a01b0319831681178455604051919092169283917f8be0079c531659141344cd1fd0a4f28419497f9722a3daafe3b4186f6b6457e09190a35050565b610424806100876000396000f3fe608060405234801561001057600080fd5b50600436106100885760003560e01c80638381f58a1161005b5780638381f58a146100c35780638da5cb5b146100df578063924ba506146100fa578063f2fde38b1461010d57600080fd5b806313af40351461008d5780632253cc49146100a25780633fb5c1cb146100aa578063715018a6146100bb575b600080fd5b6100a061009b36600461033d565b610120565b005b6100a0610142565b6100a06100b836600461036d565b50565b6100a061015d565b6100cc60025481565b6040519081526020015b60405180910390f35b6000546040516001600160a01b0390911681526020016100d6565b6100a0610108366004610386565b61016f565b6100a061011b36600461033d565b6101bf565b61012861023a565b610130610294565b610139816102ed565b6100b860018055565b61014a610294565b61015261023a565b61015b60018055565b565b61016561023a565b61015b60006102ed565b600560025410801561018357506001600254115b156101bb5760095b80156101b9576002838155839060006101a3836103be565b9190505550806101b2906103d7565b905061018b565b505b5050565b6101c761023a565b6001600160a01b0381166102315760405162461bcd60e51b815260206004820152602660248201527f4f776e61626c653a206e6577206f776e657220697320746865207a65726f206160448201526564647265737360d01b60648201526084015b60405180910390fd5b6100b8816102ed565b6000546001600160a01b0316331461015b5760405162461bcd60e51b815260206004820181905260248201527f4f776e61626c653a2063616c6c6572206973206e6f7420746865206f776e65726044820152606401610228565b6002600154036102e65760405162461bcd60e51b815260206004820152601f60248201527f5265656e7472616e637947756172643a207265656e7472616e742063616c6c006044820152606401610228565b6002600155565b600080546001600160a01b038381166001600160a01b0319831681178455604051919092169283917f8be0079c531659141344cd1fd0a4f28419497f9722a3daafe3b4186f6b6457e09190a35050565b60006020828403121561034f57600080fd5b81356001600160a01b038116811461036657600080fd5b9392505050565b60006020828403121561037f57600080fd5b5035919050565b6000806040838503121561039957600080fd5b50508035926020909101359150565b634e487b7160e01b600052601160045260246000fd5b6000600182016103d0576103d06103a8565b5060010190565b6000816103e6576103e66103a8565b50600019019056fea2646970667358221220c2a5cf793100dcf97709ddd632d24b1ddb2bb6a4290a2d6267b3dd00aab5b39a64736f6c63430008140033","linkReferences":{}},"methodIdentifiers":{"increment(uint256,uint256)":"924ba506","number()":"8381f58a","owner()":"8da5cb5b","renounceOwnership()":"715018a6","setNumber(uint256)":"3fb5c1cb","setOwner(address)":"13af4035","someOtherImportantThing()":"2253cc49","transferOwnership(address)":"f2fde38b"},"id":3}