{"abi":[{"type":"function","name":"HUGE_NUMBER_1","inputs":[],"outputs":[{"name":"","type":"uint256","internalType":"uint256"}],"stateMutability":"view"},{"type":"function","name":"HUGE_NUMBER_10","inputs":[],"outputs":[{"name":"","type":"uint256","internalType":"uint256"}],"stateMutability":"view"},{"type":"function","name":"HUGE_NUMBER_11","inputs":[],"outputs":[{"name":"","type":"uint256","internalType":"uint256"}],"stateMutability":"view"},{"type":"function","name":"HUGE_NUMBER_12","inputs":[],"outputs":[{"name":"","type":"uint256","internalType":"uint256"}],"stateMutability":"view"},{"type":"function","name":"HUGE_NUMBER_13","inputs":[],"outputs":[{"name":"","type":"uint256","internalType":"uint256"}],"stateMutability":"view"},{"type":"function","name":"HUGE_NUMBER_14","inputs":[],"outputs":[{"name":"","type":"uint256","internalType":"uint256"}],"stateMutability":"view"},{"type":"function","name":"HUGE_NUMBER_15","inputs":[],"outputs":[{"name":"","type":"uint256","internalType":"uint256"}],"stateMutability":"view"},{"type":"function","name":"HUGE_NUMBER_16","inputs":[],"outputs":[{"name":"","type":"uint256","internalType":"uint256"}],"stateMutability":"view"},{"type":"function","name":"HUGE_NUMBER_17","inputs":[],"outputs":[{"name":"","type":"uint256","internalType":"uint256"}],"stateMutability":"view"},{"type":"function","name":"HUGE_NUMBER_18","inputs":[],"outputs":[{"name":"","type":"uint256","internalType":"uint256"}],"stateMutability":"view"},{"type":"function","name":"HUGE_NUMBER_19","inputs":[],"outputs":[{"name":"","type":"uint256","internalType":"uint256"}],"stateMutability":"view"},{"type":"function","name":"HUGE_NUMBER_2","inputs":[],"outputs":[{"name":"","type":"uint256","internalType":"uint256"}],"stateMutability":"view"},{"type":"function","name":"HUGE_NUMBER_20","inputs":[],"outputs":[{"name":"","type":"uint256","internalType":"uint256"}],"stateMutability":"view"},{"type":"function","name":"HUGE_NUMBER_21_GOOD","inputs":[],"outputs":[{"name":"","type":"uint256","internalType":"uint256"}],"stateMutability":"view"},{"type":"function","name":"HUGE_NUMBER_22_GOOD","inputs":[],"outputs":[{"name":"","type":"uint256","internalType":"uint256"}],"stateMutability":"view"},{"type":"function","name":"HUGE_NUMBER_23_GOOD","inputs":[],"outputs":[{"name":"","type":"uint256","internalType":"uint256"}],"stateMutability":"view"},{"type":"function","name":"HUGE_NUMBER_24_UNDERSCORES","inputs":[],"outputs":[{"name":"","type":"uint256","internalType":"uint256"}],"stateMutability":"view"},{"type":"function","name":"HUGE_NUMBER_25_UNDERSCORES","inputs":[],"outputs":[{"name":"","type":"uint256","internalType":"uint256"}],"stateMutability":"view"},{"type":"function","name":"HUGE_NUMBER_26_UNDERSCORES_GOOD","inputs":[],"outputs":[{"name":"","type":"uint256","internalType":"uint256"}],"stateMutability":"view"},{"type":"function","name":"HUGE_NUMBER_27_HEX_GOOD","inputs":[],"outputs":[{"name":"","type":"uint256","internalType":"uint256"}],"stateMutability":"view"},{"type":"function","name":"HUGE_NUMBER_28_HEX_GOOD","inputs":[],"outputs":[{"name":"","type":"uint256","internalType":"uint256"}],"stateMutability":"view"},{"type":"function","name":"HUGE_NUMBER_29_HEX_GOOD","inputs":[],"outputs":[{"name":"","type":"uint256","internalType":"uint256"}],"stateMutability":"view"},{"type":"function","name":"HUGE_NUMBER_3","inputs":[],"outputs":[{"name":"","type":"uint256","internalType":"uint256"}],"stateMutability":"view"},{"type":"function","name":"HUGE_NUMBER_30_HEX_GOOD","inputs":[],"outputs":[{"name":"","type":"uint256","internalType":"uint256"}],"stateMutability":"view"},{"type":"function","name":"HUGE_NUMBER_31_HEX_GOOD","inputs":[],"outputs":[{"name":"","type":"uint256","internalType":"uint256"}],"stateMutability":"view"},{"type":"function","name":"HUGE_NUMBER_32_HEX_GOOD","inputs":[],"outputs":[{"name":"","type":"uint256","internalType":"uint256"}],"stateMutability":"view"},{"type":"function","name":"HUGE_NUMBER_33_HEX","inputs":[],"outputs":[{"name":"","type":"uint256","internalType":"uint256"}],"stateMutability":"view"},{"type":"function","name":"HUGE_NUMBER_4","inputs":[],"outputs":[{"name":"","type":"uint256","internalType":"uint256"}],"stateMutability":"view"},{"type":"function","name":"HUGE_NUMBER_5","inputs":[],"outputs":[{"name":"","type":"uint256","internalType":"uint256"}],"stateMutability":"view"},{"type":"function","name":"HUGE_NUMBER_6","inputs":[],"outputs":[{"name":"","type":"uint256","internalType":"uint256"}],"stateMutability":"view"},{"type":"function","name":"HUGE_NUMBER_7","inputs":[],"outputs":[{"name":"","type":"uint256","internalType":"uint256"}],"stateMutability":"view"},{"type":"function","name":"HUGE_NUMBER_8","inputs":[],"outputs":[{"name":"","type":"uint256","internalType":"uint256"}],"stateMutability":"view"},{"type":"function","name":"HUGE_NUMBER_9","inputs":[],"outputs":[{"name":"","type":"uint256","internalType":"uint256"}],"stateMutability":"view"}],"bytecode":{"object":"0x608060405234801561001057600080fd5b5061035c806100206000396000f3fe608060405234801561001057600080fd5b50600436106101fb5760003560e01c80637323a1b41161011a578063b07a3aee116100ad578063ce50f3941161007c578063ce50f3941461031f578063cfa235b71461032a578063e173d7e314610338578063e3af5bf814610347578063f330b0191461030357600080fd5b8063b07a3aee1461023b578063b254f49314610303578063c81c5cfd146102b9578063cb26d7ab1461031357600080fd5b80639472072c116100e95780639472072c146102e9578063a17806281461028c578063a5dd87c4146102e9578063acdece46146102f457600080fd5b80637323a1b4146102ac578063736d1531146102b95780637b338886146102c95780638f204a1f146102d857600080fd5b80634467db381161019257806354ae009b1161016157806354ae009b1461028c5780635859653c146102955780635eef2d4f146102005780636f943ae4146102a057600080fd5b80634467db38146102585780634b9e4bb5146102695780635200718114610271578063546d00f01461027f57600080fd5b80631f01bbe7116101ce5780631f01bbe71461022f57806321dae9df1461023b578063250f5468146102445780632f8560bc1461024e57600080fd5b8063010a09e41461020057806314f0a0e41461021c578063175b809a146102255780631d15f09c1461021c575b600080fd5b61020a6201000081565b60405190815260200160405180910390f35b61020a61271081565b61020a620186a081565b61020a64e8d4a5100081565b61020a6103e881565b61020a6298968081565b61020a620f424081565b61020a69152d02c7e14af680000081565b61020a606481565b61020a66038d7ea4c6800081565b61020a655af3107a400081565b61020a61100081565b61020a633b9aca0081565b61020a64174876e80081565b61020a6509184e72a00081565b61020a683635c9adc5dea0000081565b61020a67016345785d8a000081565b61020a69021e19e0c9bab240000081565b61020a600160541b81565b61020a670de0b6b3a764000081565b61020a68056bc75e2d6310000081565b61020a6402540be40081565b61020a6305f5e10081565b61020a662386f26fc1000081565b61020a678ac7230489e8000081565b61020a60018156fea164736f6c6343000813000a","linkReferences":{}},"methodIdentifiers":{"HUGE_NUMBER_1()":"4467db38","HUGE_NUMBER_10()":"546d00f0","HUGE_NUMBER_11()":"7323a1b4","HUGE_NUMBER_12()":"1f01bbe7","HUGE_NUMBER_13()":"6f943ae4","HUGE_NUMBER_14()":"cb26d7ab","HUGE_NUMBER_15()":"5859653c","HUGE_NUMBER_16()":"ce50f394","HUGE_NUMBER_17()":"250f5468","HUGE_NUMBER_18()":"2f8560bc","HUGE_NUMBER_19()":"175b809a","HUGE_NUMBER_2()":"8f204a1f","HUGE_NUMBER_20()":"1d15f09c","HUGE_NUMBER_21_GOOD()":"b07a3aee","HUGE_NUMBER_22_GOOD()":"4b9e4bb5","HUGE_NUMBER_23_GOOD()":"b254f493","HUGE_NUMBER_24_UNDERSCORES()":"c81c5cfd","HUGE_NUMBER_25_UNDERSCORES()":"14f0a0e4","HUGE_NUMBER_26_UNDERSCORES_GOOD()":"21dae9df","HUGE_NUMBER_27_HEX_GOOD()":"9472072c","HUGE_NUMBER_28_HEX_GOOD()":"5eef2d4f","HUGE_NUMBER_29_HEX_GOOD()":"a1780628","HUGE_NUMBER_3()":"736d1531","HUGE_NUMBER_30_HEX_GOOD()":"a5dd87c4","HUGE_NUMBER_31_HEX_GOOD()":"010a09e4","HUGE_NUMBER_32_HEX_GOOD()":"54ae009b","HUGE_NUMBER_33_HEX()":"e3af5bf8","HUGE_NUMBER_4()":"f330b019","HUGE_NUMBER_5()":"e173d7e3","HUGE_NUMBER_6()":"acdece46","HUGE_NUMBER_7()":"7b338886","HUGE_NUMBER_8()":"cfa235b7","HUGE_NUMBER_9()":"52007181"},"id":12}