{"abi":[{"type":"function","name":"DEFAULT_ADMIN_ROLE","inputs":[],"outputs":[{"name":"","type":"bytes32","internalType":"bytes32"}],"stateMutability":"view"},{"type":"function","name":"approve","inputs":[{"name":"token","type":"address","internalType":"contract IERC20"},{"name":"spender","type":"address","internalType":"address"},{"name":"value","type":"uint256","internalType":"uint256"}],"outputs":[],"stateMutability":"nonpayable"},{"type":"function","name":"approveAndCheckReturnValue","inputs":[{"name":"token","type":"address","internalType":"contract IERC20"},{"name":"spender","type":"address","internalType":"address"},{"name":"value","type":"uint256","internalType":"uint256"}],"outputs":[{"name":"success","type":"bool","internalType":"bool"}],"stateMutability":"nonpayable"},{"type":"function","name":"getRoleAdmin","inputs":[{"name":"role","type":"bytes32","internalType":"bytes32"}],"outputs":[{"name":"","type":"bytes32","internalType":"bytes32"}],"stateMutability":"view"},{"type":"function","name":"grantRole","inputs":[{"name":"role","type":"bytes32","internalType":"bytes32"},{"name":"account","type":"address","internalType":"address"}],"outputs":[],"stateMutability":"nonpayable"},{"type":"function","name":"grantRole0","inputs":[{"name":"role","type":"bytes32","internalType":"bytes32"},{"name":"account","type":"address","internalType":"address"}],"outputs":[],"stateMutability":"nonpayable"},{"type":"function","name":"hasRole","inputs":[{"name":"role","type":"bytes32","internalType":"bytes32"},{"name":"account","type":"address","internalType":"address"}],"outputs":[{"name":"","type":"bool","internalType":"bool"}],"stateMutability":"view"},{"type":"function","name":"renounceRole","inputs":[{"name":"role","type":"bytes32","internalType":"bytes32"},{"name":"account","type":"address","internalType":"address"}],"outputs":[],"stateMutability":"nonpayable"},{"type":"function","name":"revokeRole","inputs":[{"name":"role","type":"bytes32","internalType":"bytes32"},{"name":"account","type":"address","internalType":"address"}],"outputs":[],"stateMutability":"nonpayable"},{"type":"function","name":"safeApprove","inputs":[{"name":"token","type":"address","internalType":"contract IERC20"},{"name":"spender","type":"address","internalType":"address"},{"name":"value","type":"uint256","internalType":"uint256"}],"outputs":[],"stateMutability":"nonpayable"},{"type":"function","name":"safeTransferFrom","inputs":[{"name":"token","type":"address","internalType":"contract IERC20"},{"name":"from","type":"address","internalType":"address"},{"name":"to","type":"address","internalType":"address"},{"name":"value","type":"uint256","internalType":"uint256"}],"outputs":[],"stateMutability":"nonpayable"},{"type":"function","name":"setupRole","inputs":[{"name":"role","type":"bytes32","internalType":"bytes32"},{"name":"account","type":"address","internalType":"address"}],"outputs":[],"stateMutability":"nonpayable"},{"type":"function","name":"supportsInterface","inputs":[{"name":"interfaceId","type":"bytes4","internalType":"bytes4"}],"outputs":[{"name":"","type":"bool","internalType":"bool"}],"stateMutability":"view"},{"type":"function","name":"transferFrom","inputs":[{"name":"token","type":"address","internalType":"contract IERC20"},{"name":"from","type":"address","internalType":"address"},{"name":"to","type":"address","internalType":"address"},{"name":"value","type":"uint256","internalType":"uint256"}],"outputs":[],"stateMutability":"nonpayable"},{"type":"event","name":"RoleAdminChanged","inputs":[{"name":"role","type":"bytes32","indexed":true,"internalType":"bytes32"},{"name":"previousAdminRole","type":"bytes32","indexed":true,"internalType":"bytes32"},{"name":"newAdminRole","type":"bytes32","indexed":true,"internalType":"bytes32"}],"anonymous":false},{"type":"event","name":"RoleGranted","inputs":[{"name":"role","type":"bytes32","indexed":true,"internalType":"bytes32"},{"name":"account","type":"address","indexed":true,"internalType":"address"},{"name":"sender","type":"address","indexed":true,"internalType":"address"}],"anonymous":false},{"type":"event","name":"RoleRevoked","inputs":[{"name":"role","type":"bytes32","indexed":true,"internalType":"bytes32"},{"name":"account","type":"address","indexed":true,"internalType":"address"},{"name":"sender","type":"address","indexed":true,"internalType":"address"}],"anonymous":false}],"bytecode":{"object":"0x608060405234801561001057600080fd5b50610f5a806100206000396000f3fe608060405234801561001057600080fd5b50600436106100ea5760003560e01c806391d148541161008c578063d9fc4b6111610066578063d9fc4b61146101d7578063e1f21c67146101ea578063eb5625d9146101fd578063fa82ac761461021057600080fd5b806391d14854146101a9578063a217fddf146101bc578063d547741f146101c457600080fd5b8063248a9ca3116100c8578063248a9ca31461013f5780632f2ff15d1461017057806336568abe1461018357806337c2a0061461019657600080fd5b806301ffc9a7146100ef5780630f018bec1461011757806315dacbea1461012c575b600080fd5b6101026100fd366004610c8d565b610223565b60405190151581526020015b60405180910390f35b61012a610125366004610ccc565b61025a565b005b61012a61013a366004610cfc565b610268565b61016261014d366004610d4d565b60009081526020819052604090206001015490565b60405190815260200161010e565b61012a61017e366004610ccc565b6102ea565b61012a610191366004610ccc565b610314565b6101026101a4366004610d66565b610393565b6101026101b7366004610ccc565b61050d565b610162600081565b61012a6101d2366004610ccc565b610536565b61012a6101e5366004610cfc565b61055b565b61012a6101f8366004610d66565b610576565b61012a61020b366004610d66565b6105e9565b61012a61021e366004610ccc565b6105fd565b60006001600160e01b03198216637965db0b60e01b148061025457506301ffc9a760e01b6001600160e01b03198316145b92915050565b61026482826102ea565b5050565b6040516323b872dd60e01b81526001600160a01b0384811660048301528381166024830152604482018390528516906323b872dd906064016020604051808303816000875af11580156102bf573d6000803e3d6000fd5b505050506040513d601f19601f820116820180604052508101906102e39190610da7565b5050505050565b60008281526020819052604090206001015461030581610607565b61030f8383610614565b505050565b6001600160a01b03811633146103895760405162461bcd60e51b815260206004820152602f60248201527f416363657373436f6e74726f6c3a2063616e206f6e6c792072656e6f756e636560448201526e103937b632b9903337b91039b2b63360891b60648201526084015b60405180910390fd5b6102648282610698565b60405163095ea7b360e01b81526001600160a01b038381166004830152602482018390526000919085169063095ea7b3906044016020604051808303816000875af11580156103e6573d6000803e3d6000fd5b505050506040513d601f19601f8201168201806040525081019061040a9190610da7565b61041357600080fd5b60405163095ea7b360e01b81526001600160a01b0384811660048301526024820184905285169063095ea7b3906044016020604051808303816000875af1158015610462573d6000803e3d6000fd5b505050506040513d601f19601f820116820180604052508101906104869190610da7565b90508061049257600080fd5b60405163095ea7b360e01b81526001600160a01b0384811660048301526024820184905285169063095ea7b3906044016020604051808303816000875af11580156104e1573d6000803e3d6000fd5b505050506040513d601f19601f820116820180604052508101906105059190610da7565b949350505050565b6000918252602082815260408084206001600160a01b0393909316845291905290205460ff1690565b60008281526020819052604090206001015461055181610607565b61030f8383610698565b6105706001600160a01b0385168484846106fd565b50505050565b60405163095ea7b360e01b81526001600160a01b0383811660048301526024820183905284169063095ea7b3906044016020604051808303816000875af11580156105c5573d6000803e3d6000fd5b505050506040513d601f19601f820116820180604052508101906105709190610da7565b61030f6001600160a01b0384168383610768565b610264828261087d565b6106118133610887565b50565b61061e828261050d565b610264576000828152602081815260408083206001600160a01b03851684529091529020805460ff191660011790556106543390565b6001600160a01b0316816001600160a01b0316837f2f8788117e7eff1d82e926ec794901d17c78024a50270940304540a733656f0d60405160405180910390a45050565b6106a2828261050d565b15610264576000828152602081815260408083206001600160a01b0385168085529252808320805460ff1916905551339285917ff6391f5c32d9c69d2a47ea670b442974b53935d1edc7fd64eb21e047a839171b9190a45050565b6040516001600160a01b03808516602483015283166044820152606481018290526105709085906323b872dd60e01b906084015b60408051601f198184030181529190526020810180516001600160e01b03166001600160e01b0319909316929092179091526108e0565b8015806107e25750604051636eb1769f60e11b81523060048201526001600160a01b03838116602483015284169063dd62ed3e90604401602060405180830381865afa1580156107bc573d6000803e3d6000fd5b505050506040513d601f19601f820116820180604052508101906107e09190610dc9565b155b61084d5760405162461bcd60e51b815260206004820152603660248201527f5361666545524332303a20617070726f76652066726f6d206e6f6e2d7a65726f60448201527520746f206e6f6e2d7a65726f20616c6c6f77616e636560501b6064820152608401610380565b6040516001600160a01b03831660248201526044810182905261030f90849063095ea7b360e01b90606401610731565b6102648282610614565b610891828261050d565b6102645761089e816109b5565b6108a98360206109c7565b6040516020016108ba929190610e06565b60408051601f198184030181529082905262461bcd60e51b825261038091600401610e7b565b6000610935826040518060400160405280602081526020017f5361666545524332303a206c6f772d6c6576656c2063616c6c206661696c6564815250856001600160a01b0316610b6a9092919063ffffffff16565b90508051600014806109565750808060200190518101906109569190610da7565b61030f5760405162461bcd60e51b815260206004820152602a60248201527f5361666545524332303a204552433230206f7065726174696f6e20646964206e6044820152691bdd081cdd58d8d9595960b21b6064820152608401610380565b60606102546001600160a01b03831660145b606060006109d6836002610ec4565b6109e1906002610edb565b67ffffffffffffffff8111156109f9576109f9610eee565b6040519080825280601f01601f191660200182016040528015610a23576020820181803683370190505b509050600360fc1b81600081518110610a3e57610a3e610f04565b60200101906001600160f81b031916908160001a905350600f60fb1b81600181518110610a6d57610a6d610f04565b60200101906001600160f81b031916908160001a9053506000610a91846002610ec4565b610a9c906001610edb565b90505b6001811115610b14576f181899199a1a9b1b9c1cb0b131b232b360811b85600f1660108110610ad057610ad0610f04565b1a60f81b828281518110610ae657610ae6610f04565b60200101906001600160f81b031916908160001a90535060049490941c93610b0d81610f1a565b9050610a9f565b508315610b635760405162461bcd60e51b815260206004820181905260248201527f537472696e67733a20686578206c656e67746820696e73756666696369656e746044820152606401610380565b9392505050565b6060610505848460008585600080866001600160a01b03168587604051610b919190610f31565b60006040518083038185875af1925050503d8060008114610bce576040519150601f19603f3d011682016040523d82523d6000602084013e610bd3565b606091505b5091509150610be487838387610bef565b979650505050505050565b60608315610c5e578251600003610c57576001600160a01b0385163b610c575760405162461bcd60e51b815260206004820152601d60248201527f416464726573733a2063616c6c20746f206e6f6e2d636f6e74726163740000006044820152606401610380565b5081610505565b6105058383815115610c735781518083602001fd5b8060405162461bcd60e51b81526004016103809190610e7b565b600060208284031215610c9f57600080fd5b81356001600160e01b031981168114610b6357600080fd5b6001600160a01b038116811461061157600080fd5b60008060408385031215610cdf57600080fd5b823591506020830135610cf181610cb7565b809150509250929050565b60008060008060808587031215610d1257600080fd5b8435610d1d81610cb7565b93506020850135610d2d81610cb7565b92506040850135610d3d81610cb7565b9396929550929360600135925050565b600060208284031215610d5f57600080fd5b5035919050565b600080600060608486031215610d7b57600080fd5b8335610d8681610cb7565b92506020840135610d9681610cb7565b929592945050506040919091013590565b600060208284031215610db957600080fd5b81518015158114610b6357600080fd5b600060208284031215610ddb57600080fd5b5051919050565b60005b83811015610dfd578181015183820152602001610de5565b50506000910152565b7f416363657373436f6e74726f6c3a206163636f756e7420000000000000000000815260008351610e3e816017850160208801610de2565b7001034b99036b4b9b9b4b733903937b6329607d1b6017918401918201528351610e6f816028840160208801610de2565b01602801949350505050565b6020815260008251806020840152610e9a816040850160208701610de2565b601f01601f19169190910160400192915050565b634e487b7160e01b600052601160045260246000fd5b808202811582820484141761025457610254610eae565b8082018082111561025457610254610eae565b634e487b7160e01b600052604160045260246000fd5b634e487b7160e01b600052603260045260246000fd5b600081610f2957610f29610eae565b506000190190565b60008251610f43818460208701610de2565b919091019291505056fea164736f6c6343000814000a","linkReferences":{}},"methodIdentifiers":{"DEFAULT_ADMIN_ROLE()":"a217fddf","approve(address,address,uint256)":"e1f21c67","approveAndCheckReturnValue(address,address,uint256)":"37c2a006","getRoleAdmin(bytes32)":"248a9ca3","grantRole(bytes32,address)":"2f2ff15d","grantRole0(bytes32,address)":"0f018bec","hasRole(bytes32,address)":"91d14854","renounceRole(bytes32,address)":"36568abe","revokeRole(bytes32,address)":"d547741f","safeApprove(address,address,uint256)":"eb5625d9","safeTransferFrom(address,address,address,uint256)":"d9fc4b61","setupRole(bytes32,address)":"fa82ac76","supportsInterface(bytes4)":"01ffc9a7","transferFrom(address,address,address,uint256)":"15dacbea"},"id":26}