{
  "abi": [
    {
      "inputs": [],
      "name": "callIncrement",
      "outputs": [],
      "stateMutability": "nonpayable",
      "type": "function"
    },
    {
      "inputs": [],
      "name": "increment",
      "outputs": [],
      "stateMutability": "nonpayable",
      "type": "function"
    },
    {
      "inputs": [],
      "name": "number",
      "outputs": [
        {
          "internalType": "uint256",
          "name": "",
          "type": "uint256"
        }
      ],
      "stateMutability": "view",
      "type": "function"
    },
    {
      "inputs": [
        {
          "internalType": "uint256",
          "name": "newNumber",
          "type": "uint256"
        }
      ],
      "name": "setNumber",
      "outputs": [],
      "stateMutability": "nonpayable",
      "type": "function"
    }
  ],
  "bytecode": {
    "object": "0x608060405234801561001057600080fd5b50610113806100206000396000f3fe6080604052348015600f57600080fd5b506004361060465760003560e01c806338cd26de14604b5780633fb5c1cb1460535780638381f58a146063578063d09de08a14607d575b600080fd5b60516083565b005b6051605e366004609f565b600055565b606b60005481565b60405190815260200160405180910390f35b6051608b565b6089608b565b565b60008054908060988360b7565b9190505550565b60006020828403121560b057600080fd5b5035919050565b60006001820160d657634e487b7160e01b600052601160045260246000fd5b506001019056fea2646970667358221220d0245e3e7364651a4e28413962c3235ab1154bae1fbeaff0a2dae44e7bcde78664736f6c63430008140033",
    "linkReferences": {}
  },
  "methodIdentifiers": {
    "callIncrement()": "38cd26de",
    "increment()": "d09de08a",
    "number()": "8381f58a",
    "setNumber(uint256)": "3fb5c1cb"
  },
  "id": 18
}