{"abi":[{"type":"function","name":"sendSomeTokens","inputs":[{"name":"token","type":"address","internalType":"contract ERC20"},{"name":"to","type":"address","internalType":"address"},{"name":"amount","type":"uint256","internalType":"uint256"}],"outputs":[],"stateMutability":"nonpayable"}],"bytecode":{"object":"0x608060405234801561001057600080fd5b50610178806100206000396000f3fe608060405234801561001057600080fd5b506004361061002b5760003560e01c8063328373f014610030575b600080fd5b61004361003e366004610101565b610045565b005b6100596001600160a01b038416838361005e565b505050565b600060405163a9059cbb60e01b81526001600160a01b0384166004820152826024820152602060006044836000895af13d15601f3d11600160005114161716915050806100e35760405162461bcd60e51b815260206004820152600f60248201526e1514905394d1915497d19052531151608a1b604482015260640160405180910390fd5b50505050565b6001600160a01b03811681146100fe57600080fd5b50565b60008060006060848603121561011657600080fd5b8335610121816100e9565b92506020840135610131816100e9565b92959294505050604091909101359056fea26469706673582212208abb48bdacce71e58a42dc6dfc721c3fa514e8f1feea871f5a06e956cbd0b7c164736f6c63430008140033","linkReferences":{}},"methodIdentifiers":{"sendSomeTokens(address,address,uint256)":"328373f0"},"id":28}