{
  "abi": [
    {
      "inputs": [],
      "stateMutability": "nonpayable",
      "type": "constructor"
    },
    {
      "anonymous": false,
      "inputs": [
        {
          "indexed": true,
          "internalType": "address",
          "name": "previousOwner",
          "type": "address"
        },
        {
          "indexed": true,
          "internalType": "address",
          "name": "newOwner",
          "type": "address"
        }
      ],
      "name": "OwnershipTransferred",
      "type": "event"
    },
    {
      "inputs": [],
      "name": "owner",
      "outputs": [
        {
          "internalType": "address",
          "name": "",
          "type": "address"
        }
      ],
      "stateMutability": "view",
      "type": "function"
    },
    {
      "inputs": [],
      "name": "renounceOwnership",
      "outputs": [],
      "stateMutability": "nonpayable",
      "type": "function"
    },
    {
      "inputs": [
        {
          "internalType": "address",
          "name": "_owner",
          "type": "address"
        }
      ],
      "name": "setOwner",
      "outputs": [],
      "stateMutability": "nonpayable",
      "type": "function"
    },
    {
      "inputs": [],
      "name": "someOtherImportantThing",
      "outputs": [],
      "stateMutability": "nonpayable",
      "type": "function"
    },
    {
      "inputs": [
        {
          "internalType": "address",
          "name": "newOwner",
          "type": "address"
        }
      ],
      "name": "transferOwnership",
      "outputs": [],
      "stateMutability": "nonpayable",
      "type": "function"
    }
  ],
  "bytecode": {
    "object": "0x608060405234801561001057600080fd5b5061001a33610023565b60018055610073565b600080546001600160a01b038381166001600160a01b0319831681178455604051919092169283917f8be0079c531659141344cd1fd0a4f28419497f9722a3daafe3b4186f6b6457e09190a35050565b6102e9806100826000396000f3fe608060405234801561001057600080fd5b50600436106100575760003560e01c806313af40351461005c5780632253cc4914610071578063715018a6146100795780638da5cb5b14610081578063f2fde38b146100a0575b600080fd5b61006f61006a366004610283565b6100b3565b005b61006f6100d8565b61006f6100f3565b600054604080516001600160a01b039092168252519081900360200190f35b61006f6100ae366004610283565b610105565b6100bb610180565b6100c36101da565b6100cc81610233565b6100d560018055565b50565b6100e06101da565b6100e8610180565b6100f160018055565b565b6100fb610180565b6100f16000610233565b61010d610180565b6001600160a01b0381166101775760405162461bcd60e51b815260206004820152602660248201527f4f776e61626c653a206e6577206f776e657220697320746865207a65726f206160448201526564647265737360d01b60648201526084015b60405180910390fd5b6100d581610233565b6000546001600160a01b031633146100f15760405162461bcd60e51b815260206004820181905260248201527f4f776e61626c653a2063616c6c6572206973206e6f7420746865206f776e6572604482015260640161016e565b60026001540361022c5760405162461bcd60e51b815260206004820152601f60248201527f5265656e7472616e637947756172643a207265656e7472616e742063616c6c00604482015260640161016e565b6002600155565b600080546001600160a01b038381166001600160a01b0319831681178455604051919092169283917f8be0079c531659141344cd1fd0a4f28419497f9722a3daafe3b4186f6b6457e09190a35050565b60006020828403121561029557600080fd5b81356001600160a01b03811681146102ac57600080fd5b939250505056fea264697066735822122051c59550e2d5d8a68ca31946169a9ba7bbbc1f1c17f35cb8584670add446d9fe64736f6c63430008140033",
    "linkReferences": {}
  },
  "methodIdentifiers": {
    "owner()": "8da5cb5b",
    "renounceOwnership()": "715018a6",
    "setOwner(address)": "13af4035",
    "someOtherImportantThing()": "2253cc49",
    "transferOwnership(address)": "f2fde38b"
  },
  "id": 3
}