{"abi":[{"type":"constructor","inputs":[],"stateMutability":"nonpayable"},{"type":"function","name":"approve","inputs":[{"name":"to","type":"address","internalType":"address"},{"name":"tokenId","type":"uint256","internalType":"uint256"}],"outputs":[],"stateMutability":"nonpayable"},{"type":"function","name":"balanceOf","inputs":[{"name":"owner","type":"address","internalType":"address"}],"outputs":[{"name":"","type":"uint256","internalType":"uint256"}],"stateMutability":"view"},{"type":"function","name":"betterMint","inputs":[{"name":"to","type":"address","internalType":"address"},{"name":"tokenId","type":"uint256","internalType":"uint256"}],"outputs":[],"stateMutability":"nonpayable"},{"type":"function","name":"getApproved","inputs":[{"name":"tokenId","type":"uint256","internalType":"uint256"}],"outputs":[{"name":"","type":"address","internalType":"address"}],"stateMutability":"view"},{"type":"function","name":"isApprovedForAll","inputs":[{"name":"owner","type":"address","internalType":"address"},{"name":"operator","type":"address","internalType":"address"}],"outputs":[{"name":"","type":"bool","internalType":"bool"}],"stateMutability":"view"},{"type":"function","name":"name","inputs":[],"outputs":[{"name":"","type":"string","internalType":"string"}],"stateMutability":"view"},{"type":"function","name":"ownerOf","inputs":[{"name":"tokenId","type":"uint256","internalType":"uint256"}],"outputs":[{"name":"","type":"address","internalType":"address"}],"stateMutability":"view"},{"type":"function","name":"safeTransferFrom","inputs":[{"name":"from","type":"address","internalType":"address"},{"name":"to","type":"address","internalType":"address"},{"name":"tokenId","type":"uint256","internalType":"uint256"}],"outputs":[],"stateMutability":"nonpayable"},{"type":"function","name":"safeTransferFrom","inputs":[{"name":"from","type":"address","internalType":"address"},{"name":"to","type":"address","internalType":"address"},{"name":"tokenId","type":"uint256","internalType":"uint256"},{"name":"data","type":"bytes","internalType":"bytes"}],"outputs":[],"stateMutability":"nonpayable"},{"type":"function","name":"setApprovalForAll","inputs":[{"name":"operator","type":"address","internalType":"address"},{"name":"approved","type":"bool","internalType":"bool"}],"outputs":[],"stateMutability":"nonpayable"},{"type":"function","name":"supportsInterface","inputs":[{"name":"interfaceId","type":"bytes4","internalType":"bytes4"}],"outputs":[{"name":"","type":"bool","internalType":"bool"}],"stateMutability":"view"},{"type":"function","name":"symbol","inputs":[],"outputs":[{"name":"","type":"string","internalType":"string"}],"stateMutability":"view"},{"type":"function","name":"tokenURI","inputs":[{"name":"tokenId","type":"uint256","internalType":"uint256"}],"outputs":[{"name":"","type":"string","internalType":"string"}],"stateMutability":"view"},{"type":"function","name":"transferFrom","inputs":[{"name":"from","type":"address","internalType":"address"},{"name":"to","type":"address","internalType":"address"},{"name":"tokenId","type":"uint256","internalType":"uint256"}],"outputs":[],"stateMutability":"nonpayable"},{"type":"function","name":"unsafeMint","inputs":[{"name":"to","type":"address","internalType":"address"},{"name":"tokenId","type":"uint256","internalType":"uint256"}],"outputs":[],"stateMutability":"nonpayable"},{"type":"event","name":"Approval","inputs":[{"name":"owner","type":"address","indexed":true,"internalType":"address"},{"name":"approved","type":"address","indexed":true,"internalType":"address"},{"name":"tokenId","type":"uint256","indexed":true,"internalType":"uint256"}],"anonymous":false},{"type":"event","name":"ApprovalForAll","inputs":[{"name":"owner","type":"address","indexed":true,"internalType":"address"},{"name":"operator","type":"address","indexed":true,"internalType":"address"},{"name":"approved","type":"bool","indexed":false,"internalType":"bool"}],"anonymous":false},{"type":"event","name":"Transfer","inputs":[{"name":"from","type":"address","indexed":true,"internalType":"address"},{"name":"to","type":"address","indexed":true,"internalType":"address"},{"name":"tokenId","type":"uint256","indexed":true,"internalType":"uint256"}],"anonymous":false}],"bytecode":{"object":"0x60806040523480156200001157600080fd5b506040518060400160405280601081526020016f155b9cd85999515490cdcc8c535a5b9d60821b81525060405180604001604052806005815260200164553732314d60d81b81525081600090816200006a919062000127565b50600162000079828262000127565b505050620001f3565b634e487b7160e01b600052604160045260246000fd5b600181811c90821680620000ad57607f821691505b602082108103620000ce57634e487b7160e01b600052602260045260246000fd5b50919050565b601f8211156200012257600081815260208120601f850160051c81016020861015620000fd5750805b601f850160051c820191505b818110156200011e5782815560010162000109565b5050505b505050565b81516001600160401b0381111562000143576200014362000082565b6200015b8162000154845462000098565b84620000d4565b602080601f8311600181146200019357600084156200017a5750858301515b600019600386901b1c1916600185901b1785556200011e565b600085815260208120601f198616915b82811015620001c457888601518255948401946001909101908401620001a3565b5085821015620001e35787850151600019600388901b60f8161c191681555b5050505050600190811b01905550565b61130280620002036000396000f3fe608060405234801561001057600080fd5b50600436106100f55760003560e01c806342842e0e11610097578063a22cb46511610066578063a22cb465146101ff578063b88d4fde14610212578063c87b56dd14610225578063e985e9c51461023857600080fd5b806342842e0e146101b05780636352211e146101c357806370a08231146101d657806395d89b41146101f757600080fd5b8063095ea7b3116100d3578063095ea7b314610162578063168e4ae01461017757806323b872dd1461018a5780632c70bf151461019d57600080fd5b806301ffc9a7146100fa57806306fdde0314610122578063081812fc14610137575b600080fd5b61010d610108366004610eb7565b610274565b60405190151581526020015b60405180910390f35b61012a6102c6565b6040516101199190610f24565b61014a610145366004610f37565b610358565b6040516001600160a01b039091168152602001610119565b610175610170366004610f6c565b61037f565b005b610175610185366004610f6c565b610499565b610175610198366004610f96565b6104a7565b6101756101ab366004610f6c565b6104d8565b6101756101be366004610f96565b6104e2565b61014a6101d1366004610f37565b6104fd565b6101e96101e4366004610fd2565b61055d565b604051908152602001610119565b61012a6105e3565b61017561020d366004610fed565b6105f2565b61017561022036600461103f565b6105fd565b61012a610233366004610f37565b610635565b61010d61024636600461111b565b6001600160a01b03918216600090815260056020908152604080832093909416825291909152205460ff1690565b60006001600160e01b031982166380ac58cd60e01b14806102a557506001600160e01b03198216635b5e139f60e01b145b806102c057506301ffc9a760e01b6001600160e01b03198316145b92915050565b6060600080546102d59061114e565b80601f01602080910402602001604051908101604052809291908181526020018280546103019061114e565b801561034e5780601f106103235761010080835404028352916020019161034e565b820191906000526020600020905b81548152906001019060200180831161033157829003601f168201915b5050505050905090565b6000610363826106a9565b506000908152600460205260409020546001600160a01b031690565b600061038a826104fd565b9050806001600160a01b0316836001600160a01b0316036103fc5760405162461bcd60e51b815260206004820152602160248201527f4552433732313a20617070726f76616c20746f2063757272656e74206f776e656044820152603960f91b60648201526084015b60405180910390fd5b336001600160a01b038216148061041857506104188133610246565b61048a5760405162461bcd60e51b815260206004820152603d60248201527f4552433732313a20617070726f76652063616c6c6572206973206e6f7420746f60448201527f6b656e206f776e6572206f7220617070726f76656420666f7220616c6c00000060648201526084016103f3565b610494838361070b565b505050565b6104a38282610779565b5050565b6104b13382610904565b6104cd5760405162461bcd60e51b81526004016103f390611188565b610494838383610983565b6104a38282610ae7565b610494838383604051806020016040528060008152506105fd565b6000818152600260205260408120546001600160a01b0316806102c05760405162461bcd60e51b8152602060048201526018602482015277115490cdcc8c4e881a5b9d985b1a59081d1bdad95b88125160421b60448201526064016103f3565b60006001600160a01b0382166105c75760405162461bcd60e51b815260206004820152602960248201527f4552433732313a2061646472657373207a65726f206973206e6f7420612076616044820152683634b21037bbb732b960b91b60648201526084016103f3565b506001600160a01b031660009081526003602052604090205490565b6060600180546102d59061114e565b6104a3338383610b01565b6106073383610904565b6106235760405162461bcd60e51b81526004016103f390611188565b61062f84848484610bcf565b50505050565b6060610640826106a9565b600061065760408051602081019091526000815290565b9050600081511161067757604051806020016040528060008152506106a2565b8061068184610c02565b6040516020016106929291906111d5565b6040516020818303038152906040525b9392505050565b6000818152600260205260409020546001600160a01b03166107085760405162461bcd60e51b8152602060048201526018602482015277115490cdcc8c4e881a5b9d985b1a59081d1bdad95b88125160421b60448201526064016103f3565b50565b600081815260046020526040902080546001600160a01b0319166001600160a01b0384169081179091558190610740826104fd565b6001600160a01b03167f8c5be1e5ebec7d5bd14f71427d1e84f3dd0314c0f7b2291e5b200ac8c7c3b92560405160405180910390a45050565b6001600160a01b0382166107cf5760405162461bcd60e51b815260206004820181905260248201527f4552433732313a206d696e7420746f20746865207a65726f206164647265737360448201526064016103f3565b6000818152600260205260409020546001600160a01b0316156108345760405162461bcd60e51b815260206004820152601c60248201527f4552433732313a20746f6b656e20616c7265616479206d696e7465640000000060448201526064016103f3565b6000818152600260205260409020546001600160a01b0316156108995760405162461bcd60e51b815260206004820152601c60248201527f4552433732313a20746f6b656e20616c7265616479206d696e7465640000000060448201526064016103f3565b6001600160a01b038216600081815260036020908152604080832080546001019055848352600290915280822080546001600160a01b0319168417905551839291907fddf252ad1be2c89b69c2b068fc378daa952ba7f163c4a11628f55a4df523b3ef908290a45050565b600080610910836104fd565b9050806001600160a01b0316846001600160a01b0316148061095757506001600160a01b0380821660009081526005602090815260408083209388168352929052205460ff165b8061097b5750836001600160a01b031661097084610358565b6001600160a01b0316145b949350505050565b826001600160a01b0316610996826104fd565b6001600160a01b0316146109bc5760405162461bcd60e51b81526004016103f390611204565b6001600160a01b038216610a1e5760405162461bcd60e51b8152602060048201526024808201527f4552433732313a207472616e7366657220746f20746865207a65726f206164646044820152637265737360e01b60648201526084016103f3565b826001600160a01b0316610a31826104fd565b6001600160a01b031614610a575760405162461bcd60e51b81526004016103f390611204565b600081815260046020908152604080832080546001600160a01b03199081169091556001600160a01b0387811680865260038552838620805460001901905590871680865283862080546001019055868652600290945282852080549092168417909155905184937fddf252ad1be2c89b69c2b068fc378daa952ba7f163c4a11628f55a4df523b3ef91a4505050565b6104a3828260405180602001604052806000815250610c95565b816001600160a01b0316836001600160a01b031603610b625760405162461bcd60e51b815260206004820152601960248201527f4552433732313a20617070726f766520746f2063616c6c65720000000000000060448201526064016103f3565b6001600160a01b03838116600081815260056020908152604080832094871680845294825291829020805460ff191686151590811790915591519182527f17307eab39ab6107e8899845ad3d59bd9653f200f220920489ca2b5937696c31910160405180910390a3505050565b610bda848484610983565b610be684848484610cc8565b61062f5760405162461bcd60e51b81526004016103f390611249565b60606000610c0f83610dc9565b600101905060008167ffffffffffffffff811115610c2f57610c2f611029565b6040519080825280601f01601f191660200182016040528015610c59576020820181803683370190505b5090508181016020015b600019016f181899199a1a9b1b9c1cb0b131b232b360811b600a86061a8153600a8504945084610c6357509392505050565b610c9f8383610779565b610cac6000848484610cc8565b6104945760405162461bcd60e51b81526004016103f390611249565b60006001600160a01b0384163b15610dbe57604051630a85bd0160e11b81526001600160a01b0385169063150b7a0290610d0c90339089908890889060040161129b565b6020604051808303816000875af1925050508015610d47575060408051601f3d908101601f19168201909252610d44918101906112d8565b60015b610da4573d808015610d75576040519150601f19603f3d011682016040523d82523d6000602084013e610d7a565b606091505b508051600003610d9c5760405162461bcd60e51b81526004016103f390611249565b805181602001fd5b6001600160e01b031916630a85bd0160e11b14905061097b565b506001949350505050565b60008072184f03e93ff9f4daa797ed6e38ed64bf6a1f0160401b8310610e085772184f03e93ff9f4daa797ed6e38ed64bf6a1f0160401b830492506040015b6d04ee2d6d415b85acef81000000008310610e34576d04ee2d6d415b85acef8100000000830492506020015b662386f26fc100008310610e5257662386f26fc10000830492506010015b6305f5e1008310610e6a576305f5e100830492506008015b6127108310610e7e57612710830492506004015b60648310610e90576064830492506002015b600a83106102c05760010192915050565b6001600160e01b03198116811461070857600080fd5b600060208284031215610ec957600080fd5b81356106a281610ea1565b60005b83811015610eef578181015183820152602001610ed7565b50506000910152565b60008151808452610f10816020860160208601610ed4565b601f01601f19169290920160200192915050565b6020815260006106a26020830184610ef8565b600060208284031215610f4957600080fd5b5035919050565b80356001600160a01b0381168114610f6757600080fd5b919050565b60008060408385031215610f7f57600080fd5b610f8883610f50565b946020939093013593505050565b600080600060608486031215610fab57600080fd5b610fb484610f50565b9250610fc260208501610f50565b9150604084013590509250925092565b600060208284031215610fe457600080fd5b6106a282610f50565b6000806040838503121561100057600080fd5b61100983610f50565b91506020830135801515811461101e57600080fd5b809150509250929050565b634e487b7160e01b600052604160045260246000fd5b6000806000806080858703121561105557600080fd5b61105e85610f50565b935061106c60208601610f50565b925060408501359150606085013567ffffffffffffffff8082111561109057600080fd5b818701915087601f8301126110a457600080fd5b8135818111156110b6576110b6611029565b604051601f8201601f19908116603f011681019083821181831017156110de576110de611029565b816040528281528a60208487010111156110f757600080fd5b82602086016020830137600060208483010152809550505050505092959194509250565b6000806040838503121561112e57600080fd5b61113783610f50565b915061114560208401610f50565b90509250929050565b600181811c9082168061116257607f821691505b60208210810361118257634e487b7160e01b600052602260045260246000fd5b50919050565b6020808252602d908201527f4552433732313a2063616c6c6572206973206e6f7420746f6b656e206f776e6560408201526c1c881bdc88185c1c1c9bdd9959609a1b606082015260800190565b600083516111e7818460208801610ed4565b8351908301906111fb818360208801610ed4565b01949350505050565b60208082526025908201527f4552433732313a207472616e736665722066726f6d20696e636f72726563742060408201526437bbb732b960d91b606082015260800190565b60208082526032908201527f4552433732313a207472616e7366657220746f206e6f6e20455243373231526560408201527131b2b4bb32b91034b6b83632b6b2b73a32b960711b606082015260800190565b6001600160a01b03858116825284166020820152604081018390526080606082018190526000906112ce90830184610ef8565b9695505050505050565b6000602082840312156112ea57600080fd5b81516106a281610ea156fea164736f6c6343000814000a","linkReferences":{}},"methodIdentifiers":{"approve(address,uint256)":"095ea7b3","balanceOf(address)":"70a08231","betterMint(address,uint256)":"2c70bf15","getApproved(uint256)":"081812fc","isApprovedForAll(address,address)":"e985e9c5","name()":"06fdde03","ownerOf(uint256)":"6352211e","safeTransferFrom(address,address,uint256)":"42842e0e","safeTransferFrom(address,address,uint256,bytes)":"b88d4fde","setApprovalForAll(address,bool)":"a22cb465","supportsInterface(bytes4)":"01ffc9a7","symbol()":"95d89b41","tokenURI(uint256)":"c87b56dd","transferFrom(address,address,uint256)":"23b872dd","unsafeMint(address,uint256)":"168e4ae0"},"id":31}