{"abi":[{"type":"function","name":"bar","inputs":[],"outputs":[],"stateMutability":"nonpayable"},{"type":"function","name":"baz","inputs":[],"outputs":[],"stateMutability":"pure"},{"type":"function","name":"doSomething","inputs":[{"name":"somethingElse","type":"uint256","internalType":"uint256"}],"outputs":[],"stateMutability":"nonpayable"},{"type":"function","name":"doSomethingElse","inputs":[{"name":"target","type":"address","internalType":"address"}],"outputs":[],"stateMutability":"nonpayable"},{"type":"function","name":"foo","inputs":[],"outputs":[],"stateMutability":"nonpayable"},{"type":"function","name":"recoverThatThang","inputs":[{"name":"v","type":"uint8","internalType":"uint8"},{"name":"r","type":"bytes32","internalType":"bytes32"},{"name":"s","type":"bytes32","internalType":"bytes32"},{"name":"theHash","type":"bytes32","internalType":"bytes32"}],"outputs":[{"name":"","type":"address","internalType":"address"}],"stateMutability":"pure"},{"type":"event","name":"Do","inputs":[{"name":"something","type":"uint256","indexed":false,"internalType":"uint256"}],"anonymous":false},{"type":"event","name":"DoSomethingElse","inputs":[{"name":"somethingElse","type":"uint256","indexed":false,"internalType":"uint256"}],"anonymous":false},{"type":"event","name":"DoSomethingElseWithIndex","inputs":[{"name":"somethingElse","type":"uint256","indexed":true,"internalType":"uint256"}],"anonymous":false},{"type":"error","name":"BigError","inputs":[{"name":"something","type":"uint256","internalType":"uint256"}]}],"bytecode":{"object":"0x608060405234801561001057600080fd5b506103a1806100206000396000f3fe608060405234801561001057600080fd5b50600436106100625760003560e01c80637277d9d214610067578063a5666fa21461007c578063a6b206bf146100ab578063a7916fac146100be578063c2985578146100c6578063febb0f7e146100ce575b600080fd5b61007a6100753660046102b4565b6100d6565b005b61008f61008a3660046102e4565b61018e565b6040516001600160a01b03909116815260200160405180910390f35b61007a6100b9366004610325565b6101f6565b61007a61022c565b61007a61024c565b61007a610283565b60005b600381101561018a57816001600160a01b0316816040516024016100ff91815260200190565b60408051601f198184030181529181526020820180516001600160e01b031663a6b206bf60e01b17905251610134919061033e565b600060405180830381855af49150503d806000811461016f576040519150601f19603f3d011682016040523d82523d6000602084013e610174565b606091505b50505080806101829061036d565b9150506100d9565b5050565b6040805160008082526020820180845284905260ff871692820192909252606081018590526080810184905260019060a0016020604051602081039080840390855afa1580156101e2573d6000803e3d6000fd5b5050604051601f1901519695505050505050565b6040518181527f33782d62d9804c35aa012275d93a348a1ce28d2558032fbf95b540356f7c900a9060200160405180910390a150565b6040516318f1d2d360e31b81526003600482015260240160405180910390fd5b604051600081527f2ad1127294a42a5200f9832aacf01f051e55151abd09c0d2a055e56b214ebd4c906020015b60405180910390a1565b604051600181527f33782d62d9804c35aa012275d93a348a1ce28d2558032fbf95b540356f7c900a90602001610279565b6000602082840312156102c657600080fd5b81356001600160a01b03811681146102dd57600080fd5b9392505050565b600080600080608085870312156102fa57600080fd5b843560ff8116811461030b57600080fd5b966020860135965060408601359560600135945092505050565b60006020828403121561033757600080fd5b5035919050565b6000825160005b8181101561035f5760208186018101518583015201610345565b506000920191825250919050565b60006001820161038d57634e487b7160e01b600052601160045260246000fd5b506001019056fea164736f6c6343000814000a","linkReferences":{}},"methodIdentifiers":{"bar()":"febb0f7e","baz()":"a7916fac","doSomething(uint256)":"a6b206bf","doSomethingElse(address)":"7277d9d2","foo()":"c2985578","recoverThatThang(uint8,bytes32,bytes32,bytes32)":"a5666fa2"},"id":36}