{"abi":[{"type":"function","name":"setOwner","inputs":[{"name":"_owner","type":"address","internalType":"address"}],"outputs":[],"stateMutability":"nonpayable"},{"type":"function","name":"someOtherImportantThing","inputs":[],"outputs":[],"stateMutability":"nonpayable"}],"bytecode":{"object":"0x6080604052348015600f57600080fd5b5060828061001e6000396000f3fe6080604052348015600f57600080fd5b506004361060325760003560e01c806313af40351460375780632253cc49146045575b600080fd5b604560423660046047565b50565b005b600060208284031215605857600080fd5b81356001600160a01b0381168114606e57600080fd5b939250505056fea164736f6c6343000814000a","linkReferences":{}},"methodIdentifiers":{"setOwner(address)":"13af4035","someOtherImportantThing()":"2253cc49"},"id":38}