{"abi":[{"type":"constructor","inputs":[],"stateMutability":"nonpayable"},{"type":"function","name":"owner","inputs":[],"outputs":[{"name":"","type":"address","internalType":"address"}],"stateMutability":"view"},{"type":"function","name":"setValue","inputs":[{"name":"_newValue","type":"uint256","internalType":"uint256"}],"outputs":[],"stateMutability":"nonpayable"},{"type":"function","name":"value","inputs":[],"outputs":[{"name":"","type":"uint256","internalType":"uint256"}],"stateMutability":"view"}],"bytecode":{"object":"0x608060405234801561001057600080fd5b50600080546001600160a01b03191633179055610140806100326000396000f3fe608060405234801561001057600080fd5b50600436106100415760003560e01c80633fa4f2451461004657806355241077146100625780638da5cb5b14610077575b600080fd5b61004f60015481565b6040519081526020015b60405180910390f35b61007561007036600461011a565b6100a2565b005b60005461008a906001600160a01b031681565b6040516001600160a01b039091168152602001610059565b6000546001600160a01b0316331461010e5760405162461bcd60e51b815260206004820152602560248201527f4f6e6c7920746865206f776e65722063616e2063616c6c20746869732066756e60448201526431ba34b7b760d91b606482015260840160405180910390fd5b61011781600155565b50565b60006020828403121561012c57600080fd5b503591905056fea164736f6c6343000813000a","linkReferences":{}},"methodIdentifiers":{"owner()":"8da5cb5b","setValue(uint256)":"55241077","value()":"3fa4f245"},"id":11}