{"abi":[{"type":"function","name":"MC","inputs":[],"outputs":[{"name":"","type":"uint256","internalType":"uint256"}],"stateMutability":"view"}],"bytecode":{"object":"0x6080604052348015600f57600080fd5b50605480601d6000396000f3fe6080604052348015600f57600080fd5b506004361060285760003560e01c806326b97c2a14602d575b600080fd5b60356101c881565b60405190815260200160405180910390f3fea164736f6c6343000814000a","linkReferences":{}},"deployedBytecode":{"object":"0x6080604052348015600f57600080fd5b506004361060285760003560e01c806326b97c2a14602d575b600080fd5b60356101c881565b60405190815260200160405180910390f3fea164736f6c6343000814000a","linkReferences":{}},"methodIdentifiers":{"MC()":"26b97c2a"},"id":38}