{"abi":[{"type":"receive","stateMutability":"payable"},{"type":"function","name":"weak1","inputs":[],"outputs":[{"name":"","type":"uint256","internalType":"uint256"}],"stateMutability":"nonpayable"},{"type":"function","name":"weak2","inputs":[],"outputs":[{"name":"","type":"uint256","internalType":"uint256"}],"stateMutability":"nonpayable"}],"bytecode":{"object":"0x608060405234801561001057600080fd5b5060c98061001f6000396000f3fe608060405260043610602a5760003560e01c806371970401146035578063b66c15da14603557600080fd5b36603057005b600080fd5b348015604057600080fd5b5060476059565b60405190815260200160405180910390f35b60008060656001436096565b6040805191406020830152429082015260600160408051601f19818403018152919052805160209091012092915050565b8181038181111560b657634e487b7160e01b600052601160045260246000fd5b9291505056fea164736f6c6343000818000a","linkReferences":{}},"methodIdentifiers":{"weak1()":"71970401","weak2()":"b66c15da"},"id":0}