{
    "abi": [
        {
            "type": "function",
            "name": "bytes1Value",
            "inputs": [],
            "outputs": [
                {
                    "name": "",
                    "type": "bytes1",
                    "internalType": "bytes1"
                }
            ],
            "stateMutability": "view"
        },
        {
            "type": "function",
            "name": "int8Value",
            "inputs": [],
            "outputs": [
                {
                    "name": "",
                    "type": "int8",
                    "internalType": "int8"
                }
            ],
            "stateMutability": "view"
        },
        {
            "type": "function",
            "name": "uint8Value",
            "inputs": [],
            "outputs": [
                {
                    "name": "",
                    "type": "uint8",
                    "internalType": "uint8"
                }
            ],
            "stateMutability": "view"
        },
        {
            "type": "function",
            "name": "unsafeBytes32Casting",
            "inputs": [],
            "outputs": [],
            "stateMutability": "nonpayable"
        },
        {
            "type": "function",
            "name": "unsafeIntCasting",
            "inputs": [],
            "outputs": [],
            "stateMutability": "nonpayable"
        },
        {
            "type": "function",
            "name": "unsafeUintCasting",
            "inputs": [],
            "outputs": [],
            "stateMutability": "nonpayable"
        }
    ],
    "bytecode": {
        "object": "0x60806040526000805462ffffff19166212ee1217905534801561002157600080fd5b5061011d806100316000396000f3fe608060405234801561001057600080fd5b50600436106100625760003560e01c8063454ef1461461006757806364a7d68314610092578063aaef20ea146100a5578063b8059532146100c4578063cc84c0d5146100d5578063fd23b3fe146100e4575b600080fd5b6000805461007a91610100909104900b81565b60405160009190910b81526020015b60405180910390f35b6000805462ff0000191662120000179055005b6000546100b29060ff1681565b60405160ff9091168152602001610089565b6000805461ff001916611100179055005b6000805460ff191660ef179055005b6000546100f79062010000900460f81b81565b6040516001600160f81b0319909116815260200161008956fea164736f6c6343000813000a",
        "linkReferences": {}
    },
    "methodIdentifiers": {
        "bytes1Value()": "fd23b3fe",
        "int8Value()": "454ef146",
        "uint8Value()": "aaef20ea",
        "unsafeBytes32Casting()": "64a7d683",
        "unsafeIntCasting()": "b8059532",
        "unsafeUintCasting()": "cc84c0d5"
    },
    "id": 8
}