{"abi":[{"type":"function","name":"add","inputs":[{"name":"num1","type":"uint256","internalType":"uint256"},{"name":"num2","type":"uint256","internalType":"uint256"}],"outputs":[{"name":"result","type":"uint256","internalType":"uint256"}],"stateMutability":"pure"},{"type":"function","name":"addWithCheck","inputs":[{"name":"num1","type":"uint256","internalType":"uint256"},{"name":"num2","type":"uint256","internalType":"uint256"}],"outputs":[{"name":"result","type":"uint256","internalType":"uint256"}],"stateMutability":"pure"},{"type":"function","name":"addWithCheck2","inputs":[{"name":"num1","type":"uint256","internalType":"uint256"},{"name":"num2","type":"uint256","internalType":"uint256"}],"outputs":[{"name":"result","type":"uint256","internalType":"uint256"}],"stateMutability":"pure"},{"type":"function","name":"counter","inputs":[],"outputs":[{"name":"","type":"uint256","internalType":"uint256"}],"stateMutability":"view"},{"type":"function","name":"decrementCounter","inputs":[],"outputs":[],"stateMutability":"nonpayable"},{"type":"function","name":"decrementCounter2","inputs":[],"outputs":[],"stateMutability":"nonpayable"},{"type":"function","name":"decrementCounter3","inputs":[],"outputs":[],"stateMutability":"nonpayable"},{"type":"function","name":"decrementCounter4","inputs":[],"outputs":[],"stateMutability":"nonpayable"},{"type":"function","name":"div","inputs":[{"name":"num1","type":"uint256","internalType":"uint256"},{"name":"num2","type":"uint256","internalType":"uint256"}],"outputs":[{"name":"result","type":"uint256","internalType":"uint256"}],"stateMutability":"pure"},{"type":"function","name":"divWithCheck","inputs":[{"name":"num1","type":"uint256","internalType":"uint256"},{"name":"num2","type":"uint256","internalType":"uint256"}],"outputs":[{"name":"result","type":"uint256","internalType":"uint256"}],"stateMutability":"pure"},{"type":"function","name":"divWithCheck2","inputs":[{"name":"num1","type":"uint256","internalType":"uint256"},{"name":"num2","type":"uint256","internalType":"uint256"}],"outputs":[{"name":"result","type":"uint256","internalType":"uint256"}],"stateMutability":"pure"},{"type":"function","name":"incrementCounter","inputs":[],"outputs":[],"stateMutability":"nonpayable"},{"type":"function","name":"incrementCounter2","inputs":[],"outputs":[],"stateMutability":"nonpayable"},{"type":"function","name":"incrementCounter3","inputs":[],"outputs":[],"stateMutability":"nonpayable"},{"type":"function","name":"incrementCounter4","inputs":[],"outputs":[],"stateMutability":"nonpayable"},{"type":"function","name":"mul","inputs":[{"name":"num1","type":"uint256","internalType":"uint256"},{"name":"num2","type":"uint256","internalType":"uint256"}],"outputs":[{"name":"result","type":"uint256","internalType":"uint256"}],"stateMutability":"pure"},{"type":"function","name":"mulWithCheck","inputs":[{"name":"num1","type":"uint256","internalType":"uint256"},{"name":"num2","type":"uint256","internalType":"uint256"}],"outputs":[{"name":"result","type":"uint256","internalType":"uint256"}],"stateMutability":"pure"},{"type":"function","name":"mulWithCheck2","inputs":[{"name":"num1","type":"uint256","internalType":"uint256"},{"name":"num2","type":"uint256","internalType":"uint256"}],"outputs":[{"name":"result","type":"uint256","internalType":"uint256"}],"stateMutability":"pure"},{"type":"function","name":"sub","inputs":[{"name":"num1","type":"uint256","internalType":"uint256"},{"name":"num2","type":"uint256","internalType":"uint256"}],"outputs":[{"name":"result","type":"uint256","internalType":"uint256"}],"stateMutability":"pure"},{"type":"function","name":"subWithCheck","inputs":[{"name":"num1","type":"uint256","internalType":"uint256"},{"name":"num2","type":"uint256","internalType":"uint256"}],"outputs":[{"name":"result","type":"uint256","internalType":"uint256"}],"stateMutability":"pure"},{"type":"function","name":"subWithCheck2","inputs":[{"name":"num1","type":"uint256","internalType":"uint256"},{"name":"num2","type":"uint256","internalType":"uint256"}],"outputs":[{"name":"result","type":"uint256","internalType":"uint256"}],"stateMutability":"pure"}],"bytecode":{"object":"0x608060405234801561001057600080fd5b5061058a806100206000396000f3fe608060405234801561001057600080fd5b50600436106101375760003560e01c806395c6df37116100b8578063c8a4ac9c1161007c578063c8a4ac9c14610275578063d563cae81461020c578063d9c112b51461019b578063e794341d14610298578063f561644a146101be578063f5c5ad831461018357610137565b806395c6df3714610204578063974b9cda1461013c5780639fa793591461020c578063a391c15b1461022f578063b67d77c51461025257610137565b806366b30a2b116100ff57806366b30a2b146101935780636bc5a997146101835780636d8e7b911461019b578063718188a7146101be578063771602f7146101e157610137565b806322f630c61461013c5780632fb28c811461017157806357d6d8141461017b5780635b34b9661461018357806361bc221a1461018b575b600080fd5b61015f6004803603604081101561015257600080fd5b50803590602001356102a0565b60408051918252519081900360200190f35b6101796102f7565b005b61017961034d565b610179610342565b61015f610359565b61017961035f565b61015f600480360360408110156101b157600080fd5b50803590602001356103a7565b61015f600480360360408110156101d457600080fd5b5080359060200135610422565b61015f600480360360408110156101f757600080fd5b508035906020013561047a565b61017961047e565b61015f6004803603604081101561022257600080fd5b50803590602001356104ca565b61015f6004803603604081101561024557600080fd5b508035906020013561051f565b61015f6004803603604081101561026857600080fd5b508035906020013561052a565b61015f6004803603604081101561028b57600080fd5b508035906020013561052f565b610179610533565b6000828201838110156102ee576040805162461bcd60e51b81526020600482015260116024820152704164646974696f6e206f766572666c6f7760781b604482015290519081900360640190fd5b90505b92915050565b60001960005410610342576040805162461bcd60e51b815260206004820152601060248201526f436f756e746572206f766572666c6f7760801b604482015290519081900360640190fd5b600080546001019055565b60008054600019019055565b60005481565b60005461034d576040805162461bcd60e51b8152602060048201526011602482015270436f756e74657220756e646572666c6f7760781b604482015290519081900360640190fd5b60008215806103b4575081155b156103c1575060006102f1565b50818102818382816103cf57fe5b04146102f1576040805162461bcd60e51b815260206004820152601760248201527f4d756c7469706c69636174696f6e206f766572666c6f77000000000000000000604482015290519081900360640190fd5b600081610469576040805162461bcd60e51b815260206004820152601060248201526f4469766973696f6e206279207a65726f60801b604482015290519081900360640190fd5b81838161047257fe5b049392505050565b0190565b6000196000541415610342576040805162461bcd60e51b815260206004820152601060248201526f436f756e746572206f766572666c6f7760801b604482015290519081900360640190fd5b600081831015610519576040805162461bcd60e51b81526020600482015260156024820152745375627472616374696f6e20756e646572666c6f7760581b604482015290519081900360640190fd5b50900390565b600081838161047257fe5b900390565b0290565b600080541161034d576040805162461bcd60e51b8152602060048201526011602482015270436f756e74657220756e646572666c6f7760781b604482015290519081900360640190fdfea164736f6c6343000706000a","linkReferences":{}},"methodIdentifiers":{"add(uint256,uint256)":"771602f7","addWithCheck(uint256,uint256)":"974b9cda","addWithCheck2(uint256,uint256)":"22f630c6","counter()":"61bc221a","decrementCounter()":"f5c5ad83","decrementCounter2()":"57d6d814","decrementCounter3()":"e794341d","decrementCounter4()":"66b30a2b","div(uint256,uint256)":"a391c15b","divWithCheck(uint256,uint256)":"f561644a","divWithCheck2(uint256,uint256)":"718188a7","incrementCounter()":"5b34b966","incrementCounter2()":"6bc5a997","incrementCounter3()":"2fb28c81","incrementCounter4()":"95c6df37","mul(uint256,uint256)":"c8a4ac9c","mulWithCheck(uint256,uint256)":"6d8e7b91","mulWithCheck2(uint256,uint256)":"d9c112b5","sub(uint256,uint256)":"b67d77c5","subWithCheck(uint256,uint256)":"d563cae8","subWithCheck2(uint256,uint256)":"9fa79359"},"id":0}