{"abi":[{"type":"function","name":"add","inputs":[{"name":"num1","type":"uint256","internalType":"uint256"},{"name":"num2","type":"uint256","internalType":"uint256"}],"outputs":[{"name":"result","type":"uint256","internalType":"uint256"}],"stateMutability":"pure"},{"type":"function","name":"counter","inputs":[],"outputs":[{"name":"","type":"uint256","internalType":"uint256"}],"stateMutability":"view"},{"type":"function","name":"decrementCounter","inputs":[],"outputs":[],"stateMutability":"nonpayable"},{"type":"function","name":"incrementCounter","inputs":[],"outputs":[],"stateMutability":"nonpayable"},{"type":"function","name":"sub","inputs":[{"name":"num1","type":"uint256","internalType":"uint256"},{"name":"num2","type":"uint256","internalType":"uint256"}],"outputs":[{"name":"result","type":"uint256","internalType":"uint256"}],"stateMutability":"pure"}],"bytecode":{"object":"0x608060405234801561001057600080fd5b5060dc8061001f6000396000f3fe6080604052348015600f57600080fd5b506004361060505760003560e01c80635b34b96614605557806361bc221a14605d578063771602f7146075578063b67d77c5146095578063f5c5ad83146055575b600080fd5b605b60b5565b005b606360c0565b60408051918252519081900360200190f35b606360048036036040811015608957600080fd5b508035906020013560c6565b60636004803603604081101560a957600080fd5b508035906020013560ca565b600080546001019055565b60005481565b0190565b90039056fea164736f6c634300060c000a","linkReferences":{}},"methodIdentifiers":{"add(uint256,uint256)":"771602f7","counter()":"61bc221a","decrementCounter()":"f5c5ad83","incrementCounter()":"5b34b966","sub(uint256,uint256)":"b67d77c5"},"id":0}