{"abi":[{"type":"constructor","inputs":[],"stateMutability":"nonpayable"},{"type":"fallback","stateMutability":"payable"},{"type":"receive","stateMutability":"payable"},{"type":"function","name":"emptyBlockInsideNormalFunction","inputs":[],"outputs":[],"stateMutability":"nonpayable"},{"type":"function","name":"emptyBlockWithCommentInsideNormalFunction","inputs":[],"outputs":[],"stateMutability":"nonpayable"},{"type":"function","name":"emptyFunction","inputs":[],"outputs":[],"stateMutability":"nonpayable"},{"type":"function","name":"emptyFunctionWithComment","inputs":[],"outputs":[],"stateMutability":"nonpayable"},{"type":"event","name":"EmptyEvent","inputs":[],"anonymous":false}],"bytecode":{"object":"0x6080604052348015600f57600080fd5b5060988061001e6000396000f3fe608060405260043610603b5760003560e01c80630278497114604357806307b53cef146055578063c8b29809146055578063cc64e52d14604357005b36604157005b005b348015604e57600080fd5b5060416060565b348015604157600080fd5b6040517fcf16a92280c1bbb43f72d31126b724d508df2877835849e8744017ab36a9b47f90600090a156fea164736f6c6343000813000a","linkReferences":{}},"methodIdentifiers":{"emptyBlockInsideNormalFunction()":"cc64e52d","emptyBlockWithCommentInsideNormalFunction()":"02784971","emptyFunction()":"c8b29809","emptyFunctionWithComment()":"07b53cef"},"id":0}