{
  "_format": "hh-sol-artifact-1",
  "contractName": "InheritanceBase",
  "sourceName": "contracts/InheritanceBase.sol",
  "abi": [
    {
      "anonymous": false,
      "inputs": [
        {
          "indexed": false,
          "internalType": "uint256",
          "name": "something",
          "type": "uint256"
        }
      ],
      "name": "Do",
      "type": "event"
    },
    {
      "inputs": [
        {
          "internalType": "uint256",
          "name": "something",
          "type": "uint256"
        }
      ],
      "name": "doSomething",
      "outputs": [],
      "stateMutability": "nonpayable",
      "type": "function"
    }
  ],
  "bytecode": "0x608060405234801561001057600080fd5b5061014e806100206000396000f3fe608060405234801561001057600080fd5b506004361061002b5760003560e01c8063a6b206bf14610030575b600080fd5b61004a600480360381019061004591906100c1565b61004c565b005b7f2ad1127294a42a5200f9832aacf01f051e55151abd09c0d2a055e56b214ebd4c8160405161007b91906100fd565b60405180910390a150565b600080fd5b6000819050919050565b61009e8161008b565b81146100a957600080fd5b50565b6000813590506100bb81610095565b92915050565b6000602082840312156100d7576100d6610086565b5b60006100e5848285016100ac565b91505092915050565b6100f78161008b565b82525050565b600060208201905061011260008301846100ee565b9291505056fea2646970667358221220bf22606c5b554878a183eb94c6d8d4f82fce03670d1285d5b85d2cc78ad83f2164736f6c63430008140033",
  "linkReferences": {},
  "deployedLinkReferences": {}
}