{
  "abi": [
    {
      "inputs": [
        {
          "internalType": "contract IERC20",
          "name": "token",
          "type": "address"
        }
      ],
      "stateMutability": "nonpayable",
      "type": "constructor"
    },
    {
      "inputs": [
        {
          "internalType": "address",
          "name": "from",
          "type": "address"
        },
        {
          "internalType": "address",
          "name": "to",
          "type": "address"
        },
        {
          "internalType": "uint256",
          "name": "amount",
          "type": "uint256"
        }
      ],
      "name": "bad2",
      "outputs": [],
      "stateMutability": "nonpayable",
      "type": "function"
    },
    {
      "inputs": [
        {
          "internalType": "address",
          "name": "from",
          "type": "address"
        },
        {
          "internalType": "address",
          "name": "to",
          "type": "address"
        },
        {
          "internalType": "uint256",
          "name": "amount",
          "type": "uint256"
        }
      ],
      "name": "bad3",
      "outputs": [],
      "stateMutability": "nonpayable",
      "type": "function"
    },
    {
      "inputs": [
        {
          "internalType": "address",
          "name": "to",
          "type": "address"
        },
        {
          "internalType": "uint256",
          "name": "am",
          "type": "uint256"
        }
      ],
      "name": "good1",
      "outputs": [],
      "stateMutability": "nonpayable",
      "type": "function"
    },
    {
      "inputs": [
        {
          "internalType": "address",
          "name": "to",
          "type": "address"
        },
        {
          "internalType": "uint256",
          "name": "amount",
          "type": "uint256"
        }
      ],
      "name": "good2",
      "outputs": [],
      "stateMutability": "nonpayable",
      "type": "function"
    },
    {
      "inputs": [
        {
          "internalType": "address",
          "name": "to",
          "type": "address"
        },
        {
          "internalType": "uint256",
          "name": "amount",
          "type": "uint256"
        }
      ],
      "name": "good3",
      "outputs": [],
      "stateMutability": "nonpayable",
      "type": "function"
    },
    {
      "inputs": [
        {
          "internalType": "address",
          "name": "to",
          "type": "address"
        },
        {
          "internalType": "uint256",
          "name": "amount",
          "type": "uint256"
        }
      ],
      "name": "good4",
      "outputs": [],
      "stateMutability": "nonpayable",
      "type": "function"
    },
    {
      "inputs": [
        {
          "internalType": "address",
          "name": "from",
          "type": "address"
        },
        {
          "internalType": "address",
          "name": "to",
          "type": "address"
        },
        {
          "internalType": "uint256",
          "name": "amount",
          "type": "uint256"
        }
      ],
      "name": "good5",
      "outputs": [],
      "stateMutability": "nonpayable",
      "type": "function"
    }
  ],
  "bytecode": {
    "object": "0x608060405234801561001057600080fd5b5060405161066538038061066583398101604081905261002f91610054565b600080546001600160a01b0319166001600160a01b0392909216919091179055610084565b60006020828403121561006657600080fd5b81516001600160a01b038116811461007d57600080fd5b9392505050565b6105d2806100936000396000f3fe608060405234801561001057600080fd5b506004361061007d5760003560e01c806369dd54721161005b57806369dd54721461009757806382225f51146100aa5780639dfd53b6146100bd578063ccd8365d146100d057600080fd5b8063273e64b21461008257806342083ffe146100825780634b11852214610097575b600080fd5b61009561009036600461049a565b6100e3565b005b6100956100a53660046104c4565b6100ff565b6100956100b83660046104c4565b61011c565b6100956100cb36600461049a565b610134565b6100956100de36600461049a565b61014c565b6000546100fb906001600160a01b03163384846101d1565b5050565b600054610117906001600160a01b03168484846101d1565b505050565b600054610117906001600160a01b03163084846101d1565b6000546100fb906001600160a01b03163084846101d1565b6000546040516323b872dd60e01b815233600482018190526001600160a01b03858116602484015260448301859052909216906323b872dd906064016020604051808303816000875af11580156101a7573d6000803e3d6000fd5b505050506040513d601f19601f820116820180604052508101906101cb9190610500565b50505050565b604080516001600160a01b038581166024830152848116604483015260648083018590528351808403909101815260849092018352602080830180516001600160e01b03166323b872dd60e01b17905283518085019094528084527f5361666545524332303a206c6f772d6c6576656c2063616c6c206661696c6564908401526101cb928792916000916102699185169084906102ee565b905080516000148061028a57508080602001905181019061028a9190610500565b6101175760405162461bcd60e51b815260206004820152602a60248201527f5361666545524332303a204552433230206f7065726174696f6e20646964206e6044820152691bdd081cdd58d8d9595960b21b60648201526084015b60405180910390fd5b60606102fd8484600085610305565b949350505050565b6060824710156103665760405162461bcd60e51b815260206004820152602660248201527f416464726573733a20696e73756666696369656e742062616c616e636520666f6044820152651c8818d85b1b60d21b60648201526084016102e5565b600080866001600160a01b03168587604051610382919061054d565b60006040518083038185875af1925050503d80600081146103bf576040519150601f19603f3d011682016040523d82523d6000602084013e6103c4565b606091505b50915091506103d5878383876103e0565b979650505050505050565b6060831561044f578251600003610448576001600160a01b0385163b6104485760405162461bcd60e51b815260206004820152601d60248201527f416464726573733a2063616c6c20746f206e6f6e2d636f6e747261637400000060448201526064016102e5565b50816102fd565b6102fd83838151156104645781518083602001fd5b8060405162461bcd60e51b81526004016102e59190610569565b80356001600160a01b038116811461049557600080fd5b919050565b600080604083850312156104ad57600080fd5b6104b68361047e565b946020939093013593505050565b6000806000606084860312156104d957600080fd5b6104e28461047e565b92506104f06020850161047e565b9150604084013590509250925092565b60006020828403121561051257600080fd5b8151801515811461052257600080fd5b9392505050565b60005b8381101561054457818101518382015260200161052c565b50506000910152565b6000825161055f818460208701610529565b9190910192915050565b6020815260008251806020840152610588816040850160208701610529565b601f01601f1916919091016040019291505056fea2646970667358221220ec129167e13dd0106c5bbe84e779056226ed9e406f7a202064299913a19787a264736f6c63430008130033",
    "linkReferences": {}
  },
  "methodIdentifiers": {
    "bad2(address,address,uint256)": "4b118522",
    "bad3(address,address,uint256)": "69dd5472",
    "good1(address,uint256)": "ccd8365d",
    "good2(address,uint256)": "42083ffe",
    "good3(address,uint256)": "273e64b2",
    "good4(address,uint256)": "9dfd53b6",
    "good5(address,address,uint256)": "82225f51"
  },
  "id": 4
}