{"abi":[{"type":"constructor","inputs":[{"name":"setTarget","type":"address","internalType":"address"}],"stateMutability":"nonpayable"},{"type":"function","name":"externalFunctionCallFromParameter","inputs":[{"name":"myTarget","type":"address","internalType":"contract ExternalContractInterface"},{"name":"newOwner","type":"address","internalType":"address"}],"outputs":[],"stateMutability":"nonpayable"},{"type":"function","name":"externalFunctionCallFromStorage","inputs":[{"name":"newOwner","type":"address","internalType":"address"}],"outputs":[],"stateMutability":"nonpayable"},{"type":"function","name":"externalFunctionCallUsingAddressFromParameter","inputs":[{"name":"myTarget","type":"address","internalType":"contract ExternalContractInterface"},{"name":"newOwner","type":"address","internalType":"address"}],"outputs":[],"stateMutability":"nonpayable"},{"type":"function","name":"externalFunctionCallUsingAddressFromStorage","inputs":[{"name":"newOwner","type":"address","internalType":"address"}],"outputs":[],"stateMutability":"nonpayable"},{"type":"function","name":"rawCallFromParameter","inputs":[{"name":"myTarget","type":"address","internalType":"address"},{"name":"data","type":"bytes","internalType":"bytes"}],"outputs":[{"name":"","type":"bytes","internalType":"bytes"}],"stateMutability":"nonpayable"},{"type":"function","name":"rawCallFromStorage","inputs":[{"name":"data","type":"bytes","internalType":"bytes"}],"outputs":[{"name":"","type":"bytes","internalType":"bytes"}],"stateMutability":"nonpayable"},{"type":"function","name":"rawCallToInterfaceFromParameter","inputs":[{"name":"myTarget","type":"address","internalType":"contract ExternalContractInterface"},{"name":"data","type":"bytes","internalType":"bytes"}],"outputs":[{"name":"","type":"bytes","internalType":"bytes"}],"stateMutability":"nonpayable"},{"type":"function","name":"rawCallToInterfaceFromStorage","inputs":[{"name":"data","type":"bytes","internalType":"bytes"}],"outputs":[{"name":"","type":"bytes","internalType":"bytes"}],"stateMutability":"nonpayable"},{"type":"function","name":"rawDelegateCallFromParameter","inputs":[{"name":"myTarget","type":"address","internalType":"address"},{"name":"data","type":"bytes","internalType":"bytes"}],"outputs":[{"name":"","type":"bytes","internalType":"bytes"}],"stateMutability":"nonpayable"},{"type":"function","name":"rawDelegateCallFromStorage","inputs":[{"name":"data","type":"bytes","internalType":"bytes"}],"outputs":[{"name":"","type":"bytes","internalType":"bytes"}],"stateMutability":"nonpayable"},{"type":"function","name":"rawDelegateCallToInterfaceFromParameter","inputs":[{"name":"myTarget","type":"address","internalType":"contract ExternalContractInterface"},{"name":"data","type":"bytes","internalType":"bytes"}],"outputs":[{"name":"","type":"bytes","internalType":"bytes"}],"stateMutability":"nonpayable"},{"type":"function","name":"rawDelegateCallToInterfaceFromStorage","inputs":[{"name":"data","type":"bytes","internalType":"bytes"}],"outputs":[{"name":"","type":"bytes","internalType":"bytes"}],"stateMutability":"nonpayable"}],"bytecode":{"object":"0x608060405234801561001057600080fd5b5060405161083c38038061083c83398101604081905261002f916100a9565b6001600160a01b03811661007a5760405162461bcd60e51b815260206004820152600e60248201526d125b9d985b1a59081d185c99d95d60921b604482015260640160405180910390fd5b600080546001600160a01b039092166001600160a01b03199283168117909155600180549092161790556100d9565b6000602082840312156100bb57600080fd5b81516001600160a01b03811681146100d257600080fd5b9392505050565b610754806100e86000396000f3fe608060405234801561001057600080fd5b50600436106100b45760003560e01c8063c09ce68b11610071578063c09ce68b1461011d578063cff3cb0f14610130578063de95be9c14610143578063ea9ce69214610156578063f483385514610169578063fe7243091461010a57600080fd5b80630d975cbd146100b95780632f232fc6146100ce578063558b0164146100e15780635b504b68146100e15780638ba0b5801461010a5780639be23f05146100ce575b600080fd5b6100cc6100c73660046105ac565b61017c565b005b6100cc6100dc3660046105d0565b6101df565b6100f46100ef366004610652565b61023e565b60405161010191906106a7565b60405180910390f35b6100f4610118366004610652565b6102fd565b6100cc61012b3660046105ac565b6103a7565b6100f461013e3660046106f5565b6103d9565b6100f46101513660046106f5565b610499565b6100f46101643660046106f5565b61054a565b6100f46101773660046106f5565b61056f565b6000546040516354769c9760e01b81526001600160a01b038381166004830152909116906354769c97906024015b600060405180830381600087803b1580156101c457600080fd5b505af11580156101d8573d6000803e3d6000fd5b5050505050565b6040516354769c9760e01b81526001600160a01b0382811660048301528316906354769c9790602401600060405180830381600087803b15801561022257600080fd5b505af1158015610236573d6000803e3d6000fd5b505050505050565b6060600080856001600160a01b0316858560405161025d929190610737565b600060405180830381855af49150503d8060008114610298576040519150601f19603f3d011682016040523d82523d6000602084013e61029d565b606091505b5091509150816102f45760405162461bcd60e51b815260206004820152601d60248201527f45787465726e616c2064656c65676174652063616c6c206661696c656400000060448201526064015b60405180910390fd5b95945050505050565b6060600080856001600160a01b0316858560405161031c929190610737565b6000604051808303816000865af19150503d8060008114610359576040519150601f19603f3d011682016040523d82523d6000602084013e61035e565b606091505b5091509150816102f45760405162461bcd60e51b8152602060048201526014602482015273115e1d195c9b985b0818d85b1b0819985a5b195960621b60448201526064016102eb565b6001546040516354769c9760e01b81526001600160a01b038381166004830152909116906354769c97906024016101aa565b600080546040516060929182916001600160a01b03909116906103ff9087908790610737565b600060405180830381855af49150503d806000811461043a576040519150601f19603f3d011682016040523d82523d6000602084013e61043f565b606091505b5091509150816104915760405162461bcd60e51b815260206004820152601d60248201527f45787465726e616c2064656c65676174652063616c6c206661696c656400000060448201526064016102eb565b949350505050565b600080546040516060929182916001600160a01b03909116906104bf9087908790610737565b6000604051808303816000865af19150503d80600081146104fc576040519150601f19603f3d011682016040523d82523d6000602084013e610501565b606091505b5091509150816104915760405162461bcd60e51b8152602060048201526014602482015273115e1d195c9b985b0818d85b1b0819985a5b195960621b60448201526064016102eb565b60015460405160609160009182916001600160a01b0316906103ff9087908790610737565b60015460405160609160009182916001600160a01b0316906104bf9087908790610737565b6001600160a01b03811681146105a957600080fd5b50565b6000602082840312156105be57600080fd5b81356105c981610594565b9392505050565b600080604083850312156105e357600080fd5b82356105ee81610594565b915060208301356105fe81610594565b809150509250929050565b60008083601f84011261061b57600080fd5b50813567ffffffffffffffff81111561063357600080fd5b60208301915083602082850101111561064b57600080fd5b9250929050565b60008060006040848603121561066757600080fd5b833561067281610594565b9250602084013567ffffffffffffffff81111561068e57600080fd5b61069a86828701610609565b9497909650939450505050565b600060208083528351808285015260005b818110156106d4578581018301518582016040015282016106b8565b506000604082860101526040601f19601f8301168501019250505092915050565b6000806020838503121561070857600080fd5b823567ffffffffffffffff81111561071f57600080fd5b61072b85828601610609565b90969095509350505050565b818382376000910190815291905056fea164736f6c6343000813000a","linkReferences":{}},"methodIdentifiers":{"externalFunctionCallFromParameter(address,address)":"9be23f05","externalFunctionCallFromStorage(address)":"c09ce68b","externalFunctionCallUsingAddressFromParameter(address,address)":"2f232fc6","externalFunctionCallUsingAddressFromStorage(address)":"0d975cbd","rawCallFromParameter(address,bytes)":"fe724309","rawCallFromStorage(bytes)":"de95be9c","rawCallToInterfaceFromParameter(address,bytes)":"8ba0b580","rawCallToInterfaceFromStorage(bytes)":"f4833855","rawDelegateCallFromParameter(address,bytes)":"5b504b68","rawDelegateCallFromStorage(bytes)":"cff3cb0f","rawDelegateCallToInterfaceFromParameter(address,bytes)":"558b0164","rawDelegateCallToInterfaceFromStorage(bytes)":"ea9ce692"},"id":18}