{"abi":[{"type":"function","name":"HUGE_NUMBER_1","inputs":[],"outputs":[{"name":"","type":"uint256","internalType":"uint256"}],"stateMutability":"view"},{"type":"function","name":"HUGE_NUMBER_2","inputs":[],"outputs":[{"name":"","type":"uint256","internalType":"uint256"}],"stateMutability":"view"},{"type":"function","name":"HUGE_NUMBER_3","inputs":[],"outputs":[{"name":"","type":"uint256","internalType":"uint256"}],"stateMutability":"view"},{"type":"function","name":"HUGE_NUMBER_4","inputs":[],"outputs":[{"name":"","type":"uint256","internalType":"uint256"}],"stateMutability":"view"}],"bytecode":{"object":"0x608060405234801561001057600080fd5b5060a88061001f6000396000f3fe6080604052348015600f57600080fd5b506004361060465760003560e01c80634467db3814604b578063736d153114606c5780638f204a1f14607c578063f330b01914608c575b600080fd5b605a683635c9adc5dea0000081565b60405190815260200160405180910390f35b605a69152d02c7e14af680000081565b605a69021e19e0c9bab240000081565b605a68056bc75e2d631000008156fea164736f6c6343000818000a","linkReferences":{}},"methodIdentifiers":{"HUGE_NUMBER_1()":"4467db38","HUGE_NUMBER_2()":"8f204a1f","HUGE_NUMBER_3()":"736d1531","HUGE_NUMBER_4()":"f330b019"},"id":22}