{"abi":[{"type":"function","name":"HUGE_NUMBER_1","inputs":[],"outputs":[{"name":"","type":"uint256","internalType":"uint256"}],"stateMutability":"view"},{"type":"function","name":"HUGE_NUMBER_10","inputs":[],"outputs":[{"name":"","type":"uint256","internalType":"uint256"}],"stateMutability":"view"},{"type":"function","name":"HUGE_NUMBER_11","inputs":[],"outputs":[{"name":"","type":"uint256","internalType":"uint256"}],"stateMutability":"view"},{"type":"function","name":"HUGE_NUMBER_12","inputs":[],"outputs":[{"name":"","type":"uint256","internalType":"uint256"}],"stateMutability":"view"},{"type":"function","name":"HUGE_NUMBER_13","inputs":[],"outputs":[{"name":"","type":"uint256","internalType":"uint256"}],"stateMutability":"view"},{"type":"function","name":"HUGE_NUMBER_14","inputs":[],"outputs":[{"name":"","type":"uint256","internalType":"uint256"}],"stateMutability":"view"},{"type":"function","name":"HUGE_NUMBER_15","inputs":[],"outputs":[{"name":"","type":"uint256","internalType":"uint256"}],"stateMutability":"view"},{"type":"function","name":"HUGE_NUMBER_16","inputs":[],"outputs":[{"name":"","type":"uint256","internalType":"uint256"}],"stateMutability":"view"},{"type":"function","name":"HUGE_NUMBER_17","inputs":[],"outputs":[{"name":"","type":"uint256","internalType":"uint256"}],"stateMutability":"view"},{"type":"function","name":"HUGE_NUMBER_18","inputs":[],"outputs":[{"name":"","type":"uint256","internalType":"uint256"}],"stateMutability":"view"},{"type":"function","name":"HUGE_NUMBER_19","inputs":[],"outputs":[{"name":"","type":"uint256","internalType":"uint256"}],"stateMutability":"view"},{"type":"function","name":"HUGE_NUMBER_2","inputs":[],"outputs":[{"name":"","type":"uint256","internalType":"uint256"}],"stateMutability":"view"},{"type":"function","name":"HUGE_NUMBER_20","inputs":[],"outputs":[{"name":"","type":"uint256","internalType":"uint256"}],"stateMutability":"view"},{"type":"function","name":"HUGE_NUMBER_21_GOOD","inputs":[],"outputs":[{"name":"","type":"uint256","internalType":"uint256"}],"stateMutability":"view"},{"type":"function","name":"HUGE_NUMBER_22_GOOD","inputs":[],"outputs":[{"name":"","type":"uint256","internalType":"uint256"}],"stateMutability":"view"},{"type":"function","name":"HUGE_NUMBER_23_GOOD","inputs":[],"outputs":[{"name":"","type":"uint256","internalType":"uint256"}],"stateMutability":"view"},{"type":"function","name":"HUGE_NUMBER_24_UNDERSCORES","inputs":[],"outputs":[{"name":"","type":"uint256","internalType":"uint256"}],"stateMutability":"view"},{"type":"function","name":"HUGE_NUMBER_25_UNDERSCORES","inputs":[],"outputs":[{"name":"","type":"uint256","internalType":"uint256"}],"stateMutability":"view"},{"type":"function","name":"HUGE_NUMBER_26_UNDERSCORES_GOOD","inputs":[],"outputs":[{"name":"","type":"uint256","internalType":"uint256"}],"stateMutability":"view"},{"type":"function","name":"HUGE_NUMBER_27_HEX_GOOD","inputs":[],"outputs":[{"name":"","type":"uint256","internalType":"uint256"}],"stateMutability":"view"},{"type":"function","name":"HUGE_NUMBER_28_HEX_GOOD","inputs":[],"outputs":[{"name":"","type":"uint256","internalType":"uint256"}],"stateMutability":"view"},{"type":"function","name":"HUGE_NUMBER_29_HEX_GOOD","inputs":[],"outputs":[{"name":"","type":"uint256","internalType":"uint256"}],"stateMutability":"view"},{"type":"function","name":"HUGE_NUMBER_3","inputs":[],"outputs":[{"name":"","type":"uint256","internalType":"uint256"}],"stateMutability":"view"},{"type":"function","name":"HUGE_NUMBER_30_HEX_GOOD","inputs":[],"outputs":[{"name":"","type":"uint256","internalType":"uint256"}],"stateMutability":"view"},{"type":"function","name":"HUGE_NUMBER_31_HEX_GOOD","inputs":[],"outputs":[{"name":"","type":"uint256","internalType":"uint256"}],"stateMutability":"view"},{"type":"function","name":"HUGE_NUMBER_32_HEX_GOOD","inputs":[],"outputs":[{"name":"","type":"uint256","internalType":"uint256"}],"stateMutability":"view"},{"type":"function","name":"HUGE_NUMBER_4","inputs":[],"outputs":[{"name":"","type":"uint256","internalType":"uint256"}],"stateMutability":"view"},{"type":"function","name":"HUGE_NUMBER_5","inputs":[],"outputs":[{"name":"","type":"uint256","internalType":"uint256"}],"stateMutability":"view"},{"type":"function","name":"HUGE_NUMBER_6","inputs":[],"outputs":[{"name":"","type":"uint256","internalType":"uint256"}],"stateMutability":"view"},{"type":"function","name":"HUGE_NUMBER_7","inputs":[],"outputs":[{"name":"","type":"uint256","internalType":"uint256"}],"stateMutability":"view"},{"type":"function","name":"HUGE_NUMBER_8","inputs":[],"outputs":[{"name":"","type":"uint256","internalType":"uint256"}],"stateMutability":"view"},{"type":"function","name":"HUGE_NUMBER_9","inputs":[],"outputs":[{"name":"","type":"uint256","internalType":"uint256"}],"stateMutability":"view"}],"bytecode":{"object":"0x608060405234801561001057600080fd5b50610349806100206000396000f3fe608060405234801561001057600080fd5b50600436106101f05760003560e01c80637323a1b41161010f578063b07a3aee116100a2578063ce50f39411610071578063ce50f39414610314578063cfa235b71461031f578063e173d7e31461032d578063f330b019146102f857600080fd5b8063b07a3aee14610230578063b254f493146102f8578063c81c5cfd146102ae578063cb26d7ab1461030857600080fd5b80639472072c116100de5780639472072c146102de578063a178062814610281578063a5dd87c4146102de578063acdece46146102e957600080fd5b80637323a1b4146102a1578063736d1531146102ae5780637b338886146102be5780638f204a1f146102cd57600080fd5b80634467db381161018757806354ae009b1161015657806354ae009b146102815780635859653c1461028a5780635eef2d4f146101f55780636f943ae41461029557600080fd5b80634467db381461024d5780634b9e4bb51461025e5780635200718114610266578063546d00f01461027457600080fd5b80631f01bbe7116101c35780631f01bbe71461022457806321dae9df14610230578063250f5468146102395780632f8560bc1461024357600080fd5b8063010a09e4146101f557806314f0a0e414610211578063175b809a1461021a5780631d15f09c14610211575b600080fd5b6101ff6201000081565b60405190815260200160405180910390f35b6101ff61271081565b6101ff620186a081565b6101ff64e8d4a5100081565b6101ff6103e881565b6101ff6298968081565b6101ff620f424081565b6101ff69152d02c7e14af680000081565b6101ff606481565b6101ff66038d7ea4c6800081565b6101ff655af3107a400081565b6101ff61100081565b6101ff633b9aca0081565b6101ff64174876e80081565b6101ff6509184e72a00081565b6101ff683635c9adc5dea0000081565b6101ff67016345785d8a000081565b6101ff69021e19e0c9bab240000081565b6101ff600160541b81565b6101ff670de0b6b3a764000081565b6101ff68056bc75e2d6310000081565b6101ff6402540be40081565b6101ff6305f5e10081565b6101ff662386f26fc1000081565b6101ff678ac7230489e800008156fea164736f6c6343000813000a","linkReferences":{}},"methodIdentifiers":{"HUGE_NUMBER_1()":"4467db38","HUGE_NUMBER_10()":"546d00f0","HUGE_NUMBER_11()":"7323a1b4","HUGE_NUMBER_12()":"1f01bbe7","HUGE_NUMBER_13()":"6f943ae4","HUGE_NUMBER_14()":"cb26d7ab","HUGE_NUMBER_15()":"5859653c","HUGE_NUMBER_16()":"ce50f394","HUGE_NUMBER_17()":"250f5468","HUGE_NUMBER_18()":"2f8560bc","HUGE_NUMBER_19()":"175b809a","HUGE_NUMBER_2()":"8f204a1f","HUGE_NUMBER_20()":"1d15f09c","HUGE_NUMBER_21_GOOD()":"b07a3aee","HUGE_NUMBER_22_GOOD()":"4b9e4bb5","HUGE_NUMBER_23_GOOD()":"b254f493","HUGE_NUMBER_24_UNDERSCORES()":"c81c5cfd","HUGE_NUMBER_25_UNDERSCORES()":"14f0a0e4","HUGE_NUMBER_26_UNDERSCORES_GOOD()":"21dae9df","HUGE_NUMBER_27_HEX_GOOD()":"9472072c","HUGE_NUMBER_28_HEX_GOOD()":"5eef2d4f","HUGE_NUMBER_29_HEX_GOOD()":"a1780628","HUGE_NUMBER_3()":"736d1531","HUGE_NUMBER_30_HEX_GOOD()":"a5dd87c4","HUGE_NUMBER_31_HEX_GOOD()":"010a09e4","HUGE_NUMBER_32_HEX_GOOD()":"54ae009b","HUGE_NUMBER_4()":"f330b019","HUGE_NUMBER_5()":"e173d7e3","HUGE_NUMBER_6()":"acdece46","HUGE_NUMBER_7()":"7b338886","HUGE_NUMBER_8()":"cfa235b7","HUGE_NUMBER_9()":"52007181"},"id":0}