{"abi":[{"type":"function","name":"HUGE_NUMBER_1","inputs":[],"outputs":[{"name":"","type":"uint256","internalType":"uint256"}],"stateMutability":"view"},{"type":"function","name":"HUGE_NUMBER_10","inputs":[],"outputs":[{"name":"","type":"uint256","internalType":"uint256"}],"stateMutability":"view"},{"type":"function","name":"HUGE_NUMBER_11","inputs":[],"outputs":[{"name":"","type":"uint256","internalType":"uint256"}],"stateMutability":"view"},{"type":"function","name":"HUGE_NUMBER_12","inputs":[],"outputs":[{"name":"","type":"uint256","internalType":"uint256"}],"stateMutability":"view"},{"type":"function","name":"HUGE_NUMBER_13","inputs":[],"outputs":[{"name":"","type":"uint256","internalType":"uint256"}],"stateMutability":"view"},{"type":"function","name":"HUGE_NUMBER_14","inputs":[],"outputs":[{"name":"","type":"uint256","internalType":"uint256"}],"stateMutability":"view"},{"type":"function","name":"HUGE_NUMBER_15","inputs":[],"outputs":[{"name":"","type":"uint256","internalType":"uint256"}],"stateMutability":"view"},{"type":"function","name":"HUGE_NUMBER_16","inputs":[],"outputs":[{"name":"","type":"uint256","internalType":"uint256"}],"stateMutability":"view"},{"type":"function","name":"HUGE_NUMBER_17","inputs":[],"outputs":[{"name":"","type":"uint256","internalType":"uint256"}],"stateMutability":"view"},{"type":"function","name":"HUGE_NUMBER_18","inputs":[],"outputs":[{"name":"","type":"uint256","internalType":"uint256"}],"stateMutability":"view"},{"type":"function","name":"HUGE_NUMBER_19","inputs":[],"outputs":[{"name":"","type":"uint256","internalType":"uint256"}],"stateMutability":"view"},{"type":"function","name":"HUGE_NUMBER_2","inputs":[],"outputs":[{"name":"","type":"uint256","internalType":"uint256"}],"stateMutability":"view"},{"type":"function","name":"HUGE_NUMBER_20","inputs":[],"outputs":[{"name":"","type":"uint256","internalType":"uint256"}],"stateMutability":"view"},{"type":"function","name":"HUGE_NUMBER_21_GOOD","inputs":[],"outputs":[{"name":"","type":"uint256","internalType":"uint256"}],"stateMutability":"view"},{"type":"function","name":"HUGE_NUMBER_22_GOOD","inputs":[],"outputs":[{"name":"","type":"uint256","internalType":"uint256"}],"stateMutability":"view"},{"type":"function","name":"HUGE_NUMBER_23_GOOD","inputs":[],"outputs":[{"name":"","type":"uint256","internalType":"uint256"}],"stateMutability":"view"},{"type":"function","name":"HUGE_NUMBER_3","inputs":[],"outputs":[{"name":"","type":"uint256","internalType":"uint256"}],"stateMutability":"view"},{"type":"function","name":"HUGE_NUMBER_4","inputs":[],"outputs":[{"name":"","type":"uint256","internalType":"uint256"}],"stateMutability":"view"},{"type":"function","name":"HUGE_NUMBER_5","inputs":[],"outputs":[{"name":"","type":"uint256","internalType":"uint256"}],"stateMutability":"view"},{"type":"function","name":"HUGE_NUMBER_6","inputs":[],"outputs":[{"name":"","type":"uint256","internalType":"uint256"}],"stateMutability":"view"},{"type":"function","name":"HUGE_NUMBER_7","inputs":[],"outputs":[{"name":"","type":"uint256","internalType":"uint256"}],"stateMutability":"view"},{"type":"function","name":"HUGE_NUMBER_8","inputs":[],"outputs":[{"name":"","type":"uint256","internalType":"uint256"}],"stateMutability":"view"},{"type":"function","name":"HUGE_NUMBER_9","inputs":[],"outputs":[{"name":"","type":"uint256","internalType":"uint256"}],"stateMutability":"view"}],"bytecode":{"object":"0x608060405234801561001057600080fd5b50610288806100206000396000f3fe608060405234801561001057600080fd5b506004361061014d5760003560e01c80637323a1b4116100c3578063b254f4931161007c578063b254f49314610237578063cb26d7ab14610247578063ce50f39414610253578063cfa235b71461025e578063e173d7e31461026c578063f330b0191461023757600080fd5b80637323a1b4146101e2578063736d1531146101ef5780637b338886146101ff5780638f204a1f1461020e578063acdece461461021f578063b07a3aee1461022e57600080fd5b80634467db38116101155780634467db38146101975780634b9e4bb5146101a857806352007181146101b0578063546d00f0146101be5780635859653c146101cb5780636f943ae4146101d657600080fd5b8063175b809a146101525780631d15f09c1461016e5780631f01bbe714610177578063250f5468146101835780632f8560bc1461018d575b600080fd5b61015c620186a081565b60405190815260200160405180910390f35b61015c61271081565b61015c64e8d4a5100081565b61015c6298968081565b61015c620f424081565b61015c69152d02c7e14af680000081565b61015c606481565b61015c66038d7ea4c6800081565b61015c655af3107a400081565b61015c633b9aca0081565b61015c64174876e80081565b61015c6509184e72a00081565b61015c683635c9adc5dea0000081565b61015c67016345785d8a000081565b61015c69021e19e0c9bab240000081565b61015c670de0b6b3a764000081565b61015c6103e881565b61015c68056bc75e2d6310000081565b61015c6402540be40081565b61015c6305f5e10081565b61015c662386f26fc1000081565b61015c678ac7230489e800008156fea164736f6c6343000813000a","linkReferences":{}},"methodIdentifiers":{"HUGE_NUMBER_1()":"4467db38","HUGE_NUMBER_10()":"546d00f0","HUGE_NUMBER_11()":"7323a1b4","HUGE_NUMBER_12()":"1f01bbe7","HUGE_NUMBER_13()":"6f943ae4","HUGE_NUMBER_14()":"cb26d7ab","HUGE_NUMBER_15()":"5859653c","HUGE_NUMBER_16()":"ce50f394","HUGE_NUMBER_17()":"250f5468","HUGE_NUMBER_18()":"2f8560bc","HUGE_NUMBER_19()":"175b809a","HUGE_NUMBER_2()":"8f204a1f","HUGE_NUMBER_20()":"1d15f09c","HUGE_NUMBER_21_GOOD()":"b07a3aee","HUGE_NUMBER_22_GOOD()":"4b9e4bb5","HUGE_NUMBER_23_GOOD()":"b254f493","HUGE_NUMBER_3()":"736d1531","HUGE_NUMBER_4()":"f330b019","HUGE_NUMBER_5()":"e173d7e3","HUGE_NUMBER_6()":"acdece46","HUGE_NUMBER_7()":"7b338886","HUGE_NUMBER_8()":"cfa235b7","HUGE_NUMBER_9()":"52007181"},"id":7}