{"abi":[{"type":"constructor","inputs":[{"name":"router","type":"address","internalType":"address"}],"stateMutability":"nonpayable"},{"type":"function","name":"badSwaps","inputs":[{"name":"amountIn","type":"uint256","internalType":"uint256"},{"name":"amountOutMin","type":"uint256","internalType":"uint256"},{"name":"path","type":"address[]","internalType":"address[]"},{"name":"to","type":"address","internalType":"address"},{"name":"amountOut","type":"uint256","internalType":"uint256"},{"name":"amountInMax","type":"uint256","internalType":"uint256"}],"outputs":[],"stateMutability":"nonpayable"},{"type":"function","name":"goodSwaps","inputs":[{"name":"amountIn","type":"uint256","internalType":"uint256"},{"name":"amountOutMin","type":"uint256","internalType":"uint256"},{"name":"path","type":"address[]","internalType":"address[]"},{"name":"to","type":"address","internalType":"address"},{"name":"amountOut","type":"uint256","internalType":"uint256"},{"name":"amountInMax","type":"uint256","internalType":"uint256"},{"name":"deadline","type":"uint256","internalType":"uint256"}],"outputs":[],"stateMutability":"nonpayable"}],"bytecode":{"object":"0x608060405234801561001057600080fd5b50604051610c73380380610c7383398101604081905261002f91610054565b600080546001600160a01b0319166001600160a01b0392909216919091179055610084565b60006020828403121561006657600080fd5b81516001600160a01b038116811461007d57600080fd5b9392505050565b610be0806100936000396000f3fe608060405234801561001057600080fd5b50600436106100365760003560e01c80637bcbc7a81461003b578063fb0d010a14610050575b600080fd5b61004e610049366004610946565b610063565b005b61004e61005e3660046109c8565b6104a1565b6000546040516338ed173960e01b81526001600160a01b039091169081906338ed17399061009f908c908c908c908c908c908a90600401610a8a565b6000604051808303816000875af11580156100be573d6000803e3d6000fd5b505050506040513d6000823e601f3d908101601f191682016040526100e69190810190610ade565b50604051634401edf760e11b81526001600160a01b03821690638803dbee9061011d90879087908c908c908c908a90600401610a8a565b6000604051808303816000875af115801561013c573d6000803e3d6000fd5b505050506040513d6000823e601f3d908101601f191682016040526101649190810190610ade565b50604051637ff36ab560e01b81526001600160a01b03821690637ff36ab590610199908b908b908b908b908990600401610b9c565b6000604051808303816000875af11580156101b8573d6000803e3d6000fd5b505050506040513d6000823e601f3d908101601f191682016040526101e09190810190610ade565b50604051632512eca560e11b81526001600160a01b03821690634a25d94a9061021790879087908c908c908c908a90600401610a8a565b6000604051808303816000875af1158015610236573d6000803e3d6000fd5b505050506040513d6000823e601f3d908101601f1916820160405261025e9190810190610ade565b506040516318cbafe560e01b81526001600160a01b038216906318cbafe590610295908c908c908c908c908c908a90600401610a8a565b6000604051808303816000875af11580156102b4573d6000803e3d6000fd5b505050506040513d6000823e601f3d908101601f191682016040526102dc9190810190610ade565b5060405163fb3bdb4160e01b81526001600160a01b0382169063fb3bdb41906103119087908b908b908b908990600401610b9c565b6000604051808303816000875af1158015610330573d6000803e3d6000fd5b505050506040513d6000823e601f3d908101601f191682016040526103589190810190610ade565b50600054604051635c11d79560e01b81526001600160a01b03909116908190635c11d79590610395908d908d908d908d908d908b90600401610a8a565b600060405180830381600087803b1580156103af57600080fd5b505af11580156103c3573d6000803e3d6000fd5b505060405163b6f9de9560e01b81526001600160a01b038416925063b6f9de9591506103fb908c908c908c908c908a90600401610b9c565b600060405180830381600087803b15801561041557600080fd5b505af1158015610429573d6000803e3d6000fd5b505060405163791ac94760e01b81526001600160a01b038416925063791ac9479150610463908d908d908d908d908d908b90600401610a8a565b600060405180830381600087803b15801561047d57600080fd5b505af1158015610491573d6000803e3d6000fd5b5050505050505050505050505050565b6000546040516338ed173960e01b81526001600160a01b039091169081906338ed1739906104dd908b908b908b908b908b904290600401610a8a565b6000604051808303816000875af11580156104fc573d6000803e3d6000fd5b505050506040513d6000823e601f3d908101601f191682016040526105249190810190610ade565b50604051634401edf760e11b81526001600160a01b03821690638803dbee9061055b90869086908b908b908b904290600401610a8a565b6000604051808303816000875af115801561057a573d6000803e3d6000fd5b505050506040513d6000823e601f3d908101601f191682016040526105a29190810190610ade565b50604051637ff36ab560e01b81526001600160a01b03821690637ff36ab5906105d7908a908a908a908a904290600401610b9c565b6000604051808303816000875af11580156105f6573d6000803e3d6000fd5b505050506040513d6000823e601f3d908101601f1916820160405261061e9190810190610ade565b50604051632512eca560e11b81526001600160a01b03821690634a25d94a9061065590869086908b908b908b904290600401610a8a565b6000604051808303816000875af1158015610674573d6000803e3d6000fd5b505050506040513d6000823e601f3d908101601f1916820160405261069c9190810190610ade565b506040516318cbafe560e01b81526001600160a01b038216906318cbafe5906106d3908b908b908b908b908b904290600401610a8a565b6000604051808303816000875af11580156106f2573d6000803e3d6000fd5b505050506040513d6000823e601f3d908101601f1916820160405261071a9190810190610ade565b5060405163fb3bdb4160e01b81526001600160a01b0382169063fb3bdb419061074f9086908a908a908a904290600401610b9c565b6000604051808303816000875af115801561076e573d6000803e3d6000fd5b505050506040513d6000823e601f3d908101601f191682016040526107969190810190610ade565b50600054604051635c11d79560e01b81526001600160a01b03909116908190635c11d795906107d3908c908c908c908c908c904290600401610a8a565b600060405180830381600087803b1580156107ed57600080fd5b505af1158015610801573d6000803e3d6000fd5b505060405163b6f9de9560e01b81526001600160a01b038416925063b6f9de959150610839908b908b908b908b904290600401610b9c565b600060405180830381600087803b15801561085357600080fd5b505af1158015610867573d6000803e3d6000fd5b505060405163791ac94760e01b81526001600160a01b038416925063791ac94791506108a1908c908c908c908c908c904290600401610a8a565b600060405180830381600087803b1580156108bb57600080fd5b505af11580156108cf573d6000803e3d6000fd5b50505050505050505050505050565b60008083601f8401126108f057600080fd5b50813567ffffffffffffffff81111561090857600080fd5b6020830191508360208260051b850101111561092357600080fd5b9250929050565b80356001600160a01b038116811461094157600080fd5b919050565b60008060008060008060008060e0898b03121561096257600080fd5b8835975060208901359650604089013567ffffffffffffffff81111561098757600080fd5b6109938b828c016108de565b90975095506109a6905060608a0161092a565b979a96995094979396956080850135955060a08501359460c001359350915050565b600080600080600080600060c0888a0312156109e357600080fd5b8735965060208801359550604088013567ffffffffffffffff811115610a0857600080fd5b610a148a828b016108de565b9096509450610a2790506060890161092a565b92506080880135915060a0880135905092959891949750929550565b8183526000602080850194508260005b85811015610a7f576001600160a01b03610a6c8361092a565b1687529582019590820190600101610a53565b509495945050505050565b86815285602082015260a060408201526000610aaa60a083018688610a43565b6001600160a01b039490941660608301525060800152949350505050565b634e487b7160e01b600052604160045260246000fd5b60006020808385031215610af157600080fd5b825167ffffffffffffffff80821115610b0957600080fd5b818501915085601f830112610b1d57600080fd5b815181811115610b2f57610b2f610ac8565b8060051b604051601f19603f83011681018181108582111715610b5457610b54610ac8565b604052918252848201925083810185019188831115610b7257600080fd5b938501935b82851015610b9057845184529385019392850192610b77565b98975050505050505050565b858152608060208201526000610bb6608083018688610a43565b6001600160a01b039490941660408301525060600152939250505056fea164736f6c6343000814000a","linkReferences":{}},"methodIdentifiers":{"badSwaps(uint256,uint256,address[],address,uint256,uint256)":"fb0d010a","goodSwaps(uint256,uint256,address[],address,uint256,uint256,uint256)":"7bcbc7a8"},"id":38}