{"abi":[{"type":"constructor","inputs":[{"name":"_owner","type":"address","internalType":"address"},{"name":"_model","type":"string","internalType":"string"}],"stateMutability":"payable"},{"type":"function","name":"carAddr","inputs":[],"outputs":[{"name":"","type":"address","internalType":"address"}],"stateMutability":"view"},{"type":"function","name":"model","inputs":[],"outputs":[{"name":"","type":"string","internalType":"string"}],"stateMutability":"view"},{"type":"function","name":"owner","inputs":[],"outputs":[{"name":"","type":"address","internalType":"address"}],"stateMutability":"view"}],"bytecode":{"object":"0x608060405260405161048138038061048183398101604081905261002291610079565b600080546001600160a01b0319166001600160a01b038416179055600161004982826101ed565b5050600280546001600160a01b03191630179055506102ac565b634e487b7160e01b600052604160045260246000fd5b6000806040838503121561008c57600080fd5b82516001600160a01b03811681146100a357600080fd5b602084810151919350906001600160401b03808211156100c257600080fd5b818601915086601f8301126100d657600080fd5b8151818111156100e8576100e8610063565b604051601f8201601f19908116603f0116810190838211818310171561011057610110610063565b81604052828152898684870101111561012857600080fd5b600093505b8284101561014a578484018601518185018701529285019261012d565b60008684830101528096505050505050509250929050565b600181811c9082168061017657607f821691505b60208210810361019657634e487b7160e01b600052602260045260246000fd5b50919050565b601f8211156101e8576000816000526020600020601f850160051c810160208610156101c55750805b601f850160051c820191505b818110156101e4578281556001016101d1565b5050505b505050565b81516001600160401b0381111561020657610206610063565b61021a816102148454610162565b8461019c565b602080601f83116001811461024f57600084156102375750858301515b600019600386901b1c1916600185901b1785556101e4565b600085815260208120601f198616915b8281101561027e5788860151825594840194600190910190840161025f565b508582101561029c5787850151600019600388901b60f8161c191681555b5050505050600190811b01905550565b6101c6806102bb6000396000f3fe608060405234801561001057600080fd5b50600436106100415760003560e01c80630ad9d05214610046578063514fa676146100645780638da5cb5b1461008f575b600080fd5b61004e6100a2565b60405161005b9190610130565b60405180910390f35b600254610077906001600160a01b031681565b6040516001600160a01b03909116815260200161005b565b600054610077906001600160a01b031681565b600180546100af9061017f565b80601f01602080910402602001604051908101604052809291908181526020018280546100db9061017f565b80156101285780601f106100fd57610100808354040283529160200191610128565b820191906000526020600020905b81548152906001019060200180831161010b57829003601f168201915b505050505081565b60006020808352835180602085015260005b8181101561015e57858101830151858201604001528201610142565b506000604082860101526040601f19601f8301168501019250505092915050565b600181811c9082168061019357607f821691505b6020821081036101b357634e487b7160e01b600052602260045260246000fd5b5091905056fea164736f6c6343000818000a","linkReferences":{}},"methodIdentifiers":{"carAddr()":"514fa676","model()":"0ad9d052","owner()":"8da5cb5b"},"id":0}