{"abi":[{"type":"function","name":"cars","inputs":[{"name":"","type":"uint256","internalType":"uint256"}],"outputs":[{"name":"","type":"address","internalType":"contract Car"}],"stateMutability":"view"},{"type":"function","name":"create","inputs":[{"name":"_owner","type":"address","internalType":"address"},{"name":"_model","type":"string","internalType":"string"}],"outputs":[],"stateMutability":"nonpayable"},{"type":"function","name":"create2","inputs":[{"name":"_owner","type":"address","internalType":"address"},{"name":"_model","type":"string","internalType":"string"},{"name":"_salt","type":"bytes32","internalType":"bytes32"}],"outputs":[],"stateMutability":"nonpayable"},{"type":"function","name":"create2AndSendEther","inputs":[{"name":"_owner","type":"address","internalType":"address"},{"name":"_model","type":"string","internalType":"string"},{"name":"_salt","type":"bytes32","internalType":"bytes32"}],"outputs":[],"stateMutability":"payable"},{"type":"function","name":"createAndSendEther","inputs":[{"name":"_owner","type":"address","internalType":"address"},{"name":"_model","type":"string","internalType":"string"}],"outputs":[],"stateMutability":"payable"},{"type":"function","name":"createAndSendEther2","inputs":[{"name":"_owner","type":"address","internalType":"address"},{"name":"_model","type":"string","internalType":"string"}],"outputs":[],"stateMutability":"payable"},{"type":"function","name":"getCar","inputs":[{"name":"_index","type":"uint256","internalType":"uint256"}],"outputs":[{"name":"owner","type":"address","internalType":"address"},{"name":"model","type":"string","internalType":"string"},{"name":"carAddr","type":"address","internalType":"address"},{"name":"balance","type":"uint256","internalType":"uint256"}],"stateMutability":"view"}],"bytecode":{"object":"0x608060405234801561001057600080fd5b50610c8e806100206000396000f3fe608060405260043610620000795760003560e01c8063a15ab08d1162000054578063a15ab08d14620000ee578063ace276ee1462000113578063c33cd6151462000097578063f7746e36146200013857600080fd5b80633d4b3015146200007e5780635a5d57a114620000975780635e8be19014620000ae575b600080fd5b620000956200008f366004620005bc565b62000176565b005b62000095620000a83660046200061b565b6200020d565b348015620000bb57600080fd5b50620000d3620000cd36600462000671565b6200029e565b604051620000e59493929190620006df565b60405180910390f35b348015620000fb57600080fd5b50620000956200010d3660046200061b565b6200041c565b3480156200012057600080fd5b506200009562000132366004620005bc565b62000458565b3480156200014557600080fd5b506200015d6200015736600462000671565b62000499565b6040516001600160a01b039091168152602001620000e5565b600034829085856040516200018b90620004c4565b6200019892919062000715565b82906040518091039083f591505080158015620001b9573d6000803e3d6000fd5b50600080546001810182559080527f290decd9548b62a8d60345a988386fc84ba6bc95484008f6362f93160ef3e5630180546001600160a01b0319166001600160a01b039290921691909117905550505050565b60003483836040516200022090620004c4565b6200022d92919062000715565b6040518091039082f09050801580156200024b573d6000803e3d6000fd5b50600080546001810182559080527f290decd9548b62a8d60345a988386fc84ba6bc95484008f6362f93160ef3e5630180546001600160a01b0319166001600160a01b0392909216919091179055505050565b600060606000806000808681548110620002bc57620002bc62000743565b6000918252602091829020015460408051638da5cb5b60e01b815290516001600160a01b0390921693508392638da5cb5b926004808401938290030181865afa1580156200030e573d6000803e3d6000fd5b505050506040513d601f19601f8201168201806040525081019062000334919062000759565b816001600160a01b0316630ad9d0526040518163ffffffff1660e01b8152600401600060405180830381865afa15801562000373573d6000803e3d6000fd5b505050506040513d6000823e601f3d908101601f191682016040526200039d919081019062000780565b826001600160a01b031663514fa6766040518163ffffffff1660e01b8152600401602060405180830381865afa158015620003dc573d6000803e3d6000fd5b505050506040513d601f19601f8201168201806040525081019062000402919062000759565b919650945092506001600160a01b03163190509193509193565b600082826040516200042e90620004c4565b6200043b92919062000715565b604051809103906000f0801580156200024b573d6000803e3d6000fd5b60008184846040516200046b90620004c4565b6200047892919062000715565b8190604051809103906000f5905080158015620001b9573d6000803e3d6000fd5b60008181548110620004aa57600080fd5b6000918252602090912001546001600160a01b0316905081565b610481806200080183390190565b6001600160a01b0381168114620004e857600080fd5b50565b634e487b7160e01b600052604160045260246000fd5b604051601f8201601f1916810167ffffffffffffffff811182821017156200052d576200052d620004eb565b604052919050565b600067ffffffffffffffff821115620005525762000552620004eb565b50601f01601f191660200190565b600082601f8301126200057257600080fd5b813562000589620005838262000535565b62000501565b8181528460208386010111156200059f57600080fd5b816020850160208301376000918101602001919091529392505050565b600080600060608486031215620005d257600080fd5b8335620005df81620004d2565b9250602084013567ffffffffffffffff811115620005fc57600080fd5b6200060a8682870162000560565b925050604084013590509250925092565b600080604083850312156200062f57600080fd5b82356200063c81620004d2565b9150602083013567ffffffffffffffff8111156200065957600080fd5b620006678582860162000560565b9150509250929050565b6000602082840312156200068457600080fd5b5035919050565b60005b83811015620006a85781810151838201526020016200068e565b50506000910152565b60008151808452620006cb8160208601602086016200068b565b601f01601f19169290920160200192915050565b600060018060a01b03808716835260806020840152620007036080840187620006b1565b94166040830152506060015292915050565b6001600160a01b03831681526040602082018190526000906200073b90830184620006b1565b949350505050565b634e487b7160e01b600052603260045260246000fd5b6000602082840312156200076c57600080fd5b81516200077981620004d2565b9392505050565b6000602082840312156200079357600080fd5b815167ffffffffffffffff811115620007ab57600080fd5b8201601f81018413620007bd57600080fd5b8051620007ce620005838262000535565b818152856020838501011115620007e457600080fd5b620007f78260208301602086016200068b565b9594505050505056fe608060405260405161048138038061048183398101604081905261002291610079565b600080546001600160a01b0319166001600160a01b038416179055600161004982826101ed565b5050600280546001600160a01b03191630179055506102ac565b634e487b7160e01b600052604160045260246000fd5b6000806040838503121561008c57600080fd5b82516001600160a01b03811681146100a357600080fd5b602084810151919350906001600160401b03808211156100c257600080fd5b818601915086601f8301126100d657600080fd5b8151818111156100e8576100e8610063565b604051601f8201601f19908116603f0116810190838211818310171561011057610110610063565b81604052828152898684870101111561012857600080fd5b600093505b8284101561014a578484018601518185018701529285019261012d565b60008684830101528096505050505050509250929050565b600181811c9082168061017657607f821691505b60208210810361019657634e487b7160e01b600052602260045260246000fd5b50919050565b601f8211156101e8576000816000526020600020601f850160051c810160208610156101c55750805b601f850160051c820191505b818110156101e4578281556001016101d1565b5050505b505050565b81516001600160401b0381111561020657610206610063565b61021a816102148454610162565b8461019c565b602080601f83116001811461024f57600084156102375750858301515b600019600386901b1c1916600185901b1785556101e4565b600085815260208120601f198616915b8281101561027e5788860151825594840194600190910190840161025f565b508582101561029c5787850151600019600388901b60f8161c191681555b5050505050600190811b01905550565b6101c6806102bb6000396000f3fe608060405234801561001057600080fd5b50600436106100415760003560e01c80630ad9d05214610046578063514fa676146100645780638da5cb5b1461008f575b600080fd5b61004e6100a2565b60405161005b9190610130565b60405180910390f35b600254610077906001600160a01b031681565b6040516001600160a01b03909116815260200161005b565b600054610077906001600160a01b031681565b600180546100af9061017f565b80601f01602080910402602001604051908101604052809291908181526020018280546100db9061017f565b80156101285780601f106100fd57610100808354040283529160200191610128565b820191906000526020600020905b81548152906001019060200180831161010b57829003601f168201915b505050505081565b60006020808352835180602085015260005b8181101561015e57858101830151858201604001528201610142565b506000604082860101526040601f19601f8301168501019250505092915050565b600181811c9082168061019357607f821691505b6020821081036101b357634e487b7160e01b600052602260045260246000fd5b5091905056fea164736f6c6343000818000aa164736f6c6343000818000a","linkReferences":{}},"methodIdentifiers":{"cars(uint256)":"f7746e36","create(address,string)":"a15ab08d","create2(address,string,bytes32)":"ace276ee","create2AndSendEther(address,string,bytes32)":"3d4b3015","createAndSendEther(address,string)":"c33cd615","createAndSendEther2(address,string)":"5a5d57a1","getCar(uint256)":"5e8be190"},"id":0}