{"abi":[{"type":"constructor","inputs":[],"stateMutability":"nonpayable"},{"type":"function","name":"initializeWithModifier","inputs":[],"outputs":[],"stateMutability":"nonpayable"},{"type":"function","name":"initializeWithRevert","inputs":[],"outputs":[],"stateMutability":"nonpayable"},{"type":"function","name":"initializeWithoutModifierOrRevert","inputs":[],"outputs":[],"stateMutability":"nonpayable"}],"bytecode":{"object":"0x608060405234801561001057600080fd5b50600080546101003302610100600160a81b031990911617905561013d806100396000396000f3fe608060405234801561001057600080fd5b50600436106100415760003560e01c8063114593cc1461004657806312cb73491461005057806321237ca214610058575b600080fd5b61004e61006a565b005b61004e6100ce565b61004e6000805460ff19166001179055565b60005461010090046001600160a01b031633146100ce5760405162461bcd60e51b815260206004820152601960248201527f4f6e6c79206f776e65722063616e20696e697469616c697a650000000000000060448201526064015b60405180910390fd5b60005460ff16156101215760405162461bcd60e51b815260206004820152601c60248201527f436f6e747261637420616c726561647920696e697469616c697a65640000000060448201526064016100c5565b6000805460ff1916600117905556fea164736f6c6343000813000a","linkReferences":{}},"methodIdentifiers":{"initializeWithModifier()":"12cb7349","initializeWithRevert()":"114593cc","initializeWithoutModifierOrRevert()":"21237ca2"},"id":14}