{"abi":[{"type":"function","name":"DEFAULT_ADMIN_ROLE","inputs":[],"outputs":[{"name":"","type":"bytes32","internalType":"bytes32"}],"stateMutability":"view"},{"type":"function","name":"ROLE","inputs":[],"outputs":[{"name":"","type":"bytes32","internalType":"bytes32"}],"stateMutability":"view"},{"type":"function","name":"getRoleAdmin","inputs":[{"name":"role","type":"bytes32","internalType":"bytes32"}],"outputs":[{"name":"","type":"bytes32","internalType":"bytes32"}],"stateMutability":"view"},{"type":"function","name":"grantRole","inputs":[{"name":"role","type":"bytes32","internalType":"bytes32"},{"name":"account","type":"address","internalType":"address"}],"outputs":[],"stateMutability":"nonpayable"},{"type":"function","name":"grantRoleFunction","inputs":[{"name":"account","type":"address","internalType":"address"}],"outputs":[],"stateMutability":"nonpayable"},{"type":"function","name":"hasRole","inputs":[{"name":"role","type":"bytes32","internalType":"bytes32"},{"name":"account","type":"address","internalType":"address"}],"outputs":[{"name":"","type":"bool","internalType":"bool"}],"stateMutability":"view"},{"type":"function","name":"onlyRoleFunction","inputs":[],"outputs":[],"stateMutability":"nonpayable"},{"type":"function","name":"onlyRoleManualIfRevertCheck","inputs":[],"outputs":[],"stateMutability":"view"},{"type":"function","name":"onlyRoleManualRequireCheck","inputs":[],"outputs":[],"stateMutability":"view"},{"type":"function","name":"renounceRole","inputs":[{"name":"role","type":"bytes32","internalType":"bytes32"},{"name":"account","type":"address","internalType":"address"}],"outputs":[],"stateMutability":"nonpayable"},{"type":"function","name":"revokeRole","inputs":[{"name":"role","type":"bytes32","internalType":"bytes32"},{"name":"account","type":"address","internalType":"address"}],"outputs":[],"stateMutability":"nonpayable"},{"type":"function","name":"supportsInterface","inputs":[{"name":"interfaceId","type":"bytes4","internalType":"bytes4"}],"outputs":[{"name":"","type":"bool","internalType":"bool"}],"stateMutability":"view"},{"type":"event","name":"RoleAdminChanged","inputs":[{"name":"role","type":"bytes32","indexed":true,"internalType":"bytes32"},{"name":"previousAdminRole","type":"bytes32","indexed":true,"internalType":"bytes32"},{"name":"newAdminRole","type":"bytes32","indexed":true,"internalType":"bytes32"}],"anonymous":false},{"type":"event","name":"RoleGranted","inputs":[{"name":"role","type":"bytes32","indexed":true,"internalType":"bytes32"},{"name":"account","type":"address","indexed":true,"internalType":"address"},{"name":"sender","type":"address","indexed":true,"internalType":"address"}],"anonymous":false},{"type":"event","name":"RoleRevoked","inputs":[{"name":"role","type":"bytes32","indexed":true,"internalType":"bytes32"},{"name":"account","type":"address","indexed":true,"internalType":"address"},{"name":"sender","type":"address","indexed":true,"internalType":"address"}],"anonymous":false}],"bytecode":{"object":"0x608060405234801561001057600080fd5b50610883806100206000396000f3fe608060405234801561001057600080fd5b50600436106100b45760003560e01c80639621624611610071578063962162461461015e5780639d53fe2b14610166578063a217fddf1461018d578063b99c63de1461015e578063d547741f14610195578063df014376146101a857600080fd5b806301ffc9a7146100b9578063248a9ca3146100e15780632f2ff15d1461011257806330289f1c1461012757806336568abe1461013857806391d148541461014b575b600080fd5b6100cc6100c7366004610681565b6101b0565b60405190151581526020015b60405180910390f35b6101046100ef3660046106ab565b60009081526020819052604090206001015490565b6040519081526020016100d8565b6101256101203660046106e0565b6101e7565b005b61012561013536600461070c565b50565b6101256101463660046106e0565b610211565b6100cc6101593660046106e0565b610294565b6101256102bd565b6101047fed9ea7bc2a13bc59432ab07436e7f7f5450f82d4b48c401bed177bfaf36b187381565b610104600081565b6101256101a33660046106e0565b610335565b61012561035a565b60006001600160e01b03198216637965db0b60e01b14806101e157506301ffc9a760e01b6001600160e01b03198316145b92915050565b60008281526020819052604090206001015461020281610380565b61020c838361038a565b505050565b6001600160a01b03811633146102865760405162461bcd60e51b815260206004820152602f60248201527f416363657373436f6e74726f6c3a2063616e206f6e6c792072656e6f756e636560448201526e103937b632b9903337b91039b2b63360891b60648201526084015b60405180910390fd5b610290828261040e565b5050565b6000918252602082815260408084206001600160a01b0393909316845291905290205460ff1690565b6102e77fed9ea7bc2a13bc59432ab07436e7f7f5450f82d4b48c401bed177bfaf36b187333610294565b6103335760405162461bcd60e51b815260206004820152601760248201527f43616c6c6572206973206e6f7420746865206f776e6572000000000000000000604482015260640161027d565b565b60008281526020819052604090206001015461035081610380565b61020c838361040e565b7fed9ea7bc2a13bc59432ab07436e7f7f5450f82d4b48c401bed177bfaf36b1873610135815b6101358133610473565b6103948282610294565b610290576000828152602081815260408083206001600160a01b03851684529091529020805460ff191660011790556103ca3390565b6001600160a01b0316816001600160a01b0316837f2f8788117e7eff1d82e926ec794901d17c78024a50270940304540a733656f0d60405160405180910390a45050565b6104188282610294565b15610290576000828152602081815260408083206001600160a01b0385168085529252808320805460ff1916905551339285917ff6391f5c32d9c69d2a47ea670b442974b53935d1edc7fd64eb21e047a839171b9190a45050565b61047d8282610294565b6102905761048a816104cc565b6104958360206104de565b6040516020016104a692919061074b565b60408051601f198184030181529082905262461bcd60e51b825261027d916004016107c0565b60606101e16001600160a01b03831660145b606060006104ed836002610809565b6104f8906002610820565b67ffffffffffffffff81111561051057610510610833565b6040519080825280601f01601f19166020018201604052801561053a576020820181803683370190505b509050600360fc1b8160008151811061055557610555610849565b60200101906001600160f81b031916908160001a905350600f60fb1b8160018151811061058457610584610849565b60200101906001600160f81b031916908160001a90535060006105a8846002610809565b6105b3906001610820565b90505b600181111561062b576f181899199a1a9b1b9c1cb0b131b232b360811b85600f16601081106105e7576105e7610849565b1a60f81b8282815181106105fd576105fd610849565b60200101906001600160f81b031916908160001a90535060049490941c936106248161085f565b90506105b6565b50831561067a5760405162461bcd60e51b815260206004820181905260248201527f537472696e67733a20686578206c656e67746820696e73756666696369656e74604482015260640161027d565b9392505050565b60006020828403121561069357600080fd5b81356001600160e01b03198116811461067a57600080fd5b6000602082840312156106bd57600080fd5b5035919050565b80356001600160a01b03811681146106db57600080fd5b919050565b600080604083850312156106f357600080fd5b82359150610703602084016106c4565b90509250929050565b60006020828403121561071e57600080fd5b61067a826106c4565b60005b8381101561074257818101518382015260200161072a565b50506000910152565b7f416363657373436f6e74726f6c3a206163636f756e7420000000000000000000815260008351610783816017850160208801610727565b7001034b99036b4b9b9b4b733903937b6329607d1b60179184019182015283516107b4816028840160208801610727565b01602801949350505050565b60208152600082518060208401526107df816040850160208701610727565b601f01601f19169190910160400192915050565b634e487b7160e01b600052601160045260246000fd5b80820281158282048414176101e1576101e16107f3565b808201808211156101e1576101e16107f3565b634e487b7160e01b600052604160045260246000fd5b634e487b7160e01b600052603260045260246000fd5b60008161086e5761086e6107f3565b50600019019056fea164736f6c6343000813000a","linkReferences":{}},"methodIdentifiers":{"DEFAULT_ADMIN_ROLE()":"a217fddf","ROLE()":"9d53fe2b","getRoleAdmin(bytes32)":"248a9ca3","grantRole(bytes32,address)":"2f2ff15d","grantRoleFunction(address)":"30289f1c","hasRole(bytes32,address)":"91d14854","onlyRoleFunction()":"df014376","onlyRoleManualIfRevertCheck()":"b99c63de","onlyRoleManualRequireCheck()":"96216246","renounceRole(bytes32,address)":"36568abe","revokeRole(bytes32,address)":"d547741f","supportsInterface(bytes4)":"01ffc9a7"},"id":9}