{"abi":[{"type":"function","name":"onlyOwnerManualCheck","inputs":[],"outputs":[],"stateMutability":"view"},{"type":"function","name":"onlyOwnerManualIfRevertCheck","inputs":[],"outputs":[],"stateMutability":"view"},{"type":"function","name":"owner","inputs":[],"outputs":[{"name":"","type":"address","internalType":"address"}],"stateMutability":"view"},{"type":"function","name":"transferOwnershipFunction","inputs":[{"name":"newOwner","type":"address","internalType":"address"}],"outputs":[],"stateMutability":"nonpayable"}],"bytecode":{"object":"0x608060405234801561001057600080fd5b50610138806100206000396000f3fe608060405234801561001057600080fd5b506004361061004c5760003560e01c80637730f1cf146100515780638da5cb5b1461005b578063d741d0f91461008a578063df10b4dc14610051575b600080fd5b61005961009b565b005b60005461006e906001600160a01b031681565b6040516001600160a01b03909116815260200160405180910390f35b6100596100983660046100fb565b50565b6000546001600160a01b031633146100f95760405162461bcd60e51b815260206004820152601760248201527f43616c6c6572206973206e6f7420746865206f776e6572000000000000000000604482015260640160405180910390fd5b565b60006020828403121561010d57600080fd5b81356001600160a01b038116811461012457600080fd5b939250505056fea164736f6c6343000813000a","linkReferences":{}},"methodIdentifiers":{"onlyOwnerManualCheck()":"7730f1cf","onlyOwnerManualIfRevertCheck()":"df10b4dc","owner()":"8da5cb5b","transferOwnershipFunction(address)":"d741d0f9"},"id":9}