{"abi":[{"type":"function","name":"onlyOwnerFunction","inputs":[],"outputs":[],"stateMutability":"nonpayable"},{"type":"function","name":"onlyOwnerManualIfRevertCheck","inputs":[],"outputs":[],"stateMutability":"view"},{"type":"function","name":"onlyOwnerManualRequireCheck","inputs":[],"outputs":[],"stateMutability":"view"},{"type":"function","name":"owner","inputs":[],"outputs":[{"name":"","type":"address","internalType":"address"}],"stateMutability":"view"},{"type":"function","name":"renounceOwnership","inputs":[],"outputs":[],"stateMutability":"nonpayable"},{"type":"function","name":"transferOwnership","inputs":[{"name":"newOwner","type":"address","internalType":"address"}],"outputs":[],"stateMutability":"nonpayable"},{"type":"function","name":"transferOwnershipFunction","inputs":[{"name":"newOwner","type":"address","internalType":"address"}],"outputs":[],"stateMutability":"nonpayable"},{"type":"event","name":"OwnershipTransferred","inputs":[{"name":"previousOwner","type":"address","indexed":true,"internalType":"address"},{"name":"newOwner","type":"address","indexed":true,"internalType":"address"}],"anonymous":false}],"bytecode":{"object":"0x608060405234801561001057600080fd5b5061001a3361001f565b61006f565b600080546001600160a01b038381166001600160a01b0319831681178455604051919092169283917f8be0079c531659141344cd1fd0a4f28419497f9722a3daafe3b4186f6b6457e09190a35050565b6102b78061007e6000396000f3fe608060405234801561001057600080fd5b506004361061007d5760003560e01c80638da5cb5b1161005b5780638da5cb5b1461009c578063d741d0f9146100bb578063df10b4dc1461008c578063f2fde38b146100cc57600080fd5b80632a35c4f4146100825780634e4583151461008c578063715018a614610094575b600080fd5b61008a6100df565b005b61008a6100e9565b61008a610148565b600054604080516001600160a01b039092168252519081900360200190f35b61008a6100c936600461027a565b50565b61008a6100da36600461027a565b61015a565b6100e76101d0565b565b6000546001600160a01b031633146100e75760405162461bcd60e51b815260206004820152601760248201527f43616c6c6572206973206e6f7420746865206f776e657200000000000000000060448201526064015b60405180910390fd5b6101506101d0565b6100e7600061022a565b6101626101d0565b6001600160a01b0381166101c75760405162461bcd60e51b815260206004820152602660248201527f4f776e61626c653a206e6577206f776e657220697320746865207a65726f206160448201526564647265737360d01b606482015260840161013f565b6100c98161022a565b6000546001600160a01b031633146100e75760405162461bcd60e51b815260206004820181905260248201527f4f776e61626c653a2063616c6c6572206973206e6f7420746865206f776e6572604482015260640161013f565b600080546001600160a01b038381166001600160a01b0319831681178455604051919092169283917f8be0079c531659141344cd1fd0a4f28419497f9722a3daafe3b4186f6b6457e09190a35050565b60006020828403121561028c57600080fd5b81356001600160a01b03811681146102a357600080fd5b939250505056fea164736f6c6343000813000a","linkReferences":{}},"methodIdentifiers":{"onlyOwnerFunction()":"2a35c4f4","onlyOwnerManualIfRevertCheck()":"df10b4dc","onlyOwnerManualRequireCheck()":"4e458315","owner()":"8da5cb5b","renounceOwnership()":"715018a6","transferOwnership(address)":"f2fde38b","transferOwnershipFunction(address)":"d741d0f9"},"id":9}