{"abi":[{"type":"constructor","inputs":[],"stateMutability":"nonpayable"},{"type":"receive","stateMutability":"payable"},{"type":"function","name":"changeOwner","inputs":[{"name":"newOwner","type":"address","internalType":"address payable"}],"outputs":[],"stateMutability":"nonpayable"},{"type":"function","name":"executeTransfer","inputs":[{"name":"recipient","type":"address","internalType":"address payable"},{"name":"value","type":"uint256","internalType":"uint256"}],"outputs":[],"stateMutability":"nonpayable"},{"type":"function","name":"safeSend","inputs":[{"name":"receiver","type":"address","internalType":"address payable"},{"name":"amount","type":"uint256","internalType":"uint256"}],"outputs":[],"stateMutability":"nonpayable"},{"type":"function","name":"safeSend2","inputs":[{"name":"receiver","type":"address","internalType":"address payable"},{"name":"amount","type":"uint256","internalType":"uint256"}],"outputs":[],"stateMutability":"nonpayable"},{"type":"event","name":"TransferMade","inputs":[{"name":"sender","type":"address","indexed":true,"internalType":"address"},{"name":"receiver","type":"address","indexed":true,"internalType":"address"},{"name":"amount","type":"uint256","indexed":false,"internalType":"uint256"}],"anonymous":false},{"type":"error","name":"OwnerIsNotCaller","inputs":[]}],"bytecode":{"object":"0x608060405234801561001057600080fd5b50600080546001600160a01b031916331790556102fa806100326000396000f3fe6080604052600436106100435760003560e01c806307ad9ecb1461004f5780632a6e349c14610071578063a6f9dae114610091578063fd6b73ad146100b157600080fd5b3661004a57005b600080fd5b34801561005b57600080fd5b5061006f61006a3660046102a1565b6100d1565b005b34801561007d57600080fd5b5061006f61008c3660046102a1565b610136565b34801561009d57600080fd5b5061006f6100ac3660046102cb565b610194565b3480156100bd57600080fd5b5061006f6100cc3660046102a1565b6101e0565b6000546001600160a01b031632146100fb5760405162069d7960e91b815260040160405180910390fd5b6040516001600160a01b0383169082156108fc029083906000818181858888f19350505050158015610131573d6000803e3d6000fd5b505050565b6000546001600160a01b031632146100fb5760405162461bcd60e51b815260206004820152601760248201527f43616c6c6572206973206e6f7420746865206f776e6572000000000000000000604482015260640160405180910390fd5b6000546001600160a01b031632146101be5760405162069d7960e91b815260040160405180910390fd5b600080546001600160a01b0319166001600160a01b0392909216919091179055565b6000546001600160a01b0316321461020a5760405162069d7960e91b815260040160405180910390fd5b6040516001600160a01b0383169082156108fc029083906000818181858888f19350505050158015610240573d6000803e3d6000fd5b506040518181526001600160a01b0383169033907f422971e1d1a7c8b68372f65fe1426aef054f0c6290124a929c843c5c019521d69060200160405180910390a35050565b80356001600160a01b038116811461029c57600080fd5b919050565b600080604083850312156102b457600080fd5b6102bd83610285565b946020939093013593505050565b6000602082840312156102dd57600080fd5b6102e682610285565b939250505056fea164736f6c6343000818000a","linkReferences":{}},"methodIdentifiers":{"changeOwner(address)":"a6f9dae1","executeTransfer(address,uint256)":"fd6b73ad","safeSend(address,uint256)":"07ad9ecb","safeSend2(address,uint256)":"2a6e349c"},"id":0}