{"abi":[{"type":"constructor","inputs":[],"stateMutability":"nonpayable"},{"type":"receive","stateMutability":"payable"},{"type":"function","name":"changeOwner","inputs":[{"name":"newOwner","type":"address","internalType":"address payable"}],"outputs":[],"stateMutability":"nonpayable"},{"type":"function","name":"executeTransfer","inputs":[{"name":"recipient","type":"address","internalType":"address payable"},{"name":"value","type":"uint256","internalType":"uint256"}],"outputs":[],"stateMutability":"nonpayable"},{"type":"function","name":"safeSend","inputs":[{"name":"receiver","type":"address","internalType":"address payable"},{"name":"amount","type":"uint256","internalType":"uint256"}],"outputs":[],"stateMutability":"nonpayable"},{"type":"event","name":"TransferMade","inputs":[{"name":"sender","type":"address","indexed":true,"internalType":"address"},{"name":"receiver","type":"address","indexed":true,"internalType":"address"},{"name":"amount","type":"uint256","indexed":false,"internalType":"uint256"}],"anonymous":false}],"bytecode":{"object":"0x608060405234801561001057600080fd5b50600080546001600160a01b031916331790556102b1806100326000396000f3fe6080604052600436106100385760003560e01c806307ad9ecb14610044578063a6f9dae114610066578063fd6b73ad1461008657600080fd5b3661003f57005b600080fd5b34801561005057600080fd5b5061006461005f366004610221565b6100a6565b005b34801561007257600080fd5b5061006461008136600461024b565b610114565b34801561009257600080fd5b506100646100a1366004610221565b610160565b6000546001600160a01b031632146100d95760405162461bcd60e51b81526004016100d09061026d565b60405180910390fd5b6040516001600160a01b0383169082156108fc029083906000818181858888f1935050505015801561010f573d6000803e3d6000fd5b505050565b6000546001600160a01b0316321461013e5760405162461bcd60e51b81526004016100d09061026d565b600080546001600160a01b0319166001600160a01b0392909216919091179055565b6000546001600160a01b0316321461018a5760405162461bcd60e51b81526004016100d09061026d565b6040516001600160a01b0383169082156108fc029083906000818181858888f193505050501580156101c0573d6000803e3d6000fd5b506040518181526001600160a01b0383169033907f422971e1d1a7c8b68372f65fe1426aef054f0c6290124a929c843c5c019521d69060200160405180910390a35050565b80356001600160a01b038116811461021c57600080fd5b919050565b6000806040838503121561023457600080fd5b61023d83610205565b946020939093013593505050565b60006020828403121561025d57600080fd5b61026682610205565b9392505050565b60208082526017908201527f43616c6c6572206973206e6f7420746865206f776e657200000000000000000060408201526060019056fea164736f6c6343000818000a","linkReferences":{}},"methodIdentifiers":{"changeOwner(address)":"a6f9dae1","executeTransfer(address,uint256)":"fd6b73ad","safeSend(address,uint256)":"07ad9ecb"},"id":0}