{"abi":[{"type":"function","name":"testSquareRoot","inputs":[{"name":"x","type":"uint256","internalType":"uint256"}],"outputs":[{"name":"","type":"uint256","internalType":"uint256"}],"stateMutability":"pure"}],"bytecode":{"object":"0x608060405234801561001057600080fd5b5061013f806100206000396000f3fe608060405234801561001057600080fd5b506004361061002b5760003560e01c80636039b0bd14610030575b600080fd5b61004361003e3660046100d6565b610055565b60405190815260200160405180910390f35b600061006082610066565b92915050565b600060038211156100c757508060006100806002836100ef565b61008b906001610111565b90505b818110156100c1579050806002816100a681866100ef565b6100b09190610111565b6100ba91906100ef565b905061008e565b50919050565b81156100d1575060015b919050565b6000602082840312156100e857600080fd5b5035919050565b60008261010c57634e487b7160e01b600052601260045260246000fd5b500490565b8082018082111561006057634e487b7160e01b600052601160045260246000fdfea164736f6c6343000818000a","linkReferences":{}},"methodIdentifiers":{"testSquareRoot(uint256)":"6039b0bd"},"id":0}