{"abi":[{"type":"function","name":"doesNotDoHomework","inputs":[],"outputs":[{"name":"","type":"bool","internalType":"bool"}],"stateMutability":"view"},{"type":"function","name":"doesWork","inputs":[],"outputs":[{"name":"","type":"bool","internalType":"bool"}],"stateMutability":"view"},{"type":"function","name":"isHappy","inputs":[],"outputs":[{"name":"","type":"bool","internalType":"bool"}],"stateMutability":"view"}],"bytecode":{"object":"0x60806040526000805462ff00ff19166201000117905534801561002157600080fd5b506092806100306000396000f3fe6080604052348015600f57600080fd5b5060043610603b5760003560e01c8062e327b0146040578063e4f525b4146066578063f5f06010146072575b600080fd5b60005460529062010000900460ff1681565b604051901515815260200160405180910390f35b60005460529060ff1681565b6000546052906301000000900460ff168156fea164736f6c6343000813000a","linkReferences":{}},"methodIdentifiers":{"doesNotDoHomework()":"f5f06010","doesWork()":"00e327b0","isHappy()":"e4f525b4"},"id":0}