{"abi":[{"type":"function","name":"emoji","inputs":[],"outputs":[],"stateMutability":"pure"},{"type":"function","name":"foo","inputs":[{"name":"bar","type":"address","internalType":"address"}],"outputs":[],"stateMutability":"pure"},{"type":"function","name":"foo2","inputs":[{"name":"bar","type":"address","internalType":"address"}],"outputs":[],"stateMutability":"pure"}],"bytecode":{"object":"0x6080604052600080556000600155600060025560006003556000600455348015602757600080fd5b506102f7806100376000396000f3fe608060405234801561001057600080fd5b50600436106100415760003560e01c80638d35a6f814610046578063aba11c461461005b578063fdf80bda14610082575b600080fd5b6100596100543660046101d4565b610095565b005b61005960408051808201909152600a81526948656c6c6f20f09f988360b01b602090910152565b6100596100903660046101d4565b6101be565b600060405180606001604052806025815260200161022a60259139905060006040518060400160405280601f81526020017f2f2a2074686973206973206e6f742022202f2a6120636f6d6d656e74202a2f00815250905060008060008060006040518060600160405280602581526020016102056025913960408051808201909152601f81527f2f2a2074686973206973206e6f742027202f2a6120636f6d6d656e74202a2f00602082015290915060006001600160a01b038a1661015957600080fd5b600060405180606001604052806024815260200161024f602491399050600060405180606001604052806034815260200161027360349139905060006040518060800160405280604481526020016102a7604491395050505050505050505050505050565b6001600160a01b0381166101d157600080fd5b50565b6000602082840312156101e657600080fd5b81356001600160a01b03811681146101fd57600080fd5b939250505056fe2f2a2074686973206973206e6f742061205c272073696d706c6520636f6d6d656e74202a2f2f2a2074686973206973206e6f742061205c222073696d706c6520636f6d6d656e74202a2f7366677366677171736466706c6b6a6b73666e6d626d626d626d6e62736466736673667373666773666771717364662020202020202020706c6b6a6b736620202020202020206e6d626d626d626d6e627364667366736673736667736667717173646620202020202020205c2f2a6e6f7461636f6d6d656e742a2f706c6b6a6b736620202020202020206e6d626d626d626d6e627364667366736673a164736f6c6343000819000a","linkReferences":{}},"methodIdentifiers":{"emoji()":"aba11c46","foo(address)":"fdf80bda","foo2(address)":"8d35a6f8"},"id":25}