{"abi":[{"type":"function","name":"number","inputs":[],"outputs":[{"name":"","type":"uint256","internalType":"uint256"}],"stateMutability":"view"},{"type":"function","name":"perform","inputs":[],"outputs":[],"stateMutability":"nonpayable"},{"type":"error","name":"CannotRenounceWhilePaused","inputs":[{"name":"account","type":"address","internalType":"address"}]}],"bytecode":{"object":"0x60806040526000805534801561001457600080fd5b5060a0806100236000396000f3fe6080604052348015600f57600080fd5b506004361060325760003560e01c80638381f58a146037578063b147f40c146051575b600080fd5b603f60005481565b60405190815260200160405180910390f35b60576059565b005b600080549080606683606d565b9190505550565b600060018201608c57634e487b7160e01b600052601160045260246000fd5b506001019056fea164736f6c6343000813000a","linkReferences":{}},"methodIdentifiers":{"number()":"8381f58a","perform()":"b147f40c"},"id":15}