{"abi":[{"type":"function","name":"goodError","inputs":[],"outputs":[],"stateMutability":"view"},{"type":"function","name":"goodLibraryError","inputs":[],"outputs":[],"stateMutability":"pure"},{"type":"function","name":"number","inputs":[],"outputs":[{"name":"","type":"uint256","internalType":"uint256"}],"stateMutability":"view"},{"type":"function","name":"perform","inputs":[],"outputs":[],"stateMutability":"nonpayable"},{"type":"error","name":"CannotRenounceWhilePaused","inputs":[{"name":"account","type":"address","internalType":"address"}]},{"type":"error","name":"LibraryError","inputs":[]},{"type":"error","name":"UnusedError1","inputs":[{"name":"account","type":"address","internalType":"address"}]}],"bytecode":{"object":"0x60806040526000805534801561001457600080fd5b5060f8806100236000396000f3fe6080604052348015600f57600080fd5b506004361060465760003560e01c80634798aa5d14604b5780638381f58a146053578063b147f40c14606d578063d3670f54146073575b600080fd5b60516079565b005b605b60005481565b60405190815260200160405180910390f35b60516098565b605160ac565b6040516383911dd560e01b815233600482015260240160405180910390fd5b60008054908060a58360c5565b9190505550565b6040516302c3ee4560e31b815260040160405180910390fd5b60006001820160e457634e487b7160e01b600052601160045260246000fd5b506001019056fea164736f6c6343000813000a","linkReferences":{}},"methodIdentifiers":{"goodError()":"4798aa5d","goodLibraryError()":"d3670f54","number()":"8381f58a","perform()":"b147f40c"},"id":17}