{
  "abi": [
    {
      "inputs": [
        {
          "internalType": "address",
          "name": "target",
          "type": "address"
        }
      ],
      "stateMutability": "nonpayable",
      "type": "constructor"
    },
    {
      "inputs": [
        {
          "internalType": "uint256",
          "name": "amount",
          "type": "uint256"
        }
      ],
      "name": "badCalls",
      "outputs": [],
      "stateMutability": "nonpayable",
      "type": "function"
    },
    {
      "inputs": [
        {
          "internalType": "uint256",
          "name": "amount",
          "type": "uint256"
        }
      ],
      "name": "goodCalls",
      "outputs": [],
      "stateMutability": "nonpayable",
      "type": "function"
    }
  ],
  "bytecode": {
    "object": "0x608060405234801561001057600080fd5b506040516102a73803806102a783398101604081905261002f91610054565b600080546001600160a01b0319166001600160a01b0392909216919091179055610084565b60006020828403121561006657600080fd5b81516001600160a01b038116811461007d57600080fd5b9392505050565b610214806100936000396000f3fe608060405234801561001057600080fd5b50600436106100365760003560e01c80633866f21a1461003b578063b2edb2c114610050575b600080fd5b61004e6100493660046101c5565b610063565b005b61004e61005e3660046101c5565b61007e565b600080546001600160a01b03168180808086855af150505050565b6000805460405182916001600160a01b03169084908381818185875af1925050503d80600081146100cb576040519150601f19603f3d011682016040523d82523d6000602084013e6100d0565b606091505b5091509150816101215760405162461bcd60e51b815260206004820152601760248201527608edeec7440ccc2d2d8cac840e8de40e6cadcc840cae8d604b1b60448201526064015b60405180910390fd5b600080546040516001600160a01b039091169185919081818185875af1925050503d806000811461016e576040519150601f19603f3d011682016040523d82523d6000602084013e610173565b606091505b505080925050816101c05760405162461bcd60e51b815260206004820152601760248201527608edeec7440ccc2d2d8cac840e8de40e6cadcc840cae8d604b1b6044820152606401610118565b505050565b6000602082840312156101d757600080fd5b503591905056fea2646970667358221220d048ece63e6d9eec90d1936f0efb3d467d2e93b9140ddb1d0f48d0a9b785b5c264736f6c63430008140033",
    "linkReferences": {}
  },
  "methodIdentifiers": {
    "badCalls(uint256)": "b2edb2c1",
    "goodCalls(uint256)": "3866f21a"
  },
  "id": 0
}