{"abi":[{"type":"constructor","inputs":[],"stateMutability":"nonpayable"},{"type":"receive","stateMutability":"payable"},{"type":"function","name":"changeOwner","inputs":[{"name":"newOwner","type":"address","internalType":"address payable"}],"outputs":[],"stateMutability":"nonpayable"},{"type":"function","name":"executeTransfer","inputs":[{"name":"recipient","type":"address","internalType":"address payable"},{"name":"value","type":"uint256","internalType":"uint256"}],"outputs":[],"stateMutability":"nonpayable"},{"type":"function","name":"safeSend","inputs":[{"name":"receiver","type":"address","internalType":"address payable"},{"name":"amount","type":"uint256","internalType":"uint256"}],"outputs":[],"stateMutability":"nonpayable"},{"type":"function","name":"safeSend2","inputs":[{"name":"receiver","type":"address","internalType":"address payable"},{"name":"amount","type":"uint256","internalType":"uint256"}],"outputs":[],"stateMutability":"nonpayable"},{"type":"function","name":"safeSend3","inputs":[{"name":"receiver","type":"address","internalType":"address payable"},{"name":"amount","type":"uint256","internalType":"uint256"}],"outputs":[],"stateMutability":"nonpayable"},{"type":"event","name":"TransferMade","inputs":[{"name":"sender","type":"address","indexed":true,"internalType":"address"},{"name":"receiver","type":"address","indexed":true,"internalType":"address"},{"name":"amount","type":"uint256","indexed":false,"internalType":"uint256"}],"anonymous":false}],"bytecode":{"object":"0x608060405234801561001057600080fd5b50600080546001600160a01b031916331790556102c7806100326000396000f3fe60806040526004361061004e5760003560e01c806307ad9ecb1461005a5780632a6e349c1461005a578063893a790c1461005a578063a6f9dae11461007c578063fd6b73ad1461009c57600080fd5b3661005557005b600080fd5b34801561006657600080fd5b5061007a610075366004610237565b6100bc565b005b34801561008857600080fd5b5061007a610097366004610261565b61012a565b3480156100a857600080fd5b5061007a6100b7366004610237565b610176565b6000546001600160a01b031632146100ef5760405162461bcd60e51b81526004016100e690610283565b60405180910390fd5b6040516001600160a01b0383169082156108fc029083906000818181858888f19350505050158015610125573d6000803e3d6000fd5b505050565b6000546001600160a01b031632146101545760405162461bcd60e51b81526004016100e690610283565b600080546001600160a01b0319166001600160a01b0392909216919091179055565b6000546001600160a01b031632146101a05760405162461bcd60e51b81526004016100e690610283565b6040516001600160a01b0383169082156108fc029083906000818181858888f193505050501580156101d6573d6000803e3d6000fd5b506040518181526001600160a01b0383169033907f422971e1d1a7c8b68372f65fe1426aef054f0c6290124a929c843c5c019521d69060200160405180910390a35050565b80356001600160a01b038116811461023257600080fd5b919050565b6000806040838503121561024a57600080fd5b6102538361021b565b946020939093013593505050565b60006020828403121561027357600080fd5b61027c8261021b565b9392505050565b60208082526017908201527f43616c6c6572206973206e6f7420746865206f776e657200000000000000000060408201526060019056fea164736f6c6343000818000a","linkReferences":{}},"methodIdentifiers":{"changeOwner(address)":"a6f9dae1","executeTransfer(address,uint256)":"fd6b73ad","safeSend(address,uint256)":"07ad9ecb","safeSend2(address,uint256)":"2a6e349c","safeSend3(address,uint256)":"893a790c"},"id":0}