{
    "abi": [
        {
            "inputs": [
                {
                    "internalType": "uint256",
                    "name": "_privateImmutableNumber",
                    "type": "uint256"
                },
                {
                    "internalType": "uint256",
                    "name": "_internalImmutableNumber",
                    "type": "uint256"
                },
                {
                    "internalType": "uint256",
                    "name": "_publicImmutableNumber",
                    "type": "uint256"
                }
            ],
            "stateMutability": "nonpayable",
            "type": "constructor"
        },
        {
            "inputs": [],
            "name": "PUBLIC_CONSTANT",
            "outputs": [
                {
                    "internalType": "uint256",
                    "name": "",
                    "type": "uint256"
                }
            ],
            "stateMutability": "view",
            "type": "function"
        },
        {
            "inputs": [],
            "name": "addr",
            "outputs": [
                {
                    "internalType": "address",
                    "name": "",
                    "type": "address"
                }
            ],
            "stateMutability": "view",
            "type": "function"
        },
        {
            "inputs": [],
            "name": "emptyAlteredPublicNumber",
            "outputs": [
                {
                    "internalType": "uint256",
                    "name": "",
                    "type": "uint256"
                }
            ],
            "stateMutability": "view",
            "type": "function"
        },
        {
            "inputs": [],
            "name": "initializeAndUseStateVariable",
            "outputs": [],
            "stateMutability": "payable",
            "type": "function"
        },
        {
            "inputs": [],
            "name": "nonEmptyAlteredPublicNumber",
            "outputs": [
                {
                    "internalType": "uint256",
                    "name": "",
                    "type": "uint256"
                }
            ],
            "stateMutability": "view",
            "type": "function"
        },
        {
            "inputs": [],
            "name": "publicImmutableNumber",
            "outputs": [
                {
                    "internalType": "uint256",
                    "name": "",
                    "type": "uint256"
                }
            ],
            "stateMutability": "view",
            "type": "function"
        },
        {
            "inputs": [
                {
                    "internalType": "address",
                    "name": "newAddr",
                    "type": "address"
                }
            ],
            "name": "setAddrNoCheck",
            "outputs": [],
            "stateMutability": "nonpayable",
            "type": "function"
        },
        {
            "inputs": [
                {
                    "internalType": "address",
                    "name": "newAddr",
                    "type": "address"
                }
            ],
            "name": "setAddrNoZeroError",
            "outputs": [],
            "stateMutability": "nonpayable",
            "type": "function"
        },
        {
            "inputs": [
                {
                    "internalType": "address",
                    "name": "newAddr",
                    "type": "address"
                }
            ],
            "name": "setAddrNoZeroRequire",
            "outputs": [],
            "stateMutability": "nonpayable",
            "type": "function"
        },
        {
            "inputs": [
                {
                    "internalType": "uint256",
                    "name": "_emptyAlteredPrivateNumber",
                    "type": "uint256"
                },
                {
                    "internalType": "uint256",
                    "name": "_emptyAlteredInternalNumber",
                    "type": "uint256"
                },
                {
                    "internalType": "uint256",
                    "name": "_emptyAlteredPublicNumber",
                    "type": "uint256"
                }
            ],
            "name": "setEmptyAlteredNumbers",
            "outputs": [],
            "stateMutability": "nonpayable",
            "type": "function"
        },
        {
            "inputs": [
                {
                    "internalType": "uint256",
                    "name": "_nonEmptyAlteredPrivateNumber",
                    "type": "uint256"
                },
                {
                    "internalType": "uint256",
                    "name": "_nonEmptyAlteredInternalNumber",
                    "type": "uint256"
                },
                {
                    "internalType": "uint256",
                    "name": "_nonEmptyAlteredPublicNumber",
                    "type": "uint256"
                }
            ],
            "name": "setNonEmptyAlteredNumbers",
            "outputs": [],
            "stateMutability": "nonpayable",
            "type": "function"
        },
        {
            "inputs": [],
            "name": "staticNonEmptyPublicNumber",
            "outputs": [
                {
                    "internalType": "uint256",
                    "name": "",
                    "type": "uint256"
                }
            ],
            "stateMutability": "view",
            "type": "function"
        },
        {
            "inputs": [],
            "name": "staticPublicNumber",
            "outputs": [
                {
                    "internalType": "uint256",
                    "name": "",
                    "type": "uint256"
                }
            ],
            "stateMutability": "view",
            "type": "function"
        },
        {
            "inputs": [],
            "name": "useUninitializedAddressForCall",
            "outputs": [],
            "stateMutability": "payable",
            "type": "function"
        },
        {
            "inputs": [],
            "name": "useUninitializedAddressForTransfer",
            "outputs": [],
            "stateMutability": "payable",
            "type": "function"
        },
        {
            "inputs": [],
            "name": "ZeroAddressError",
            "type": "error"
        }
    ],
    "bytecode": {
        "linkReferences": {},
        "object": "0x60e060405260016003556002600455600360055560016009556002600a556003600b5534801561002e57600080fd5b5060405161051f38038061051f83398101604081905261004d9161005e565b60809290925260a05260c05261008c565b60008060006060848603121561007357600080fd5b8351925060208401519150604084015190509250925092565b60805160a05160c05161046a6100b560003960006101600152600050506000505061046a6000f3fe6080604052600436106100e85760003560e01c8063862202511161008a578063ab34420411610059578063ab34420414610249578063d2411cb814610272578063d55c09ec1461027a578063ebf7dd3a1461028f57600080fd5b80638622025114610203578063960e6cf11461020b5780639c5eb6c514610221578063a6db5ad41461022957600080fd5b806350e56ca2116100c657806350e56ca21461014e57806353176088146101825780636e362f31146101a2578063767800de146101cb57600080fd5b8063041e9204146100ed57806321a16478146101165780633834673414610138575b600080fd5b3480156100f957600080fd5b5061010360025481565b6040519081526020015b60405180910390f35b34801561012257600080fd5b506101366101313660046103d8565b6102a5565b005b34801561014457600080fd5b5061010360055481565b34801561015a57600080fd5b506101037f000000000000000000000000000000000000000000000000000000000000000081565b34801561018e57600080fd5b5061013661019d3660046103d8565b6102ee565b3480156101ae57600080fd5b506101366101bd366004610408565b600692909255600755600855565b3480156101d757600080fd5b50600c546101eb906001600160a01b031681565b6040516001600160a01b03909116815260200161010d565b610136610341565b34801561021757600080fd5b50610103600b5481565b610136610393565b34801561023557600080fd5b506101366102443660046103d8565b6102cc565b34801561025557600080fd5b50610136610264366004610408565b600992909255600a55600b55565b6101366103cf565b34801561028657600080fd5b50610103600381565b34801561029b57600080fd5b5061010360085481565b6001600160a01b0381166102cc57604051633efa09af60e01b815260040160405180910390fd5b600c80546001600160a01b0319166001600160a01b0392909216919091179055565b6001600160a01b0381166102cc5760405162461bcd60e51b8152602060048201526016602482015275416464726573732063616e6e6f74206265207a65726f60501b604482015260640160405180910390fd5b600c546040516001600160a01b03909116903490600081818185875af1925050503d806000811461038e576040519150601f19603f3d011682016040523d82523d6000602084013e505050565b505050565b600c546040516001600160a01b03909116903480156108fc02916000818181858888f193505050501580156103cc573d6000803e3d6000fd5b50565b610393336102ee565b6000602082840312156103ea57600080fd5b81356001600160a01b038116811461040157600080fd5b9392505050565b60008060006060848603121561041d57600080fd5b50508135936020830135935060409092013591905056fea264697066735822122057e890347dbb95eaf87c19e722d1d3593aa8be67e945f56523a4cd90efe5f43a64736f6c63430008140033"
    },
    "id": 1,
    "methodIdentifiers": {
        "addr()": "767800de",
        "emptyAlteredPublicNumber()": "ebf7dd3a",
        "initializeAndUseStateVariable()": "d2411cb8",
        "nonEmptyAlteredPublicNumber()": "960e6cf1",
        "PUBLIC_CONSTANT()": "d55c09ec",
        "publicImmutableNumber()": "50e56ca2",
        "setAddrNoCheck(address)": "a6db5ad4",
        "setAddrNoZeroError(address)": "21a16478",
        "setAddrNoZeroRequire(address)": "53176088",
        "setEmptyAlteredNumbers(uint256,uint256,uint256)": "6e362f31",
        "setNonEmptyAlteredNumbers(uint256,uint256,uint256)": "ab344204",
        "staticNonEmptyPublicNumber()": "38346734",
        "staticPublicNumber()": "041e9204",
        "useUninitializedAddressForCall()": "86220251",
        "useUninitializedAddressForTransfer()": "9c5eb6c5"
    }
}