{"abi":[{"type":"constructor","inputs":[{"name":"_privateImmutableNumber","type":"uint256","internalType":"uint256"},{"name":"_internalImmutableNumber","type":"uint256","internalType":"uint256"},{"name":"_publicImmutableNumber","type":"uint256","internalType":"uint256"}],"stateMutability":"nonpayable"},{"type":"function","name":"PUBLIC_CONSTANT","inputs":[],"outputs":[{"name":"","type":"uint256","internalType":"uint256"}],"stateMutability":"view"},{"type":"function","name":"addr","inputs":[],"outputs":[{"name":"","type":"address","internalType":"address"}],"stateMutability":"view"},{"type":"function","name":"addr2","inputs":[],"outputs":[{"name":"","type":"address","internalType":"address"}],"stateMutability":"view"},{"type":"function","name":"emptyAlteredPublicNumber","inputs":[],"outputs":[{"name":"","type":"uint256","internalType":"uint256"}],"stateMutability":"view"},{"type":"function","name":"initializeAndUseStateVariable","inputs":[],"outputs":[],"stateMutability":"payable"},{"type":"function","name":"nonEmptyAlteredPublicNumber","inputs":[],"outputs":[{"name":"","type":"uint256","internalType":"uint256"}],"stateMutability":"view"},{"type":"function","name":"publicImmutableNumber","inputs":[],"outputs":[{"name":"","type":"uint256","internalType":"uint256"}],"stateMutability":"view"},{"type":"function","name":"setAddrNoCheck","inputs":[{"name":"newAddr","type":"address","internalType":"address"}],"outputs":[],"stateMutability":"nonpayable"},{"type":"function","name":"setAddrNoZeroError","inputs":[{"name":"newAddr","type":"address","internalType":"address"}],"outputs":[],"stateMutability":"nonpayable"},{"type":"function","name":"setAddrNoZeroRequire","inputs":[{"name":"newAddr","type":"address","internalType":"address"}],"outputs":[],"stateMutability":"nonpayable"},{"type":"function","name":"setEmptyAlteredNumbers","inputs":[{"name":"_emptyAlteredPrivateNumber","type":"uint256","internalType":"uint256"},{"name":"_emptyAlteredInternalNumber","type":"uint256","internalType":"uint256"},{"name":"_emptyAlteredPublicNumber","type":"uint256","internalType":"uint256"}],"outputs":[],"stateMutability":"nonpayable"},{"type":"function","name":"setNonEmptyAlteredNumbers","inputs":[{"name":"_nonEmptyAlteredPrivateNumber","type":"uint256","internalType":"uint256"},{"name":"_nonEmptyAlteredInternalNumber","type":"uint256","internalType":"uint256"},{"name":"_nonEmptyAlteredPublicNumber","type":"uint256","internalType":"uint256"}],"outputs":[],"stateMutability":"nonpayable"},{"type":"function","name":"staticNonEmptyPublicNumber","inputs":[],"outputs":[{"name":"","type":"uint256","internalType":"uint256"}],"stateMutability":"view"},{"type":"function","name":"staticPublicNumber","inputs":[],"outputs":[{"name":"","type":"uint256","internalType":"uint256"}],"stateMutability":"view"},{"type":"function","name":"useUninitializedAddressForCall","inputs":[],"outputs":[],"stateMutability":"payable"},{"type":"function","name":"useUninitializedAddressForTransfer","inputs":[],"outputs":[],"stateMutability":"payable"},{"type":"error","name":"ZeroAddressError","inputs":[]}],"bytecode":{"object":"0x60e060405260016003556002600455600360055560016009556002600a556003600b5534801561002e57600080fd5b5060405161060f38038061060f83398101604081905261004d9161005e565b60809290925260a05260c05261008c565b60008060006060848603121561007357600080fd5b8351925060208401519150604084015190509250925092565b60805160a05160c05161055a6100b5600039600061016b0152600050506000505061055a6000f3fe6080604052600436106100f35760003560e01c80638de38f981161008a578063ab34420411610059578063ab34420414610274578063d2411cb81461029d578063d55c09ec146102a5578063ebf7dd3a146102ba57600080fd5b80638de38f9814610216578063960e6cf1146102365780639c5eb6c51461024c578063a6db5ad41461025457600080fd5b806353176088116100c6578063531760881461018d5780636e362f31146101ad578063767800de146101d6578063862202511461020e57600080fd5b8063041e9204146100f857806321a1647814610121578063383467341461014357806350e56ca214610159575b600080fd5b34801561010457600080fd5b5061010e60025481565b6040519081526020015b60405180910390f35b34801561012d57600080fd5b5061014161013c3660046104c8565b6102d0565b005b34801561014f57600080fd5b5061010e60055481565b34801561016557600080fd5b5061010e7f000000000000000000000000000000000000000000000000000000000000000081565b34801561019957600080fd5b506101416101a83660046104c8565b610319565b3480156101b957600080fd5b506101416101c83660046104f8565b600692909255600755600855565b3480156101e257600080fd5b50600c546101f6906001600160a01b031681565b6040516001600160a01b039091168152602001610118565b61014161036c565b34801561022257600080fd5b50600d546101f6906001600160a01b031681565b34801561024257600080fd5b5061010e600b5481565b610141610413565b34801561026057600080fd5b5061014161026f3660046104c8565b6102f7565b34801561028057600080fd5b5061014161028f3660046104f8565b600992909255600a55600b55565b610141610489565b3480156102b157600080fd5b5061010e600381565b3480156102c657600080fd5b5061010e60085481565b6001600160a01b0381166102f757604051633efa09af60e01b815260040160405180910390fd5b600c80546001600160a01b0319166001600160a01b0392909216919091179055565b6001600160a01b0381166102f75760405162461bcd60e51b8152602060048201526016602482015275416464726573732063616e6e6f74206265207a65726f60501b604482015260640160405180910390fd5b600c546040516001600160a01b03909116903490600081818185875af1925050503d80600081146103b9576040519150601f19603f3d011682016040523d82523d6000602084013e6103be565b606091505b5050600d546040516001600160a01b0390911691503490600081818185875af1925050503d806000811461040e576040519150601f19603f3d011682016040523d82523d6000602084013e505050565b505050565b600c546040516001600160a01b03909116903480156108fc02916000818181858888f1935050505015801561044c573d6000803e3d6000fd5b50600d546040516001600160a01b03909116903480156108fc02916000818181858888f19350505050158015610486573d6000803e3d6000fd5b50565b600c80546001600160a01b031916339081179091556040513480156108fc02916000818181858888f1935050505015801561044c573d6000803e3d6000fd5b6000602082840312156104da57600080fd5b81356001600160a01b03811681146104f157600080fd5b9392505050565b60008060006060848603121561050d57600080fd5b50508135936020830135935060409092013591905056fea26469706673582212208a9118c92f61cebf0c2a11a9c6b3dc3203265b342315e63c3dd4319665a9ee2764736f6c63430008140033","linkReferences":{}},"methodIdentifiers":{"PUBLIC_CONSTANT()":"d55c09ec","addr()":"767800de","addr2()":"8de38f98","emptyAlteredPublicNumber()":"ebf7dd3a","initializeAndUseStateVariable()":"d2411cb8","nonEmptyAlteredPublicNumber()":"960e6cf1","publicImmutableNumber()":"50e56ca2","setAddrNoCheck(address)":"a6db5ad4","setAddrNoZeroError(address)":"21a16478","setAddrNoZeroRequire(address)":"53176088","setEmptyAlteredNumbers(uint256,uint256,uint256)":"6e362f31","setNonEmptyAlteredNumbers(uint256,uint256,uint256)":"ab344204","staticNonEmptyPublicNumber()":"38346734","staticPublicNumber()":"041e9204","useUninitializedAddressForCall()":"86220251","useUninitializedAddressForTransfer()":"9c5eb6c5"},"id":1}