{"abi":[{"type":"constructor","inputs":[{"name":"_privateImmutableNumber","type":"uint256","internalType":"uint256"},{"name":"_internalImmutableNumber","type":"uint256","internalType":"uint256"},{"name":"_publicImmutableNumber","type":"uint256","internalType":"uint256"}],"stateMutability":"nonpayable"},{"type":"function","name":"PUBLIC_CONSTANT","inputs":[],"outputs":[{"name":"","type":"uint256","internalType":"uint256"}],"stateMutability":"view"},{"type":"function","name":"addr","inputs":[],"outputs":[{"name":"","type":"address","internalType":"address"}],"stateMutability":"view"},{"type":"function","name":"emptyAlteredPublicNumber","inputs":[],"outputs":[{"name":"","type":"uint256","internalType":"uint256"}],"stateMutability":"view"},{"type":"function","name":"nonEmptyAlteredPublicNumber","inputs":[],"outputs":[{"name":"","type":"uint256","internalType":"uint256"}],"stateMutability":"view"},{"type":"function","name":"publicImmutableNumber","inputs":[],"outputs":[{"name":"","type":"uint256","internalType":"uint256"}],"stateMutability":"view"},{"type":"function","name":"setAddrNoCheck","inputs":[{"name":"newAddr","type":"address","internalType":"address"}],"outputs":[],"stateMutability":"nonpayable"},{"type":"function","name":"setAddrNoZeroError","inputs":[{"name":"newAddr","type":"address","internalType":"address"}],"outputs":[],"stateMutability":"nonpayable"},{"type":"function","name":"setAddrNoZeroRequire","inputs":[{"name":"newAddr","type":"address","internalType":"address"}],"outputs":[],"stateMutability":"nonpayable"},{"type":"function","name":"setEmptyAlteredNumbers","inputs":[{"name":"_emptyAlteredPrivateNumber","type":"uint256","internalType":"uint256"},{"name":"_emptyAlteredInternalNumber","type":"uint256","internalType":"uint256"},{"name":"_emptyAlteredPublicNumber","type":"uint256","internalType":"uint256"}],"outputs":[],"stateMutability":"nonpayable"},{"type":"function","name":"setNonEmptyAlteredNumbers","inputs":[{"name":"_nonEmptyAlteredPrivateNumber","type":"uint256","internalType":"uint256"},{"name":"_nonEmptyAlteredInternalNumber","type":"uint256","internalType":"uint256"},{"name":"_nonEmptyAlteredPublicNumber","type":"uint256","internalType":"uint256"}],"outputs":[],"stateMutability":"nonpayable"},{"type":"function","name":"staticNonEmptyPublicNumber","inputs":[],"outputs":[{"name":"","type":"uint256","internalType":"uint256"}],"stateMutability":"view"},{"type":"function","name":"staticPublicNumber","inputs":[],"outputs":[{"name":"","type":"uint256","internalType":"uint256"}],"stateMutability":"view"},{"type":"error","name":"ZeroAddressError","inputs":[]}],"bytecode":{"object":"0x60e060405260016003556002600455600360055560016009556002600a556003600b5534801561002e57600080fd5b5060405161037638038061037683398101604081905261004d9161005e565b60809290925260a05260c05261008c565b60008060006060848603121561007357600080fd5b8351925060208401519150604084015190509250925092565b60805160a05160c0516102c26100b4600039600060f8015260005050600050506102c26000f3fe608060405234801561001057600080fd5b50600436106100b45760003560e01c8063767800de11610071578063767800de14610149578063960e6cf114610174578063a6db5ad41461017d578063ab34420414610190578063d55c09ec146101ac578063ebf7dd3a146101b457600080fd5b8063041e9204146100b957806321a16478146100d557806338346734146100ea57806350e56ca2146100f3578063531760881461011a5780636e362f311461012d575b600080fd5b6100c260025481565b6040519081526020015b60405180910390f35b6100e86100e3366004610259565b6101bd565b005b6100c260055481565b6100c27f000000000000000000000000000000000000000000000000000000000000000081565b6100e8610128366004610259565b610206565b6100e861013b366004610289565b600692909255600755600855565b600c5461015c906001600160a01b031681565b6040516001600160a01b0390911681526020016100cc565b6100c2600b5481565b6100e861018b366004610259565b6101e4565b6100e861019e366004610289565b600992909255600a55600b55565b6100c2600381565b6100c260085481565b6001600160a01b0381166101e457604051633efa09af60e01b815260040160405180910390fd5b600c80546001600160a01b0319166001600160a01b0392909216919091179055565b6001600160a01b0381166101e45760405162461bcd60e51b8152602060048201526016602482015275416464726573732063616e6e6f74206265207a65726f60501b604482015260640160405180910390fd5b60006020828403121561026b57600080fd5b81356001600160a01b038116811461028257600080fd5b9392505050565b60008060006060848603121561029e57600080fd5b50508135936020830135935060409092013591905056fea164736f6c6343000814000a","linkReferences":{}},"methodIdentifiers":{"PUBLIC_CONSTANT()":"d55c09ec","addr()":"767800de","emptyAlteredPublicNumber()":"ebf7dd3a","nonEmptyAlteredPublicNumber()":"960e6cf1","publicImmutableNumber()":"50e56ca2","setAddrNoCheck(address)":"a6db5ad4","setAddrNoZeroError(address)":"21a16478","setAddrNoZeroRequire(address)":"53176088","setEmptyAlteredNumbers(uint256,uint256,uint256)":"6e362f31","setNonEmptyAlteredNumbers(uint256,uint256,uint256)":"ab344204","staticNonEmptyPublicNumber()":"38346734","staticPublicNumber()":"041e9204"},"id":29}