{
  "abi": [
    {
      "inputs": [
        {
          "internalType": "uint256",
          "name": "_privateImmutableNumber",
          "type": "uint256"
        },
        {
          "internalType": "uint256",
          "name": "_internalImmutableNumber",
          "type": "uint256"
        },
        {
          "internalType": "uint256",
          "name": "_publicImmutableNumber",
          "type": "uint256"
        }
      ],
      "stateMutability": "nonpayable",
      "type": "constructor"
    },
    {
      "inputs": [],
      "name": "PUBLIC_CONSTANT",
      "outputs": [
        {
          "internalType": "uint256",
          "name": "",
          "type": "uint256"
        }
      ],
      "stateMutability": "view",
      "type": "function"
    },
    {
      "inputs": [],
      "name": "emptyAlteredPublicNumber",
      "outputs": [
        {
          "internalType": "uint256",
          "name": "",
          "type": "uint256"
        }
      ],
      "stateMutability": "view",
      "type": "function"
    },
    {
      "inputs": [],
      "name": "nonEmptyAlteredPublicNumber",
      "outputs": [
        {
          "internalType": "uint256",
          "name": "",
          "type": "uint256"
        }
      ],
      "stateMutability": "view",
      "type": "function"
    },
    {
      "inputs": [],
      "name": "publicImmutableNumber",
      "outputs": [
        {
          "internalType": "uint256",
          "name": "",
          "type": "uint256"
        }
      ],
      "stateMutability": "view",
      "type": "function"
    },
    {
      "inputs": [
        {
          "internalType": "uint256",
          "name": "_emptyAlteredPrivateNumber",
          "type": "uint256"
        },
        {
          "internalType": "uint256",
          "name": "_emptyAlteredInternalNumber",
          "type": "uint256"
        },
        {
          "internalType": "uint256",
          "name": "_emptyAlteredPublicNumber",
          "type": "uint256"
        }
      ],
      "name": "setEmptyAlteredNumbers",
      "outputs": [],
      "stateMutability": "nonpayable",
      "type": "function"
    },
    {
      "inputs": [
        {
          "internalType": "uint256",
          "name": "_nonEmptyAlteredPrivateNumber",
          "type": "uint256"
        },
        {
          "internalType": "uint256",
          "name": "_nonEmptyAlteredInternalNumber",
          "type": "uint256"
        },
        {
          "internalType": "uint256",
          "name": "_nonEmptyAlteredPublicNumber",
          "type": "uint256"
        }
      ],
      "name": "setNonEmptyAlteredNumbers",
      "outputs": [],
      "stateMutability": "nonpayable",
      "type": "function"
    },
    {
      "inputs": [],
      "name": "staticNonEmptyPublicNumber",
      "outputs": [
        {
          "internalType": "uint256",
          "name": "",
          "type": "uint256"
        }
      ],
      "stateMutability": "view",
      "type": "function"
    },
    {
      "inputs": [],
      "name": "staticPublicNumber",
      "outputs": [
        {
          "internalType": "uint256",
          "name": "",
          "type": "uint256"
        }
      ],
      "stateMutability": "view",
      "type": "function"
    }
  ],
  "bytecode": {
    "object": "0x60e060405260016003556002600455600360055560016009556002600a556003600b5534801561002e57600080fd5b5060405161024238038061024283398101604081905261004d9161005e565b60809290925260a05260c05261008c565b60008060006060848603121561007357600080fd5b8351925060208401519150604084015190509250925092565b60805160a05160c05161018e6100b4600039600060b60152600050506000505061018e6000f3fe608060405234801561001057600080fd5b50600436106100885760003560e01c8063960e6cf11161005b578063960e6cf1146100f6578063ab344204146100ff578063d55c09ec1461011b578063ebf7dd3a1461012357600080fd5b8063041e92041461008d57806338346734146100a857806350e56ca2146100b15780636e362f31146100d8575b600080fd5b61009660025481565b60405190815260200160405180910390f35b61009660055481565b6100967f000000000000000000000000000000000000000000000000000000000000000081565b6100f46100e636600461012c565b600692909255600755600855565b005b610096600b5481565b6100f461010d36600461012c565b600992909255600a55600b55565b610096600381565b61009660085481565b60008060006060848603121561014157600080fd5b50508135936020830135935060409092013591905056fea264697066735822122010449caf3aeb24942bf55439a5030068a89683e25934c75cd2f9ef3623a4bc1064736f6c63430008140033",
    "linkReferences": {}
  },
  "methodIdentifiers": {
    "PUBLIC_CONSTANT()": "d55c09ec",
    "emptyAlteredPublicNumber()": "ebf7dd3a",
    "nonEmptyAlteredPublicNumber()": "960e6cf1",
    "publicImmutableNumber()": "50e56ca2",
    "setEmptyAlteredNumbers(uint256,uint256,uint256)": "6e362f31",
    "setNonEmptyAlteredNumbers(uint256,uint256,uint256)": "ab344204",
    "staticNonEmptyPublicNumber()": "38346734",
    "staticPublicNumber()": "041e9204"
  },
  "id": 27
}