{
  "abi": [
    {
      "anonymous": false,
      "inputs": [
        {
          "indexed": true,
          "internalType": "bytes32",
          "name": "role",
          "type": "bytes32"
        },
        {
          "indexed": true,
          "internalType": "bytes32",
          "name": "previousAdminRole",
          "type": "bytes32"
        },
        {
          "indexed": true,
          "internalType": "bytes32",
          "name": "newAdminRole",
          "type": "bytes32"
        }
      ],
      "name": "RoleAdminChanged",
      "type": "event"
    },
    {
      "anonymous": false,
      "inputs": [
        {
          "indexed": true,
          "internalType": "bytes32",
          "name": "role",
          "type": "bytes32"
        },
        {
          "indexed": true,
          "internalType": "address",
          "name": "account",
          "type": "address"
        },
        {
          "indexed": true,
          "internalType": "address",
          "name": "sender",
          "type": "address"
        }
      ],
      "name": "RoleGranted",
      "type": "event"
    },
    {
      "anonymous": false,
      "inputs": [
        {
          "indexed": true,
          "internalType": "bytes32",
          "name": "role",
          "type": "bytes32"
        },
        {
          "indexed": true,
          "internalType": "address",
          "name": "account",
          "type": "address"
        },
        {
          "indexed": true,
          "internalType": "address",
          "name": "sender",
          "type": "address"
        }
      ],
      "name": "RoleRevoked",
      "type": "event"
    },
    {
      "inputs": [],
      "name": "DEFAULT_ADMIN_ROLE",
      "outputs": [
        {
          "internalType": "bytes32",
          "name": "",
          "type": "bytes32"
        }
      ],
      "stateMutability": "view",
      "type": "function"
    },
    {
      "inputs": [
        {
          "internalType": "contract IERC20",
          "name": "token",
          "type": "address"
        },
        {
          "internalType": "address",
          "name": "spender",
          "type": "address"
        },
        {
          "internalType": "uint256",
          "name": "value",
          "type": "uint256"
        }
      ],
      "name": "approveSuccess",
      "outputs": [],
      "stateMutability": "nonpayable",
      "type": "function"
    },
    {
      "inputs": [
        {
          "internalType": "bytes32",
          "name": "role",
          "type": "bytes32"
        }
      ],
      "name": "getRoleAdmin",
      "outputs": [
        {
          "internalType": "bytes32",
          "name": "",
          "type": "bytes32"
        }
      ],
      "stateMutability": "view",
      "type": "function"
    },
    {
      "inputs": [
        {
          "internalType": "bytes32",
          "name": "role",
          "type": "bytes32"
        },
        {
          "internalType": "address",
          "name": "account",
          "type": "address"
        }
      ],
      "name": "grantRole",
      "outputs": [],
      "stateMutability": "nonpayable",
      "type": "function"
    },
    {
      "inputs": [
        {
          "internalType": "bytes32",
          "name": "role",
          "type": "bytes32"
        },
        {
          "internalType": "address",
          "name": "account",
          "type": "address"
        }
      ],
      "name": "grantRoleSuccess",
      "outputs": [],
      "stateMutability": "nonpayable",
      "type": "function"
    },
    {
      "inputs": [
        {
          "internalType": "bytes32",
          "name": "role",
          "type": "bytes32"
        },
        {
          "internalType": "address",
          "name": "account",
          "type": "address"
        }
      ],
      "name": "hasRole",
      "outputs": [
        {
          "internalType": "bool",
          "name": "",
          "type": "bool"
        }
      ],
      "stateMutability": "view",
      "type": "function"
    },
    {
      "inputs": [
        {
          "internalType": "bytes32",
          "name": "role",
          "type": "bytes32"
        },
        {
          "internalType": "address",
          "name": "account",
          "type": "address"
        }
      ],
      "name": "renounceRole",
      "outputs": [],
      "stateMutability": "nonpayable",
      "type": "function"
    },
    {
      "inputs": [
        {
          "internalType": "bytes32",
          "name": "role",
          "type": "bytes32"
        },
        {
          "internalType": "address",
          "name": "account",
          "type": "address"
        }
      ],
      "name": "revokeRole",
      "outputs": [],
      "stateMutability": "nonpayable",
      "type": "function"
    },
    {
      "inputs": [
        {
          "internalType": "contract IERC20",
          "name": "token",
          "type": "address"
        },
        {
          "internalType": "address",
          "name": "spender",
          "type": "address"
        },
        {
          "internalType": "uint256",
          "name": "value",
          "type": "uint256"
        }
      ],
      "name": "safeApproveFailure",
      "outputs": [],
      "stateMutability": "nonpayable",
      "type": "function"
    },
    {
      "inputs": [
        {
          "internalType": "bytes32",
          "name": "role",
          "type": "bytes32"
        },
        {
          "internalType": "address",
          "name": "account",
          "type": "address"
        }
      ],
      "name": "setupRoleFailure",
      "outputs": [],
      "stateMutability": "nonpayable",
      "type": "function"
    },
    {
      "inputs": [
        {
          "internalType": "bytes4",
          "name": "interfaceId",
          "type": "bytes4"
        }
      ],
      "name": "supportsInterface",
      "outputs": [
        {
          "internalType": "bool",
          "name": "",
          "type": "bool"
        }
      ],
      "stateMutability": "view",
      "type": "function"
    }
  ],
  "bytecode": {
    "object": "0x608060405234801561001057600080fd5b50610ccb806100206000396000f3fe608060405234801561001057600080fd5b50600436106100a95760003560e01c806336568abe1161007157806336568abe146101425780635cd277aa1461015557806391d1485414610168578063a217fddf1461017b578063d195899914610183578063d547741f1461019657600080fd5b806301ffc9a7146100ae57806316430cf4146100d6578063248a9ca3146100eb5780632db02daf1461011c5780632f2ff15d1461012f575b600080fd5b6100c16100bc366004610a26565b6101a9565b60405190151581526020015b60405180910390f35b6100e96100e4366004610a65565b6101e0565b005b61010e6100f9366004610a95565b60009081526020819052604090206001015490565b6040519081526020016100cd565b6100e961012a366004610a65565b6101ee565b6100e961013d366004610a65565b6101f8565b6100e9610150366004610a65565b610222565b6100e9610163366004610aae565b6102a1565b6100c1610176366004610a65565b61031a565b61010e600081565b6100e9610191366004610aae565b610343565b6100e96101a4366004610a65565b610357565b60006001600160e01b03198216637965db0b60e01b14806101da57506301ffc9a760e01b6001600160e01b03198316145b92915050565b6101ea82826101f8565b5050565b6101ea828261037c565b60008281526020819052604090206001015461021381610386565b61021d8383610393565b505050565b6001600160a01b03811633146102975760405162461bcd60e51b815260206004820152602f60248201527f416363657373436f6e74726f6c3a2063616e206f6e6c792072656e6f756e636560448201526e103937b632b9903337b91039b2b63360891b60648201526084015b60405180910390fd5b6101ea8282610417565b60405163095ea7b360e01b81526001600160a01b0383811660048301526024820183905284169063095ea7b3906044016020604051808303816000875af11580156102f0573d6000803e3d6000fd5b505050506040513d601f19601f820116820180604052508101906103149190610aef565b50505050565b6000918252602082815260408084206001600160a01b0393909316845291905290205460ff1690565b61021d6001600160a01b038416838361047c565b60008281526020819052604090206001015461037281610386565b61021d8383610417565b6101ea8282610393565b61039081336105b3565b50565b61039d828261031a565b6101ea576000828152602081815260408083206001600160a01b03851684529091529020805460ff191660011790556103d33390565b6001600160a01b0316816001600160a01b0316837f2f8788117e7eff1d82e926ec794901d17c78024a50270940304540a733656f0d60405160405180910390a45050565b610421828261031a565b156101ea576000828152602081815260408083206001600160a01b0385168085529252808320805460ff1916905551339285917ff6391f5c32d9c69d2a47ea670b442974b53935d1edc7fd64eb21e047a839171b9190a45050565b8015806104f65750604051636eb1769f60e11b81523060048201526001600160a01b03838116602483015284169063dd62ed3e90604401602060405180830381865afa1580156104d0573d6000803e3d6000fd5b505050506040513d601f19601f820116820180604052508101906104f49190610b11565b155b6105615760405162461bcd60e51b815260206004820152603660248201527f5361666545524332303a20617070726f76652066726f6d206e6f6e2d7a65726f60448201527520746f206e6f6e2d7a65726f20616c6c6f77616e636560501b606482015260840161028e565b604080516001600160a01b038416602482015260448082018490528251808303909101815260649091019091526020810180516001600160e01b031663095ea7b360e01b17905261021d90849061060c565b6105bd828261031a565b6101ea576105ca816106e1565b6105d58360206106f3565b6040516020016105e6929190610b4e565b60408051601f198184030181529082905262461bcd60e51b825261028e91600401610bc3565b6000610661826040518060400160405280602081526020017f5361666545524332303a206c6f772d6c6576656c2063616c6c206661696c6564815250856001600160a01b03166108969092919063ffffffff16565b90508051600014806106825750808060200190518101906106829190610aef565b61021d5760405162461bcd60e51b815260206004820152602a60248201527f5361666545524332303a204552433230206f7065726174696f6e20646964206e6044820152691bdd081cdd58d8d9595960b21b606482015260840161028e565b60606101da6001600160a01b03831660145b60606000610702836002610c0c565b61070d906002610c23565b67ffffffffffffffff81111561072557610725610c36565b6040519080825280601f01601f19166020018201604052801561074f576020820181803683370190505b509050600360fc1b8160008151811061076a5761076a610c4c565b60200101906001600160f81b031916908160001a905350600f60fb1b8160018151811061079957610799610c4c565b60200101906001600160f81b031916908160001a90535060006107bd846002610c0c565b6107c8906001610c23565b90505b6001811115610840576f181899199a1a9b1b9c1cb0b131b232b360811b85600f16601081106107fc576107fc610c4c565b1a60f81b82828151811061081257610812610c4c565b60200101906001600160f81b031916908160001a90535060049490941c9361083981610c62565b90506107cb565b50831561088f5760405162461bcd60e51b815260206004820181905260248201527f537472696e67733a20686578206c656e67746820696e73756666696369656e74604482015260640161028e565b9392505050565b60606108a584846000856108ad565b949350505050565b60608247101561090e5760405162461bcd60e51b815260206004820152602660248201527f416464726573733a20696e73756666696369656e742062616c616e636520666f6044820152651c8818d85b1b60d21b606482015260840161028e565b600080866001600160a01b0316858760405161092a9190610c79565b60006040518083038185875af1925050503d8060008114610967576040519150601f19603f3d011682016040523d82523d6000602084013e61096c565b606091505b509150915061097d87838387610988565b979650505050505050565b606083156109f75782516000036109f0576001600160a01b0385163b6109f05760405162461bcd60e51b815260206004820152601d60248201527f416464726573733a2063616c6c20746f206e6f6e2d636f6e7472616374000000604482015260640161028e565b50816108a5565b6108a58383815115610a0c5781518083602001fd5b8060405162461bcd60e51b815260040161028e9190610bc3565b600060208284031215610a3857600080fd5b81356001600160e01b03198116811461088f57600080fd5b6001600160a01b038116811461039057600080fd5b60008060408385031215610a7857600080fd5b823591506020830135610a8a81610a50565b809150509250929050565b600060208284031215610aa757600080fd5b5035919050565b600080600060608486031215610ac357600080fd5b8335610ace81610a50565b92506020840135610ade81610a50565b929592945050506040919091013590565b600060208284031215610b0157600080fd5b8151801515811461088f57600080fd5b600060208284031215610b2357600080fd5b5051919050565b60005b83811015610b45578181015183820152602001610b2d565b50506000910152565b7f416363657373436f6e74726f6c3a206163636f756e7420000000000000000000815260008351610b86816017850160208801610b2a565b7001034b99036b4b9b9b4b733903937b6329607d1b6017918401918201528351610bb7816028840160208801610b2a565b01602801949350505050565b6020815260008251806020840152610be2816040850160208701610b2a565b601f01601f19169190910160400192915050565b634e487b7160e01b600052601160045260246000fd5b80820281158282048414176101da576101da610bf6565b808201808211156101da576101da610bf6565b634e487b7160e01b600052604160045260246000fd5b634e487b7160e01b600052603260045260246000fd5b600081610c7157610c71610bf6565b506000190190565b60008251610c8b818460208701610b2a565b919091019291505056fea2646970667358221220d27aa140eec727ec7aaf8042787a48a0c01b7104f357383ef26b9d9d00c169b064736f6c63430008140033",
    "linkReferences": {}
  },
  "methodIdentifiers": {
    "DEFAULT_ADMIN_ROLE()": "a217fddf",
    "approveSuccess(address,address,uint256)": "5cd277aa",
    "getRoleAdmin(bytes32)": "248a9ca3",
    "grantRole(bytes32,address)": "2f2ff15d",
    "grantRoleSuccess(bytes32,address)": "16430cf4",
    "hasRole(bytes32,address)": "91d14854",
    "renounceRole(bytes32,address)": "36568abe",
    "revokeRole(bytes32,address)": "d547741f",
    "safeApproveFailure(address,address,uint256)": "d1958999",
    "setupRoleFailure(bytes32,address)": "2db02daf",
    "supportsInterface(bytes4)": "01ffc9a7"
  },
  "id": 12
}