{
  "abi": [
    {
      "anonymous": false,
      "inputs": [
        {
          "indexed": true,
          "internalType": "bytes32",
          "name": "role",
          "type": "bytes32"
        },
        {
          "indexed": true,
          "internalType": "bytes32",
          "name": "previousAdminRole",
          "type": "bytes32"
        },
        {
          "indexed": true,
          "internalType": "bytes32",
          "name": "newAdminRole",
          "type": "bytes32"
        }
      ],
      "name": "RoleAdminChanged",
      "type": "event"
    },
    {
      "anonymous": false,
      "inputs": [
        {
          "indexed": true,
          "internalType": "bytes32",
          "name": "role",
          "type": "bytes32"
        },
        {
          "indexed": true,
          "internalType": "address",
          "name": "account",
          "type": "address"
        },
        {
          "indexed": true,
          "internalType": "address",
          "name": "sender",
          "type": "address"
        }
      ],
      "name": "RoleGranted",
      "type": "event"
    },
    {
      "anonymous": false,
      "inputs": [
        {
          "indexed": true,
          "internalType": "bytes32",
          "name": "role",
          "type": "bytes32"
        },
        {
          "indexed": true,
          "internalType": "address",
          "name": "account",
          "type": "address"
        },
        {
          "indexed": true,
          "internalType": "address",
          "name": "sender",
          "type": "address"
        }
      ],
      "name": "RoleRevoked",
      "type": "event"
    },
    {
      "inputs": [],
      "name": "DEFAULT_ADMIN_ROLE",
      "outputs": [
        {
          "internalType": "bytes32",
          "name": "",
          "type": "bytes32"
        }
      ],
      "stateMutability": "view",
      "type": "function"
    },
    {
      "inputs": [
        {
          "internalType": "contract IERC20",
          "name": "token",
          "type": "address"
        },
        {
          "internalType": "address",
          "name": "spender",
          "type": "address"
        },
        {
          "internalType": "uint256",
          "name": "value",
          "type": "uint256"
        }
      ],
      "name": "approve",
      "outputs": [],
      "stateMutability": "nonpayable",
      "type": "function"
    },
    {
      "inputs": [
        {
          "internalType": "bytes32",
          "name": "role",
          "type": "bytes32"
        }
      ],
      "name": "getRoleAdmin",
      "outputs": [
        {
          "internalType": "bytes32",
          "name": "",
          "type": "bytes32"
        }
      ],
      "stateMutability": "view",
      "type": "function"
    },
    {
      "inputs": [
        {
          "internalType": "bytes32",
          "name": "role",
          "type": "bytes32"
        },
        {
          "internalType": "address",
          "name": "account",
          "type": "address"
        }
      ],
      "name": "grantRole",
      "outputs": [],
      "stateMutability": "nonpayable",
      "type": "function"
    },
    {
      "inputs": [
        {
          "internalType": "bytes32",
          "name": "role",
          "type": "bytes32"
        },
        {
          "internalType": "address",
          "name": "account",
          "type": "address"
        }
      ],
      "name": "grantRole0",
      "outputs": [],
      "stateMutability": "nonpayable",
      "type": "function"
    },
    {
      "inputs": [
        {
          "internalType": "bytes32",
          "name": "role",
          "type": "bytes32"
        },
        {
          "internalType": "address",
          "name": "account",
          "type": "address"
        }
      ],
      "name": "hasRole",
      "outputs": [
        {
          "internalType": "bool",
          "name": "",
          "type": "bool"
        }
      ],
      "stateMutability": "view",
      "type": "function"
    },
    {
      "inputs": [
        {
          "internalType": "bytes32",
          "name": "role",
          "type": "bytes32"
        },
        {
          "internalType": "address",
          "name": "account",
          "type": "address"
        }
      ],
      "name": "renounceRole",
      "outputs": [],
      "stateMutability": "nonpayable",
      "type": "function"
    },
    {
      "inputs": [
        {
          "internalType": "bytes32",
          "name": "role",
          "type": "bytes32"
        },
        {
          "internalType": "address",
          "name": "account",
          "type": "address"
        }
      ],
      "name": "revokeRole",
      "outputs": [],
      "stateMutability": "nonpayable",
      "type": "function"
    },
    {
      "inputs": [
        {
          "internalType": "contract IERC20",
          "name": "token",
          "type": "address"
        },
        {
          "internalType": "address",
          "name": "spender",
          "type": "address"
        },
        {
          "internalType": "uint256",
          "name": "value",
          "type": "uint256"
        }
      ],
      "name": "safeApprove",
      "outputs": [],
      "stateMutability": "nonpayable",
      "type": "function"
    },
    {
      "inputs": [
        {
          "internalType": "contract IERC20",
          "name": "token",
          "type": "address"
        },
        {
          "internalType": "address",
          "name": "from",
          "type": "address"
        },
        {
          "internalType": "address",
          "name": "to",
          "type": "address"
        },
        {
          "internalType": "uint256",
          "name": "value",
          "type": "uint256"
        }
      ],
      "name": "safeTransferFrom",
      "outputs": [],
      "stateMutability": "nonpayable",
      "type": "function"
    },
    {
      "inputs": [
        {
          "internalType": "bytes32",
          "name": "role",
          "type": "bytes32"
        },
        {
          "internalType": "address",
          "name": "account",
          "type": "address"
        }
      ],
      "name": "setupRole",
      "outputs": [],
      "stateMutability": "nonpayable",
      "type": "function"
    },
    {
      "inputs": [
        {
          "internalType": "bytes4",
          "name": "interfaceId",
          "type": "bytes4"
        }
      ],
      "name": "supportsInterface",
      "outputs": [
        {
          "internalType": "bool",
          "name": "",
          "type": "bool"
        }
      ],
      "stateMutability": "view",
      "type": "function"
    },
    {
      "inputs": [
        {
          "internalType": "contract IERC20",
          "name": "token",
          "type": "address"
        },
        {
          "internalType": "address",
          "name": "from",
          "type": "address"
        },
        {
          "internalType": "address",
          "name": "to",
          "type": "address"
        },
        {
          "internalType": "uint256",
          "name": "value",
          "type": "uint256"
        }
      ],
      "name": "transferFrom",
      "outputs": [],
      "stateMutability": "nonpayable",
      "type": "function"
    }
  ],
  "bytecode": {
    "object": "0x608060405234801561001057600080fd5b50610e48806100206000396000f3fe608060405234801561001057600080fd5b50600436106100cf5760003560e01c806391d148541161008c578063d9fc4b6111610066578063d9fc4b61146101a9578063e1f21c67146101bc578063eb5625d9146101cf578063fa82ac76146101e257600080fd5b806391d148541461017b578063a217fddf1461018e578063d547741f1461019657600080fd5b806301ffc9a7146100d45780630f018bec146100fc57806315dacbea14610111578063248a9ca3146101245780632f2ff15d1461015557806336568abe14610168575b600080fd5b6100e76100e2366004610b52565b6101f5565b60405190151581526020015b60405180910390f35b61010f61010a366004610b91565b61022c565b005b61010f61011f366004610bc1565b61023a565b610147610132366004610c12565b60009081526020819052604090206001015490565b6040519081526020016100f3565b61010f610163366004610b91565b6102bc565b61010f610176366004610b91565b6102e6565b6100e7610189366004610b91565b610365565b610147600081565b61010f6101a4366004610b91565b61038e565b61010f6101b7366004610bc1565b6103b3565b61010f6101ca366004610c2b565b6103ce565b61010f6101dd366004610c2b565b610441565b61010f6101f0366004610b91565b610455565b60006001600160e01b03198216637965db0b60e01b148061022657506301ffc9a760e01b6001600160e01b03198316145b92915050565b61023682826102bc565b5050565b6040516323b872dd60e01b81526001600160a01b0384811660048301528381166024830152604482018390528516906323b872dd906064016020604051808303816000875af1158015610291573d6000803e3d6000fd5b505050506040513d601f19601f820116820180604052508101906102b59190610c6c565b5050505050565b6000828152602081905260409020600101546102d78161045f565b6102e1838361046c565b505050565b6001600160a01b038116331461035b5760405162461bcd60e51b815260206004820152602f60248201527f416363657373436f6e74726f6c3a2063616e206f6e6c792072656e6f756e636560448201526e103937b632b9903337b91039b2b63360891b60648201526084015b60405180910390fd5b61023682826104f0565b6000918252602082815260408084206001600160a01b0393909316845291905290205460ff1690565b6000828152602081905260409020600101546103a98161045f565b6102e183836104f0565b6103c86001600160a01b038516848484610555565b50505050565b60405163095ea7b360e01b81526001600160a01b0383811660048301526024820183905284169063095ea7b3906044016020604051808303816000875af115801561041d573d6000803e3d6000fd5b505050506040513d601f19601f820116820180604052508101906103c89190610c6c565b6102e16001600160a01b03841683836105c0565b61023682826106d5565b61046981336106df565b50565b6104768282610365565b610236576000828152602081815260408083206001600160a01b03851684529091529020805460ff191660011790556104ac3390565b6001600160a01b0316816001600160a01b0316837f2f8788117e7eff1d82e926ec794901d17c78024a50270940304540a733656f0d60405160405180910390a45050565b6104fa8282610365565b15610236576000828152602081815260408083206001600160a01b0385168085529252808320805460ff1916905551339285917ff6391f5c32d9c69d2a47ea670b442974b53935d1edc7fd64eb21e047a839171b9190a45050565b6040516001600160a01b03808516602483015283166044820152606481018290526103c89085906323b872dd60e01b906084015b60408051601f198184030181529190526020810180516001600160e01b03166001600160e01b031990931692909217909152610738565b80158061063a5750604051636eb1769f60e11b81523060048201526001600160a01b03838116602483015284169063dd62ed3e90604401602060405180830381865afa158015610614573d6000803e3d6000fd5b505050506040513d601f19601f820116820180604052508101906106389190610c8e565b155b6106a55760405162461bcd60e51b815260206004820152603660248201527f5361666545524332303a20617070726f76652066726f6d206e6f6e2d7a65726f60448201527520746f206e6f6e2d7a65726f20616c6c6f77616e636560501b6064820152608401610352565b6040516001600160a01b0383166024820152604481018290526102e190849063095ea7b360e01b90606401610589565b610236828261046c565b6106e98282610365565b610236576106f68161080d565b61070183602061081f565b604051602001610712929190610ccb565b60408051601f198184030181529082905262461bcd60e51b825261035291600401610d40565b600061078d826040518060400160405280602081526020017f5361666545524332303a206c6f772d6c6576656c2063616c6c206661696c6564815250856001600160a01b03166109c29092919063ffffffff16565b90508051600014806107ae5750808060200190518101906107ae9190610c6c565b6102e15760405162461bcd60e51b815260206004820152602a60248201527f5361666545524332303a204552433230206f7065726174696f6e20646964206e6044820152691bdd081cdd58d8d9595960b21b6064820152608401610352565b60606102266001600160a01b03831660145b6060600061082e836002610d89565b610839906002610da0565b67ffffffffffffffff81111561085157610851610db3565b6040519080825280601f01601f19166020018201604052801561087b576020820181803683370190505b509050600360fc1b8160008151811061089657610896610dc9565b60200101906001600160f81b031916908160001a905350600f60fb1b816001815181106108c5576108c5610dc9565b60200101906001600160f81b031916908160001a90535060006108e9846002610d89565b6108f4906001610da0565b90505b600181111561096c576f181899199a1a9b1b9c1cb0b131b232b360811b85600f166010811061092857610928610dc9565b1a60f81b82828151811061093e5761093e610dc9565b60200101906001600160f81b031916908160001a90535060049490941c9361096581610ddf565b90506108f7565b5083156109bb5760405162461bcd60e51b815260206004820181905260248201527f537472696e67733a20686578206c656e67746820696e73756666696369656e746044820152606401610352565b9392505050565b60606109d184846000856109d9565b949350505050565b606082471015610a3a5760405162461bcd60e51b815260206004820152602660248201527f416464726573733a20696e73756666696369656e742062616c616e636520666f6044820152651c8818d85b1b60d21b6064820152608401610352565b600080866001600160a01b03168587604051610a569190610df6565b60006040518083038185875af1925050503d8060008114610a93576040519150601f19603f3d011682016040523d82523d6000602084013e610a98565b606091505b5091509150610aa987838387610ab4565b979650505050505050565b60608315610b23578251600003610b1c576001600160a01b0385163b610b1c5760405162461bcd60e51b815260206004820152601d60248201527f416464726573733a2063616c6c20746f206e6f6e2d636f6e74726163740000006044820152606401610352565b50816109d1565b6109d18383815115610b385781518083602001fd5b8060405162461bcd60e51b81526004016103529190610d40565b600060208284031215610b6457600080fd5b81356001600160e01b0319811681146109bb57600080fd5b6001600160a01b038116811461046957600080fd5b60008060408385031215610ba457600080fd5b823591506020830135610bb681610b7c565b809150509250929050565b60008060008060808587031215610bd757600080fd5b8435610be281610b7c565b93506020850135610bf281610b7c565b92506040850135610c0281610b7c565b9396929550929360600135925050565b600060208284031215610c2457600080fd5b5035919050565b600080600060608486031215610c4057600080fd5b8335610c4b81610b7c565b92506020840135610c5b81610b7c565b929592945050506040919091013590565b600060208284031215610c7e57600080fd5b815180151581146109bb57600080fd5b600060208284031215610ca057600080fd5b5051919050565b60005b83811015610cc2578181015183820152602001610caa565b50506000910152565b7f416363657373436f6e74726f6c3a206163636f756e7420000000000000000000815260008351610d03816017850160208801610ca7565b7001034b99036b4b9b9b4b733903937b6329607d1b6017918401918201528351610d34816028840160208801610ca7565b01602801949350505050565b6020815260008251806020840152610d5f816040850160208701610ca7565b601f01601f19169190910160400192915050565b634e487b7160e01b600052601160045260246000fd5b808202811582820484141761022657610226610d73565b8082018082111561022657610226610d73565b634e487b7160e01b600052604160045260246000fd5b634e487b7160e01b600052603260045260246000fd5b600081610dee57610dee610d73565b506000190190565b60008251610e08818460208701610ca7565b919091019291505056fea2646970667358221220c52a392e6db964787f93888432169bc7a9cd9658aa0a17073d0aa10b75e5346f64736f6c63430008140033",
    "linkReferences": {}
  },
  "methodIdentifiers": {
    "DEFAULT_ADMIN_ROLE()": "a217fddf",
    "approve(address,address,uint256)": "e1f21c67",
    "getRoleAdmin(bytes32)": "248a9ca3",
    "grantRole(bytes32,address)": "2f2ff15d",
    "grantRole0(bytes32,address)": "0f018bec",
    "hasRole(bytes32,address)": "91d14854",
    "renounceRole(bytes32,address)": "36568abe",
    "revokeRole(bytes32,address)": "d547741f",
    "safeApprove(address,address,uint256)": "eb5625d9",
    "safeTransferFrom(address,address,address,uint256)": "d9fc4b61",
    "setupRole(bytes32,address)": "fa82ac76",
    "supportsInterface(bytes4)": "01ffc9a7",
    "transferFrom(address,address,address,uint256)": "15dacbea"
  },
  "id": 12
}